{
  "contractName": "bytesSwap",
  "abi": [
    {
      "inputs": [
        {
          "internalType": "bytes32",
          "name": "_bytes32",
          "type": "bytes32"
        }
      ],
      "name": "bytes32ToString",
      "outputs": [
        {
          "internalType": "string",
          "name": "",
          "type": "string"
        }
      ],
      "stateMutability": "pure",
      "type": "function"
    },
    {
      "inputs": [
        {
          "internalType": "string",
          "name": "source",
          "type": "string"
        }
      ],
      "name": "stringToBytes32",
      "outputs": [
        {
          "internalType": "bytes32",
          "name": "result",
          "type": "bytes32"
        }
      ],
      "stateMutability": "pure",
      "type": "function"
    }
  ],
  "bytecode": "0x61060f610053600b82828239805160001a607314610046577f4e487b7100000000000000000000000000000000000000000000000000000000600052600060045260246000fd5b30600052607381538281f3fe73000000000000000000000000000000000000000030146080604052600436106100405760003560e01c80639201de5514610045578063cfb5192814610075575b600080fd5b61005f600480360381019061005a91906102b4565b6100a5565b60405161006c919061037a565b60405180910390f35b61008f600480360381019061008a91906104d1565b610240565b60405161009c9190610529565b60405180910390f35b606060005b60208160ff161080156100fc5750600060f81b838260ff16602081106100d3576100d2610544565b5b1a60f81b7effffffffffffffffffffffffffffffffffffffffffffffffffffffffffffff191614155b1561011457808061010c906105af565b9150506100aa565b60008160ff1667ffffffffffffffff811115610133576101326103a6565b5b6040519080825280601f01601f1916602001820160405280156101655781602001600182028036833780820191505090505b509050600091505b60208260ff161080156101bf5750600060f81b848360ff166020811061019657610195610544565b5b1a60f81b7effffffffffffffffffffffffffffffffffffffffffffffffffffffffffffff191614155b1561023657838260ff16602081106101da576101d9610544565b5b1a60f81b818360ff16815181106101f4576101f3610544565b5b60200101907effffffffffffffffffffffffffffffffffffffffffffffffffffffffffffff1916908160001a905350818061022e906105af565b92505061016d565b8092505050919050565b60008082905060008151141561025c576000801b915050610265565b60208301519150505b919050565b6000604051905090565b600080fd5b600080fd5b6000819050919050565b6102918161027e565b811461029c57600080fd5b50565b6000813590506102ae81610288565b92915050565b6000602082840312156102ca576102c9610274565b5b60006102d88482850161029f565b91505092915050565b600081519050919050565b600082825260208201905092915050565b60005b8381101561031b578082015181840152602081019050610300565b8381111561032a576000848401525b50505050565b6000601f19601f8301169050919050565b600061034c826102e1565b61035681856102ec565b93506103668185602086016102fd565b61036f81610330565b840191505092915050565b600060208201905081810360008301526103948184610341565b905092915050565b600080fd5b600080fd5b7f4e487b7100000000000000000000000000000000000000000000000000000000600052604160045260246000fd5b6103de82610330565b810181811067ffffffffffffffff821117156103fd576103fc6103a6565b5b80604052505050565b600061041061026a565b905061041c82826103d5565b919050565b600067ffffffffffffffff82111561043c5761043b6103a6565b5b61044582610330565b9050602081019050919050565b82818337600083830152505050565b600061047461046f84610421565b610406565b9050828152602081018484840111156104905761048f6103a1565b5b61049b848285610452565b509392505050565b600082601f8301126104b8576104b761039c565b5b81356104c8848260208601610461565b91505092915050565b6000602082840312156104e7576104e6610274565b5b600082013567ffffffffffffffff81111561050557610504610279565b5b610511848285016104a3565b91505092915050565b6105238161027e565b82525050565b600060208201905061053e600083018461051a565b92915050565b7f4e487b7100000000000000000000000000000000000000000000000000000000600052603260045260246000fd5b7f4e487b7100000000000000000000000000000000000000000000000000000000600052601160045260246000fd5b600060ff82169050919050565b60006105ba826105a2565b915060ff8214156105ce576105cd610573565b5b60018201905091905056fea2646970667358221220b79183bc47202e176f4b28e1d836e081a7b26df8040bd30853d645f1685fec9c64736f6c634300080a0033",
  "immutableReferences": {},
  "source": "pragma solidity ^0.8.10;\n\nlibrary bytesSwap {\n\n    function bytes32ToString(bytes32 _bytes32) public pure returns (string memory) {\n        uint8 i = 0;\n        while(i < 32 && _bytes32[i] != 0) {\n            i++;\n        }\n        bytes memory bytesArray = new bytes(i);\n        for (i = 0; i < 32 && _bytes32[i] != 0; i++) {\n            bytesArray[i] = _bytes32[i];\n        }\n        return string(bytesArray);\n    }\n    \n    function stringToBytes32(string memory source) public pure returns (bytes32 result) {\n        bytes memory tempEmptyStringTest = bytes(source);\n        if (tempEmptyStringTest.length == 0) {\n            return 0x0;\n        }\n\n        assembly { // solhint-disable-line no-inline-assembly\n            result := mload(add(source, 32))\n        }\n  }\n}",
  "sourcePath": "/Users/msicilia/Desktop/dev/lrn/consensys/blockchain-developer-bootcamp-final-project/contracts/bytesSwap.sol",
  "compiler": {
    "name": "solc",
    "version": "0.8.10+commit.fc410830.Emscripten.clang"
  },
  "schemaVersion": "3.4.3",
  "updatedAt": "2021-11-25T11:29:59.626Z",
  "devdoc": {
    "kind": "dev",
    "methods": {},
    "version": 1
  },
  "userdoc": {
    "kind": "user",
    "methods": {},
    "version": 1
  }
}