{
  "contractName": "SpeedRunRepoOraclized",
  "abi": [
    {
      "inputs": [],
      "stateMutability": "nonpayable",
      "type": "constructor"
    },
    {
      "anonymous": false,
      "inputs": [
        {
          "indexed": true,
          "internalType": "bytes32",
          "name": "id",
          "type": "bytes32"
        }
      ],
      "name": "ChainlinkCancelled",
      "type": "event"
    },
    {
      "anonymous": false,
      "inputs": [
        {
          "indexed": true,
          "internalType": "bytes32",
          "name": "id",
          "type": "bytes32"
        }
      ],
      "name": "ChainlinkFulfilled",
      "type": "event"
    },
    {
      "anonymous": false,
      "inputs": [
        {
          "indexed": true,
          "internalType": "bytes32",
          "name": "id",
          "type": "bytes32"
        }
      ],
      "name": "ChainlinkRequested",
      "type": "event"
    },
    {
      "anonymous": false,
      "inputs": [
        {
          "indexed": true,
          "internalType": "bytes32",
          "name": "requestId",
          "type": "bytes32"
        },
        {
          "indexed": true,
          "internalType": "bytes",
          "name": "data",
          "type": "bytes"
        }
      ],
      "name": "RequestFulfilled",
      "type": "event"
    },
    {
      "inputs": [
        {
          "internalType": "string",
          "name": "",
          "type": "string"
        }
      ],
      "name": "runners",
      "outputs": [
        {
          "internalType": "bool",
          "name": "isRunner",
          "type": "bool"
        },
        {
          "internalType": "string",
          "name": "userName",
          "type": "string"
        },
        {
          "internalType": "string",
          "name": "userId",
          "type": "string"
        },
        {
          "internalType": "address",
          "name": "addr",
          "type": "address"
        }
      ],
      "stateMutability": "view",
      "type": "function"
    },
    {
      "inputs": [
        {
          "internalType": "string",
          "name": "",
          "type": "string"
        },
        {
          "internalType": "string",
          "name": "",
          "type": "string"
        },
        {
          "internalType": "string",
          "name": "",
          "type": "string"
        }
      ],
      "name": "runs",
      "outputs": [
        {
          "internalType": "bool",
          "name": "isRun",
          "type": "bool"
        },
        {
          "internalType": "string",
          "name": "gameId",
          "type": "string"
        },
        {
          "internalType": "string",
          "name": "levelId",
          "type": "string"
        },
        {
          "internalType": "string",
          "name": "runId",
          "type": "string"
        },
        {
          "internalType": "uint256",
          "name": "primaryTime",
          "type": "uint256"
        },
        {
          "internalType": "string",
          "name": "userId",
          "type": "string"
        }
      ],
      "stateMutability": "view",
      "type": "function"
    },
    {
      "inputs": [
        {
          "internalType": "string",
          "name": "userId",
          "type": "string"
        },
        {
          "internalType": "string",
          "name": "gameId",
          "type": "string"
        },
        {
          "internalType": "string",
          "name": "levelId",
          "type": "string"
        },
        {
          "internalType": "uint256",
          "name": "mark",
          "type": "uint256"
        }
      ],
      "name": "passed_mark",
      "outputs": [
        {
          "internalType": "bool",
          "name": "",
          "type": "bool"
        }
      ],
      "stateMutability": "view",
      "type": "function"
    },
    {
      "inputs": [
        {
          "internalType": "string",
          "name": "_userName",
          "type": "string"
        },
        {
          "internalType": "string",
          "name": "_userId",
          "type": "string"
        },
        {
          "internalType": "address",
          "name": "_addr",
          "type": "address"
        }
      ],
      "name": "add_runner",
      "outputs": [],
      "stateMutability": "nonpayable",
      "type": "function"
    },
    {
      "inputs": [
        {
          "internalType": "string",
          "name": "_userId",
          "type": "string"
        },
        {
          "internalType": "string",
          "name": "_gameId",
          "type": "string"
        },
        {
          "internalType": "string",
          "name": "_levelId",
          "type": "string"
        },
        {
          "internalType": "string",
          "name": "runId",
          "type": "string"
        },
        {
          "internalType": "uint256",
          "name": "mark",
          "type": "uint256"
        }
      ],
      "name": "add_run",
      "outputs": [],
      "stateMutability": "nonpayable",
      "type": "function"
    },
    {
      "inputs": [
        {
          "internalType": "string",
          "name": "_userId",
          "type": "string"
        }
      ],
      "name": "_requestAddress",
      "outputs": [
        {
          "internalType": "bytes32",
          "name": "requestId",
          "type": "bytes32"
        }
      ],
      "stateMutability": "nonpayable",
      "type": "function"
    },
    {
      "inputs": [
        {
          "internalType": "bytes32",
          "name": "_requestId",
          "type": "bytes32"
        },
        {
          "internalType": "bytes",
          "name": "_addr",
          "type": "bytes"
        }
      ],
      "name": "fulfillRequestAddress",
      "outputs": [],
      "stateMutability": "nonpayable",
      "type": "function"
    }
  ],
  "bytecode": "0x608060405260016004553480156200001657600080fd5b50620000276200002d60201b60201c565b620001b5565b620000d373c89bd4e1632d3a43cb03aaad5262cbe4038bc57173ffffffffffffffffffffffffffffffffffffffff166338cc48316040518163ffffffff1660e01b815260040160206040518083038186803b1580156200008c57600080fd5b505afa158015620000a1573d6000803e3d6000fd5b505050506040513d601f19601f82011682018060405250810190620000c7919062000183565b620000d560201b60201c565b565b80600260006101000a81548173ffffffffffffffffffffffffffffffffffffffff021916908373ffffffffffffffffffffffffffffffffffffffff16021790555050565b600080fd5b600073ffffffffffffffffffffffffffffffffffffffff82169050919050565b60006200014b826200011e565b9050919050565b6200015d816200013e565b81146200016957600080fd5b50565b6000815190506200017d8162000152565b92915050565b6000602082840312156200019c576200019b62000119565b5b6000620001ac848285016200016c565b91505092915050565b6125d780620001c56000396000f3fe608060405234801561001057600080fd5b506004361061007d5760003560e01c8063a89f90cf1161005b578063a89f90cf146100ea578063bf35a2bb1461011a578063e6b0d3eb1461014f578063f1de7f201461016b5761007d565b806342e315ee1461008257806348031e1e1461009e578063560939c3146100ba575b600080fd5b61009c60048036038101906100979190611602565b61019e565b005b6100b860048036038101906100b391906116cd565b61032e565b005b6100d460048036038101906100cf91906117c9565b610339565b6040516100e1919061182f565b60405180910390f35b61010460048036038101906100ff919061184a565b610493565b604051610111919061192e565b60405180910390f35b610134600480360381019061012f9190611a8a565b6104a4565b60405161014696959493929190611bc8565b60405180910390f35b61016960048036038101906101649190611d12565b610769565b005b61018560048036038101906101809190611d6e565b610a6e565b6040516101959493929190611dc6565b60405180910390f35b60006101aa8484610339565b9050604051806080016040528060011515815260200187878080601f016020809104026020016040519081016040528093929190818152602001838380828437600081840152601f19601f82011690508083019250505050505050815260200185858080601f016020809104026020016040519081016040528093929190818152602001838380828437600081840152601f19601f820116905080830192505050505050508152602001600073ffffffffffffffffffffffffffffffffffffffff168152506008600083815260200190815260200160002060008201518160000160006101000a81548160ff02191690831515021790555060208201518160010190805190602001906102be929190611401565b5060408201518160020190805190602001906102db929190611401565b5060608201518160030160006101000a81548173ffffffffffffffffffffffffffffffffffffffff021916908373ffffffffffffffffffffffffffffffffffffffff160217905550905050505050505050565b505050505050505050565b60008073c57b33452b4f7bb189bb5afae9cc4aba1f7a4fd8905060007f37613937666638343933656334303664393036323162323533316639323531619050600067016345785d8a000090506000610399833063e6b0d3eb60e01b610bf1565b90506103fd6040518060400160405280600381526020017f67657400000000000000000000000000000000000000000000000000000000008152506040518060600160405280602e8152602001612574602e913983610c229092919063ffffffff16565b61047c6040518060400160405280600481526020017f70617468000000000000000000000000000000000000000000000000000000008152506040518060400160405280600f81526020017f646174612e7477697463682e757269000000000000000000000000000000000081525083610c229092919063ffffffff16565b610487848284610c55565b94505050505092915050565b600060019050979650505050505050565b600783805160208101820180518482526020830160208501208183528095505050505050828051602081018201805184825260208301602085012081835280955050505050508180516020810182018051848252602083016020850120818352809550505050505060009250925050508060000160009054906101000a900460ff169080600101805461053690611e48565b80601f016020809104026020016040519081016040528092919081815260200182805461056290611e48565b80156105af5780601f10610584576101008083540402835291602001916105af565b820191906000526020600020905b81548152906001019060200180831161059257829003601f168201915b5050505050908060020180546105c490611e48565b80601f01602080910402602001604051908101604052809291908181526020018280546105f090611e48565b801561063d5780601f106106125761010080835404028352916020019161063d565b820191906000526020600020905b81548152906001019060200180831161062057829003601f168201915b50505050509080600301805461065290611e48565b80601f016020809104026020016040519081016040528092919081815260200182805461067e90611e48565b80156106cb5780601f106106a0576101008083540402835291602001916106cb565b820191906000526020600020905b8154815290600101906020018083116106ae57829003601f168201915b5050505050908060040154908060050180546106e690611e48565b80601f016020809104026020016040519081016040528092919081815260200182805461071290611e48565b801561075f5780601f106107345761010080835404028352916020019161075f565b820191906000526020600020905b81548152906001019060200180831161074257829003601f168201915b5050505050905086565b816005600082815260200190815260200160002060009054906101000a900473ffffffffffffffffffffffffffffffffffffffff1673ffffffffffffffffffffffffffffffffffffffff163373ffffffffffffffffffffffffffffffffffffffff161461080b576040517f08c379a000000000000000000000000000000000000000000000000000000000815260040161080290611eec565b60405180910390fd5b6005600082815260200190815260200160002060006101000a81549073ffffffffffffffffffffffffffffffffffffffff0219169055807f7cc135e0cebb02c3480ae5d74d377283180a2601f8f644edf7987b009316c63a60405160405180910390a28160405161087c9190611f53565b6040518091039020837f1a111c5dcf9a71088bd5e1797fdfaf399fec2afbb24aca247e4e3e9f4b61df9160405160405180910390a36000600860008581526020019081526020016000206040518060800160405290816000820160009054906101000a900460ff161515151581526020016001820180546108fc90611e48565b80601f016020809104026020016040519081016040528092919081815260200182805461092890611e48565b80156109755780601f1061094a57610100808354040283529160200191610975565b820191906000526020600020905b81548152906001019060200180831161095857829003601f168201915b5050505050815260200160028201805461098e90611e48565b80601f01602080910402602001604051908101604052809291908181526020018280546109ba90611e48565b8015610a075780601f106109dc57610100808354040283529160200191610a07565b820191906000526020600020905b8154815290600101906020018083116109ea57829003601f168201915b505050505081526020016003820160009054906101000a900473ffffffffffffffffffffffffffffffffffffffff1673ffffffffffffffffffffffffffffffffffffffff1673ffffffffffffffffffffffffffffffffffffffff1681525050905050505050565b6006818051602081018201805184825260208301602085012081835280955050505050506000915090508060000160009054906101000a900460ff1690806001018054610aba90611e48565b80601f0160208091040260200160405190810160405280929190818152602001828054610ae690611e48565b8015610b335780601f10610b0857610100808354040283529160200191610b33565b820191906000526020600020905b815481529060010190602001808311610b1657829003601f168201915b505050505090806002018054610b4890611e48565b80601f0160208091040260200160405190810160405280929190818152602001828054610b7490611e48565b8015610bc15780601f10610b9657610100808354040283529160200191610bc1565b820191906000526020600020905b815481529060010190602001808311610ba457829003601f168201915b5050505050908060030160009054906101000a900473ffffffffffffffffffffffffffffffffffffffff16905084565b610bf9611487565b610c01611487565b610c1885858584610d21909392919063ffffffff16565b9150509392505050565b610c39828460800151610dd190919063ffffffff16565b610c50818460800151610dd190919063ffffffff16565b505050565b6000806004549050600181610c6a9190611f99565b6004819055506000634042994660e01b60008087600001513089604001518760018c6080015160000151604051602401610cab989796959493929190612074565b604051602081830303815290604052907bffffffffffffffffffffffffffffffffffffffffffffffffffffffff19166020820180517bffffffffffffffffffffffffffffffffffffffffffffffffffffffff83818316178352505050509050610d1686838684610df6565b925050509392505050565b610d29611487565b610d398560800151610100610f9a565b508385600001818152505082856020019073ffffffffffffffffffffffffffffffffffffffff16908173ffffffffffffffffffffffffffffffffffffffff16815250508185604001907bffffffffffffffffffffffffffffffffffffffffffffffffffffffff191690817bffffffffffffffffffffffffffffffffffffffffffffffffffffffff191681525050849050949350505050565b610dde8260038351611004565b610df1818361118990919063ffffffff16565b505050565b60003084604051602001610e0b9291906121b2565b604051602081830303815290604052805190602001209050846005600083815260200190815260200160002060006101000a81548173ffffffffffffffffffffffffffffffffffffffff021916908373ffffffffffffffffffffffffffffffffffffffff160217905550807fb5e6e01e79f91267dc17b4e6314d5d4d03593d2ceee0fbb452b750bd70ea5af960405160405180910390a2600260009054906101000a900473ffffffffffffffffffffffffffffffffffffffff1673ffffffffffffffffffffffffffffffffffffffff16634000aea08685856040518463ffffffff1660e01b8152600401610f01939291906121de565b602060405180830381600087803b158015610f1b57600080fd5b505af1158015610f2f573d6000803e3d6000fd5b505050506040513d601f19601f82011682018060405250810190610f539190612248565b610f92576040517f08c379a0000000000000000000000000000000000000000000000000000000008152600401610f89906122e7565b60405180910390fd5b949350505050565b610fa26114f4565b6000602083610fb19190612336565b14610fdd57602082610fc39190612336565b6020610fcf9190612367565b82610fda9190611f99565b91505b81836020018181525050604051808452600081528281016020016040525082905092915050565b60178167ffffffffffffffff161161103b576110358160058460ff16901b60ff1617846111ab90919063ffffffff16565b50611184565b60ff8167ffffffffffffffff16116110915761106a601860058460ff16901b17846111ab90919063ffffffff16565b5061108b8167ffffffffffffffff166001856111cb9092919063ffffffff16565b50611183565b61ffff8167ffffffffffffffff16116110e8576110c1601960058460ff16901b17846111ab90919063ffffffff16565b506110e28167ffffffffffffffff166002856111cb9092919063ffffffff16565b50611182565b63ffffffff8167ffffffffffffffff16116111415761111a601a60058460ff16901b17846111ab90919063ffffffff16565b5061113b8167ffffffffffffffff166004856111cb9092919063ffffffff16565b50611181565b61115e601b60058460ff16901b17846111ab90919063ffffffff16565b5061117f8167ffffffffffffffff166008856111cb9092919063ffffffff16565b505b5b5b5b505050565b6111916114f4565b6111a3838460000151518485516111ed565b905092915050565b6111b36114f4565b6111c383846000015151846112dc565b905092915050565b6111d36114f4565b6111e4848560000151518585611333565b90509392505050565b6111f56114f4565b825182111561120357600080fd5b846020015182856112149190611f99565b111561124957611248856002611239886020015188876112349190611f99565b6113c1565b611243919061239b565b6113dd565b5b6000808651805187602083010193508088870111156112685787860182525b60208701925050505b602084106112af578051825260208261128a9190611f99565b91506020816112999190611f99565b90506020846112a89190612367565b9350611271565b60006001856020036101000a03905080198251168184511681811785525050508692505050949350505050565b6112e46114f4565b8360200151831061130a576113098460028660200151611304919061239b565b6113dd565b5b8351805160208583010184815381861415611326576001820183525b5050508390509392505050565b61133b6114f4565b8460200151848361134c9190611f99565b11156113745761137385600286856113649190611f99565b61136e919061239b565b6113dd565b5b60006001836101006113869190612528565b6113909190612367565b905085518386820101858319825116178152815185880111156113b35784870182525b505085915050949350505050565b6000818311156113d3578290506113d7565b8190505b92915050565b6000826000015190506113f08383610f9a565b506113fb8382611189565b50505050565b82805461140d90611e48565b90600052602060002090601f01602090048101928261142f5760008555611476565b82601f1061144857805160ff1916838001178555611476565b82800160010185558215611476579182015b8281111561147557825182559160200191906001019061145a565b5b509050611483919061150e565b5090565b6040518060a0016040528060008019168152602001600073ffffffffffffffffffffffffffffffffffffffff16815260200160007bffffffffffffffffffffffffffffffffffffffffffffffffffffffff19168152602001600081526020016114ee6114f4565b81525090565b604051806040016040528060608152602001600081525090565b5b8082111561152757600081600090555060010161150f565b5090565b6000604051905090565b600080fd5b600080fd5b600080fd5b600080fd5b600080fd5b60008083601f8401126115645761156361153f565b5b8235905067ffffffffffffffff81111561158157611580611544565b5b60208301915083600182028301111561159d5761159c611549565b5b9250929050565b600073ffffffffffffffffffffffffffffffffffffffff82169050919050565b60006115cf826115a4565b9050919050565b6115df816115c4565b81146115ea57600080fd5b50565b6000813590506115fc816115d6565b92915050565b60008060008060006060868803121561161e5761161d611535565b5b600086013567ffffffffffffffff81111561163c5761163b61153a565b5b6116488882890161154e565b9550955050602086013567ffffffffffffffff81111561166b5761166a61153a565b5b6116778882890161154e565b9350935050604061168a888289016115ed565b9150509295509295909350565b6000819050919050565b6116aa81611697565b81146116b557600080fd5b50565b6000813590506116c7816116a1565b92915050565b600080600080600080600080600060a08a8c0312156116ef576116ee611535565b5b60008a013567ffffffffffffffff81111561170d5761170c61153a565b5b6117198c828d0161154e565b995099505060208a013567ffffffffffffffff81111561173c5761173b61153a565b5b6117488c828d0161154e565b975097505060408a013567ffffffffffffffff81111561176b5761176a61153a565b5b6117778c828d0161154e565b955095505060608a013567ffffffffffffffff81111561179a5761179961153a565b5b6117a68c828d0161154e565b935093505060806117b98c828d016116b8565b9150509295985092959850929598565b600080602083850312156117e0576117df611535565b5b600083013567ffffffffffffffff8111156117fe576117fd61153a565b5b61180a8582860161154e565b92509250509250929050565b6000819050919050565b61182981611816565b82525050565b60006020820190506118446000830184611820565b92915050565b60008060008060008060006080888a03121561186957611868611535565b5b600088013567ffffffffffffffff8111156118875761188661153a565b5b6118938a828b0161154e565b9750975050602088013567ffffffffffffffff8111156118b6576118b561153a565b5b6118c28a828b0161154e565b9550955050604088013567ffffffffffffffff8111156118e5576118e461153a565b5b6118f18a828b0161154e565b935093505060606119048a828b016116b8565b91505092959891949750929550565b60008115159050919050565b61192881611913565b82525050565b6000602082019050611943600083018461191f565b92915050565b600080fd5b6000601f19601f8301169050919050565b7f4e487b7100000000000000000000000000000000000000000000000000000000600052604160045260246000fd5b6119978261194e565b810181811067ffffffffffffffff821117156119b6576119b561195f565b5b80604052505050565b60006119c961152b565b90506119d5828261198e565b919050565b600067ffffffffffffffff8211156119f5576119f461195f565b5b6119fe8261194e565b9050602081019050919050565b82818337600083830152505050565b6000611a2d611a28846119da565b6119bf565b905082815260208101848484011115611a4957611a48611949565b5b611a54848285611a0b565b509392505050565b600082601f830112611a7157611a7061153f565b5b8135611a81848260208601611a1a565b91505092915050565b600080600060608486031215611aa357611aa2611535565b5b600084013567ffffffffffffffff811115611ac157611ac061153a565b5b611acd86828701611a5c565b935050602084013567ffffffffffffffff811115611aee57611aed61153a565b5b611afa86828701611a5c565b925050604084013567ffffffffffffffff811115611b1b57611b1a61153a565b5b611b2786828701611a5c565b9150509250925092565b600081519050919050565b600082825260208201905092915050565b60005b83811015611b6b578082015181840152602081019050611b50565b83811115611b7a576000848401525b50505050565b6000611b8b82611b31565b611b958185611b3c565b9350611ba5818560208601611b4d565b611bae8161194e565b840191505092915050565b611bc281611697565b82525050565b600060c082019050611bdd600083018961191f565b8181036020830152611bef8188611b80565b90508181036040830152611c038187611b80565b90508181036060830152611c178186611b80565b9050611c266080830185611bb9565b81810360a0830152611c388184611b80565b9050979650505050505050565b611c4e81611816565b8114611c5957600080fd5b50565b600081359050611c6b81611c45565b92915050565b600067ffffffffffffffff821115611c8c57611c8b61195f565b5b611c958261194e565b9050602081019050919050565b6000611cb5611cb084611c71565b6119bf565b905082815260208101848484011115611cd157611cd0611949565b5b611cdc848285611a0b565b509392505050565b600082601f830112611cf957611cf861153f565b5b8135611d09848260208601611ca2565b91505092915050565b60008060408385031215611d2957611d28611535565b5b6000611d3785828601611c5c565b925050602083013567ffffffffffffffff811115611d5857611d5761153a565b5b611d6485828601611ce4565b9150509250929050565b600060208284031215611d8457611d83611535565b5b600082013567ffffffffffffffff811115611da257611da161153a565b5b611dae84828501611a5c565b91505092915050565b611dc0816115c4565b82525050565b6000608082019050611ddb600083018761191f565b8181036020830152611ded8186611b80565b90508181036040830152611e018185611b80565b9050611e106060830184611db7565b95945050505050565b7f4e487b7100000000000000000000000000000000000000000000000000000000600052602260045260246000fd5b60006002820490506001821680611e6057607f821691505b60208210811415611e7457611e73611e19565b5b50919050565b7f536f75726365206d75737420626520746865206f7261636c65206f662074686560008201527f2072657175657374000000000000000000000000000000000000000000000000602082015250565b6000611ed6602883611b3c565b9150611ee182611e7a565b604082019050919050565b60006020820190508181036000830152611f0581611ec9565b9050919050565b600081519050919050565b600081905092915050565b6000611f2d82611f0c565b611f378185611f17565b9350611f47818560208601611b4d565b80840191505092915050565b6000611f5f8284611f22565b915081905092915050565b7f4e487b7100000000000000000000000000000000000000000000000000000000600052601160045260246000fd5b6000611fa482611697565b9150611faf83611697565b9250827fffffffffffffffffffffffffffffffffffffffffffffffffffffffffffffffff03821115611fe457611fe3611f6a565b5b828201905092915050565b60007fffffffff0000000000000000000000000000000000000000000000000000000082169050919050565b61202481611fef565b82525050565b600082825260208201905092915050565b600061204682611f0c565b612050818561202a565b9350612060818560208601611b4d565b6120698161194e565b840191505092915050565b60006101008201905061208a600083018b611db7565b612097602083018a611bb9565b6120a46040830189611820565b6120b16060830188611db7565b6120be608083018761201b565b6120cb60a0830186611bb9565b6120d860c0830185611bb9565b81810360e08301526120ea818461203b565b90509998505050505050505050565b6000819050919050565b600061211e612119612114846115a4565b6120f9565b6115a4565b9050919050565b600061213082612103565b9050919050565b600061214282612125565b9050919050565b60008160601b9050919050565b600061216182612149565b9050919050565b600061217382612156565b9050919050565b61218b61218682612137565b612168565b82525050565b6000819050919050565b6121ac6121a782611697565b612191565b82525050565b60006121be828561217a565b6014820191506121ce828461219b565b6020820191508190509392505050565b60006060820190506121f36000830186611db7565b6122006020830185611bb9565b8181036040830152612212818461203b565b9050949350505050565b61222581611913565b811461223057600080fd5b50565b6000815190506122428161221c565b92915050565b60006020828403121561225e5761225d611535565b5b600061226c84828501612233565b91505092915050565b7f756e61626c6520746f207472616e73666572416e6443616c6c20746f206f726160008201527f636c650000000000000000000000000000000000000000000000000000000000602082015250565b60006122d1602383611b3c565b91506122dc82612275565b604082019050919050565b60006020820190508181036000830152612300816122c4565b9050919050565b7f4e487b7100000000000000000000000000000000000000000000000000000000600052601260045260246000fd5b600061234182611697565b915061234c83611697565b92508261235c5761235b612307565b5b828206905092915050565b600061237282611697565b915061237d83611697565b9250828210156123905761238f611f6a565b5b828203905092915050565b60006123a682611697565b91506123b183611697565b9250817fffffffffffffffffffffffffffffffffffffffffffffffffffffffffffffffff04831182151516156123ea576123e9611f6a565b5b828202905092915050565b60008160011c9050919050565b6000808291508390505b600185111561244c5780860481111561242857612427611f6a565b5b60018516156124375780820291505b8081029050612445856123f5565b945061240c565b94509492505050565b6000826124655760019050612521565b816124735760009050612521565b81600181146124895760028114612493576124c2565b6001915050612521565b60ff8411156124a5576124a4611f6a565b5b8360020a9150848211156124bc576124bb611f6a565b5b50612521565b5060208310610133831016604e8410600b84101617156124f75782820a9050838111156124f2576124f1611f6a565b5b612521565b6125048484846001612402565b9250905081840481111561251b5761251a611f6a565b5b81810290505b9392505050565b600061253382611697565b915061253e83611697565b925061256b7fffffffffffffffffffffffffffffffffffffffffffffffffffffffffffffffff8484612455565b90509291505056fe68747470733a2f2f7777772e737065656472756e2e636f6d2f6170692f76312f75736572732f6a703437766d796aa26469706673582212203b14f0967faf1f8387712e45c5bff1ba65ba5901eebc50c5de0aa3cd35e66ae864736f6c63430008090033",
  "immutableReferences": {},
  "source": "// SPDX-License-Identifier: GPL-3.0\npragma solidity ^0.8.9;\n\nimport \"@chainlink/contracts/src/v0.8/ChainlinkClient.sol\";\nimport \"./ISpeedRunRepo.sol\";\n// import \"./bytesSwap.sol\";\n\ncontract SpeedRunRepoOraclized is ChainlinkClient, ISpeedRunRepo {\n    using Chainlink for Chainlink.Request;\n    // Runners registered succesfully:\n    mapping (string => SpeedRunner) public runners;\n    // Runs registered succesfully:\n    mapping (string => mapping (string => mapping (string => Run))) public runs; \n    // Temporary storage of add_runner requests\n    mapping (bytes32 => SpeedRunner) private runner_requests;\n\n\n    event RequestFulfilled(\n        bytes32 indexed requestId,\n        bytes indexed data\n    );\n    \n    /**\n     * Network: Rinkeby\n     * Oracle: 0xc57B33452b4F7BB189bB5AfaE9cc4aBa1f7a4FD8 (Chainlink Devrel   \n     * Node)\n     * Job ID: d5270d1c311941d0b08bead21fea7747\n     * Fee: 0.1 LINK\n     */\n    constructor() {\n        setPublicChainlinkToken();\n    }\n    \n    function passed_mark(string calldata userId, string calldata gameId, string calldata levelId,  uint mark) override external view returns (bool){\n        return true;\n    }\n\n    function add_runner(string calldata _userName, string calldata _userId, address _addr) override external{\n         bytes32 reqId = _requestAddress(_userId);\n         runner_requests[reqId] = SpeedRunner(true, _userName, _userId, address(0));\n    }\n\n    ///\n    function add_run(string calldata _userId, string calldata _gameId, string calldata _levelId,string calldata runId, uint mark) override external{}\n\n    /**\n     * Create a Chainlink request to retrieve API response, find the target\n     * data, then multiply by 1000000000000000000 (to remove decimal places from data).\n     */\n    function _requestAddress(string calldata _userId) public returns (bytes32 requestId)\n    {\n        address oracle = 0xc57B33452b4F7BB189bB5AfaE9cc4aBa1f7a4FD8;\n        bytes32 specId = \"7a97ff8493ec406d90621b2531f9251a\";\n        uint256 payment = 100000000000000000;\n        Chainlink.Request memory request = buildChainlinkRequest(specId, address(this), this.fulfillRequestAddress.selector);\n\n        // Set the URL to perform the GET request on\n        request.add(\"get\", \"https://www.speedrun.com/api/v1/users/jp47vmyj\");\n\n            /* This is how the Json output for an API request for user info looks like:\n                    {\n            \"data\": {\n            \"id\": \"jp47vmyj\",\n            \"names\": {\n            \"international\": \"thefunambulista\",\n            \"japanese\": null\n            },\n            \"weblink\": \"https://www.speedrun.com/user/thefunambulista\",\n            ...\n            \"role\": \"user\",\n            ...\n            \"twitch\": {\n            \"uri\": \"https://www.twitch.tv/0xdEa3e18AA866f46DA789f0b908e90bF55A0dCa90\"\n            },\n            */\n        // The trick is that the user includes the address in one of the accounts, here we use twitch.\n        request.add(\"path\", \"data.twitch.uri\");\n           \n        // Sends the request\n        //requestOracleData(request, payment);\n\n        return sendChainlinkRequestTo(oracle, request, payment);\n    }\n    \n    /**\n     * Receive the response in the form of uint256\n     */ \n    function fulfillRequestAddress(bytes32 _requestId, bytes memory _addr) public recordChainlinkFulfillment(_requestId)\n    {\n        //string memory addr = bytesSwap.bytes32ToString(_addr);\n        emit RequestFulfilled(_requestId, _addr);\n        SpeedRunner memory temp = runner_requests[_requestId];\n        //runners[temp.userId] = SpeedRunner(temp.userName, temp.userId, address(_addr));\n\n    }\n\n}\n",
  "sourcePath": "/Users/msicilia/Desktop/dev/lrn/consensys/blockchain-developer-bootcamp-final-project/contracts/SpeedRunRepoOraclized.sol",
  "compiler": {
    "name": "solc",
    "version": "0.8.9+commit.e5eed63a.Emscripten.clang"
  },
  "schemaVersion": "3.3.3",
  "updatedAt": "2022-01-11T18:03:50.077Z",
  "devdoc": {
    "kind": "dev",
    "methods": {
      "add_runner(string,string,address)": {
        "params": {
          "_addr": "An Ethereum address associated to the user.",
          "_userId": "The SpeedRunner id of the user.",
          "_userName": "The name of the SpeedRun.com user"
        }
      },
      "passed_mark(string,string,string,uint256)": {
        "params": {
          "gameId": "The id of the game.",
          "levelId": "The id of the level of the game.",
          "mark": "The time ckeched. ",
          "userId": "The SppedRun.com `userId` being queried."
        },
        "returns": {
          "_0": "`true` if there is verified evidence in the repo that the user has a mark equal or better than `mark`."
        }
      }
    },
    "version": 1
  },
  "userdoc": {
    "kind": "user",
    "methods": {
      "_requestAddress(string)": {
        "notice": "Create a Chainlink request to retrieve API response, find the target data, then multiply by 1000000000000000000 (to remove decimal places from data)."
      },
      "constructor": {
        "notice": "Network: Rinkeby Oracle: 0xc57B33452b4F7BB189bB5AfaE9cc4aBa1f7a4FD8 (Chainlink Devrel    Node) Job ID: d5270d1c311941d0b08bead21fea7747 Fee: 0.1 LINK"
      },
      "fulfillRequestAddress(bytes32,bytes)": {
        "notice": "Receive the response in the form of uint256"
      },
      "passed_mark(string,string,string,uint256)": {
        "notice": "It returns `false` if no evidence found in the smart contract (but it might be that such evidence is yet at SpeedRun.com)"
      }
    },
    "version": 1
  }
}