{
  "contractName": "SpeedRunRepoOraclized",
  "abi": [
    {
      "inputs": [],
      "stateMutability": "nonpayable",
      "type": "constructor"
    },
    {
      "anonymous": false,
      "inputs": [
        {
          "indexed": true,
          "internalType": "bytes32",
          "name": "id",
          "type": "bytes32"
        }
      ],
      "name": "ChainlinkCancelled",
      "type": "event"
    },
    {
      "anonymous": false,
      "inputs": [
        {
          "indexed": true,
          "internalType": "bytes32",
          "name": "id",
          "type": "bytes32"
        }
      ],
      "name": "ChainlinkFulfilled",
      "type": "event"
    },
    {
      "anonymous": false,
      "inputs": [
        {
          "indexed": true,
          "internalType": "bytes32",
          "name": "id",
          "type": "bytes32"
        }
      ],
      "name": "ChainlinkRequested",
      "type": "event"
    },
    {
      "anonymous": false,
      "inputs": [
        {
          "indexed": true,
          "internalType": "bytes32",
          "name": "requestId",
          "type": "bytes32"
        },
        {
          "indexed": true,
          "internalType": "bytes",
          "name": "data",
          "type": "bytes"
        }
      ],
      "name": "RequestFulfilled",
      "type": "event"
    },
    {
      "inputs": [
        {
          "internalType": "string",
          "name": "",
          "type": "string"
        }
      ],
      "name": "runners",
      "outputs": [
        {
          "internalType": "string",
          "name": "userName",
          "type": "string"
        },
        {
          "internalType": "string",
          "name": "userId",
          "type": "string"
        },
        {
          "internalType": "address",
          "name": "addr",
          "type": "address"
        }
      ],
      "stateMutability": "view",
      "type": "function",
      "constant": true
    },
    {
      "inputs": [
        {
          "internalType": "string",
          "name": "",
          "type": "string"
        },
        {
          "internalType": "string",
          "name": "",
          "type": "string"
        },
        {
          "internalType": "string",
          "name": "",
          "type": "string"
        }
      ],
      "name": "runs",
      "outputs": [
        {
          "internalType": "string",
          "name": "gameId",
          "type": "string"
        },
        {
          "internalType": "string",
          "name": "levelId",
          "type": "string"
        },
        {
          "internalType": "string",
          "name": "runId",
          "type": "string"
        },
        {
          "internalType": "uint256",
          "name": "primaryTime",
          "type": "uint256"
        },
        {
          "internalType": "string",
          "name": "userId",
          "type": "string"
        }
      ],
      "stateMutability": "view",
      "type": "function",
      "constant": true
    },
    {
      "inputs": [
        {
          "internalType": "string",
          "name": "userId",
          "type": "string"
        },
        {
          "internalType": "string",
          "name": "gameId",
          "type": "string"
        },
        {
          "internalType": "string",
          "name": "levelId",
          "type": "string"
        },
        {
          "internalType": "uint256",
          "name": "mark",
          "type": "uint256"
        }
      ],
      "name": "passed_mark",
      "outputs": [
        {
          "internalType": "bool",
          "name": "",
          "type": "bool"
        }
      ],
      "stateMutability": "view",
      "type": "function",
      "constant": true
    },
    {
      "inputs": [
        {
          "internalType": "string",
          "name": "_userName",
          "type": "string"
        },
        {
          "internalType": "string",
          "name": "_userId",
          "type": "string"
        },
        {
          "internalType": "address",
          "name": "_addr",
          "type": "address"
        }
      ],
      "name": "add_runner",
      "outputs": [],
      "stateMutability": "nonpayable",
      "type": "function"
    },
    {
      "inputs": [
        {
          "internalType": "string",
          "name": "_userId",
          "type": "string"
        },
        {
          "internalType": "string",
          "name": "_gameId",
          "type": "string"
        },
        {
          "internalType": "string",
          "name": "_levelId",
          "type": "string"
        },
        {
          "internalType": "uint256",
          "name": "mark",
          "type": "uint256"
        }
      ],
      "name": "add_run",
      "outputs": [],
      "stateMutability": "nonpayable",
      "type": "function"
    },
    {
      "inputs": [
        {
          "internalType": "string",
          "name": "_userId",
          "type": "string"
        }
      ],
      "name": "_requestAddress",
      "outputs": [
        {
          "internalType": "bytes32",
          "name": "requestId",
          "type": "bytes32"
        }
      ],
      "stateMutability": "nonpayable",
      "type": "function"
    },
    {
      "inputs": [
        {
          "internalType": "bytes32",
          "name": "_requestId",
          "type": "bytes32"
        },
        {
          "internalType": "bytes",
          "name": "_addr",
          "type": "bytes"
        }
      ],
      "name": "fulfillRequestAddress",
      "outputs": [],
      "stateMutability": "nonpayable",
      "type": "function"
    }
  ],
  "bytecode": "0x608060405260016004553480156200001657600080fd5b50620000276200002d60201b60201c565b620001a5565b620000c373c89bd4e1632d3a43cb03aaad5262cbe4038bc57173ffffffffffffffffffffffffffffffffffffffff166338cc48316040518163ffffffff1660e01b8152600401602060405180830381865afa15801562000091573d6000803e3d6000fd5b505050506040513d601f19601f82011682018060405250810190620000b7919062000173565b620000c560201b60201c565b565b80600260006101000a81548173ffffffffffffffffffffffffffffffffffffffff021916908373ffffffffffffffffffffffffffffffffffffffff16021790555050565b600080fd5b600073ffffffffffffffffffffffffffffffffffffffff82169050919050565b60006200013b826200010e565b9050919050565b6200014d816200012e565b81146200015957600080fd5b50565b6000815190506200016d8162000142565b92915050565b6000602082840312156200018c576200018b62000109565b5b60006200019c848285016200015c565b91505092915050565b61241a80620001b56000396000f3fe608060405234801561001057600080fd5b506004361061007d5760003560e01c8063a89f90cf1161005b578063a89f90cf146100ea578063bf35a2bb1461011a578063e6b0d3eb1461014e578063f1de7f201461016a5761007d565b806310d496041461008257806342e315ee1461009e578063560939c3146100ba575b600080fd5b61009c60048036038101906100979190611535565b61019c565b005b6100b860048036038101906100b3919061165c565b6101a5565b005b6100d460048036038101906100cf91906116f1565b61030c565b6040516100e19190611757565b60405180910390f35b61010460048036038101906100ff9190611535565b610466565b604051610111919061178d565b60405180910390f35b610134600480360381019061012f91906118e9565b610477565b604051610145959493929190611a27565b60405180910390f35b61016860048036038101906101639190611b63565b610729565b005b610184600480360381019061017f9190611bbf565b610a13565b60405161019393929190611c17565b60405180910390f35b50505050505050565b60006101b1848461030c565b9050604051806060016040528087878080601f016020809104026020016040519081016040528093929190818152602001838380828437600081840152601f19601f82011690508083019250505050505050815260200185858080601f016020809104026020016040519081016040528093929190818152602001838380828437600081840152601f19601f820116905080830192505050505050508152602001600073ffffffffffffffffffffffffffffffffffffffff1681525060086000838152602001908152602001600020600082015181600001908051906020019061029c92919061135c565b5060208201518160010190805190602001906102b992919061135c565b5060408201518160020160006101000a81548173ffffffffffffffffffffffffffffffffffffffff021916908373ffffffffffffffffffffffffffffffffffffffff160217905550905050505050505050565b60008073c57b33452b4f7bb189bb5afae9cc4aba1f7a4fd8905060007f37613937666638343933656334303664393036323162323533316639323531619050600067016345785d8a00009050600061036c833063e6b0d3eb60e01b610b83565b90506103d06040518060400160405280600381526020017f67657400000000000000000000000000000000000000000000000000000000008152506040518060600160405280602e81526020016123b7602e913983610bb49092919063ffffffff16565b61044f6040518060400160405280600481526020017f70617468000000000000000000000000000000000000000000000000000000008152506040518060400160405280600f81526020017f646174612e7477697463682e757269000000000000000000000000000000000081525083610bb49092919063ffffffff16565b61045a848284610be7565b94505050505092915050565b600060019050979650505050505050565b600783805160208101820180518482526020830160208501208183528095505050505050828051602081018201805184825260208301602085012081835280955050505050508180516020810182018051848252602083016020850120818352809550505050505060009250925050508060000180546104f690611c8b565b80601f016020809104026020016040519081016040528092919081815260200182805461052290611c8b565b801561056f5780601f106105445761010080835404028352916020019161056f565b820191906000526020600020905b81548152906001019060200180831161055257829003601f168201915b50505050509080600101805461058490611c8b565b80601f01602080910402602001604051908101604052809291908181526020018280546105b090611c8b565b80156105fd5780601f106105d2576101008083540402835291602001916105fd565b820191906000526020600020905b8154815290600101906020018083116105e057829003601f168201915b50505050509080600201805461061290611c8b565b80601f016020809104026020016040519081016040528092919081815260200182805461063e90611c8b565b801561068b5780601f106106605761010080835404028352916020019161068b565b820191906000526020600020905b81548152906001019060200180831161066e57829003601f168201915b5050505050908060030154908060040180546106a690611c8b565b80601f01602080910402602001604051908101604052809291908181526020018280546106d290611c8b565b801561071f5780601f106106f45761010080835404028352916020019161071f565b820191906000526020600020905b81548152906001019060200180831161070257829003601f168201915b5050505050905085565b816005600082815260200190815260200160002060009054906101000a900473ffffffffffffffffffffffffffffffffffffffff1673ffffffffffffffffffffffffffffffffffffffff163373ffffffffffffffffffffffffffffffffffffffff16146107cb576040517f08c379a00000000000000000000000000000000000000000000000000000000081526004016107c290611d2f565b60405180910390fd5b6005600082815260200190815260200160002060006101000a81549073ffffffffffffffffffffffffffffffffffffffff0219169055807f7cc135e0cebb02c3480ae5d74d377283180a2601f8f644edf7987b009316c63a60405160405180910390a28160405161083c9190611d96565b6040518091039020837f1a111c5dcf9a71088bd5e1797fdfaf399fec2afbb24aca247e4e3e9f4b61df9160405160405180910390a36000600860008581526020019081526020016000206040518060600160405290816000820180546108a190611c8b565b80601f01602080910402602001604051908101604052809291908181526020018280546108cd90611c8b565b801561091a5780601f106108ef5761010080835404028352916020019161091a565b820191906000526020600020905b8154815290600101906020018083116108fd57829003601f168201915b5050505050815260200160018201805461093390611c8b565b80601f016020809104026020016040519081016040528092919081815260200182805461095f90611c8b565b80156109ac5780601f10610981576101008083540402835291602001916109ac565b820191906000526020600020905b81548152906001019060200180831161098f57829003601f168201915b505050505081526020016002820160009054906101000a900473ffffffffffffffffffffffffffffffffffffffff1673ffffffffffffffffffffffffffffffffffffffff1673ffffffffffffffffffffffffffffffffffffffff1681525050905050505050565b600681805160208101820180518482526020830160208501208183528095505050505050600091509050806000018054610a4c90611c8b565b80601f0160208091040260200160405190810160405280929190818152602001828054610a7890611c8b565b8015610ac55780601f10610a9a57610100808354040283529160200191610ac5565b820191906000526020600020905b815481529060010190602001808311610aa857829003601f168201915b505050505090806001018054610ada90611c8b565b80601f0160208091040260200160405190810160405280929190818152602001828054610b0690611c8b565b8015610b535780601f10610b2857610100808354040283529160200191610b53565b820191906000526020600020905b815481529060010190602001808311610b3657829003601f168201915b5050505050908060020160009054906101000a900473ffffffffffffffffffffffffffffffffffffffff16905083565b610b8b6113e2565b610b936113e2565b610baa85858584610c07909392919063ffffffff16565b9150509392505050565b610bcb828460800151610cb790919063ffffffff16565b610be2818460800151610cb790919063ffffffff16565b505050565b6000610bfe8484846001634042994660e01b610cdc565b90509392505050565b610c0f6113e2565b610c1f8560800151610100610f35565b508385600001818152505082856020019073ffffffffffffffffffffffffffffffffffffffff16908173ffffffffffffffffffffffffffffffffffffffff16815250508185604001907bffffffffffffffffffffffffffffffffffffffffffffffffffffffff191690817bffffffffffffffffffffffffffffffffffffffffffffffffffffffff191681525050849050949350505050565b610cc48260038351610f9f565b610cd781836110e490919063ffffffff16565b505050565b600030600454604051602001610cf3929190611e66565b604051602081830303815290604052805190602001209050600454856060018181525050856005600083815260200190815260200160002060006101000a81548173ffffffffffffffffffffffffffffffffffffffff021916908373ffffffffffffffffffffffffffffffffffffffff160217905550807fb5e6e01e79f91267dc17b4e6314d5d4d03593d2ceee0fbb452b750bd70ea5af960405160405180910390a2600082600080886000015189602001518a604001518b606001518a8d6080015160000151604051602401610dd1989796959493929190611f17565b604051602081830303815290604052907bffffffffffffffffffffffffffffffffffffffffffffffffffffffff19166020820180517bffffffffffffffffffffffffffffffffffffffffffffffffffffffff83818316178352505050509050600260009054906101000a900473ffffffffffffffffffffffffffffffffffffffff1673ffffffffffffffffffffffffffffffffffffffff16634000aea08887846040518463ffffffff1660e01b8152600401610e8f93929190611f9c565b6020604051808303816000875af1158015610eae573d6000803e3d6000fd5b505050506040513d601f19601f82011682018060405250810190610ed29190612006565b610f11576040517f08c379a0000000000000000000000000000000000000000000000000000000008152600401610f08906120a5565b60405180910390fd5b600160046000828254610f2491906120f4565b925050819055505095945050505050565b610f3d61144f565b6000602083610f4c9190612179565b14610f7857602082610f5e9190612179565b6020610f6a91906121aa565b82610f7591906120f4565b91505b81836020018181525050604051808452600081528281016020016040525082905092915050565b60178111610fcc57610fc68160058460ff16901b60ff16178461110690919063ffffffff16565b506110df565b60ff811161100e57610ff1601860058460ff16901b178461110690919063ffffffff16565b50611008816001856111269092919063ffffffff16565b506110de565b61ffff811161105157611034601960058460ff16901b178461110690919063ffffffff16565b5061104b816002856111269092919063ffffffff16565b506110dd565b63ffffffff811161109657611079601a60058460ff16901b178461110690919063ffffffff16565b50611090816004856111269092919063ffffffff16565b506110dc565b67ffffffffffffffff81116110db576110c2601b60058460ff16901b178461110690919063ffffffff16565b506110d9816008856111269092919063ffffffff16565b505b5b5b5b5b505050565b6110ec61144f565b6110fe83846000015151848551611148565b905092915050565b61110e61144f565b61111e8384600001515184611237565b905092915050565b61112e61144f565b61113f84856000015151858561128e565b90509392505050565b61115061144f565b825182111561115e57600080fd5b8460200151828561116f91906120f4565b11156111a4576111a38560026111948860200151888761118f91906120f4565b61131c565b61119e91906121de565b611338565b5b6000808651805187602083010193508088870111156111c35787860182525b60208701925050505b6020841061120a57805182526020826111e591906120f4565b91506020816111f491906120f4565b905060208461120391906121aa565b93506111cc565b60006001856020036101000a03905080198251168184511681811785525050508692505050949350505050565b61123f61144f565b8360200151831061126557611264846002866020015161125f91906121de565b611338565b5b8351805160208583010184815381861415611281576001820183525b5050508390509392505050565b61129661144f565b846020015184836112a791906120f4565b11156112cf576112ce85600286856112bf91906120f4565b6112c991906121de565b611338565b5b60006001836101006112e1919061236b565b6112eb91906121aa565b9050855183868201018583198251161781528151858801111561130e5784870182525b505085915050949350505050565b60008183111561132e57829050611332565b8190505b92915050565b60008260000151905061134b8383610f35565b5061135683826110e4565b50505050565b82805461136890611c8b565b90600052602060002090601f01602090048101928261138a57600085556113d1565b82601f106113a357805160ff19168380011785556113d1565b828001600101855582156113d1579182015b828111156113d05782518255916020019190600101906113b5565b5b5090506113de9190611469565b5090565b6040518060a0016040528060008019168152602001600073ffffffffffffffffffffffffffffffffffffffff16815260200160007bffffffffffffffffffffffffffffffffffffffffffffffffffffffff191681526020016000815260200161144961144f565b81525090565b604051806040016040528060608152602001600081525090565b5b8082111561148257600081600090555060010161146a565b5090565b6000604051905090565b600080fd5b600080fd5b600080fd5b600080fd5b600080fd5b60008083601f8401126114bf576114be61149a565b5b8235905067ffffffffffffffff8111156114dc576114db61149f565b5b6020830191508360018202830111156114f8576114f76114a4565b5b9250929050565b6000819050919050565b611512816114ff565b811461151d57600080fd5b50565b60008135905061152f81611509565b92915050565b60008060008060008060006080888a03121561155457611553611490565b5b600088013567ffffffffffffffff81111561157257611571611495565b5b61157e8a828b016114a9565b9750975050602088013567ffffffffffffffff8111156115a1576115a0611495565b5b6115ad8a828b016114a9565b9550955050604088013567ffffffffffffffff8111156115d0576115cf611495565b5b6115dc8a828b016114a9565b935093505060606115ef8a828b01611520565b91505092959891949750929550565b600073ffffffffffffffffffffffffffffffffffffffff82169050919050565b6000611629826115fe565b9050919050565b6116398161161e565b811461164457600080fd5b50565b60008135905061165681611630565b92915050565b60008060008060006060868803121561167857611677611490565b5b600086013567ffffffffffffffff81111561169657611695611495565b5b6116a2888289016114a9565b9550955050602086013567ffffffffffffffff8111156116c5576116c4611495565b5b6116d1888289016114a9565b935093505060406116e488828901611647565b9150509295509295909350565b6000806020838503121561170857611707611490565b5b600083013567ffffffffffffffff81111561172657611725611495565b5b611732858286016114a9565b92509250509250929050565b6000819050919050565b6117518161173e565b82525050565b600060208201905061176c6000830184611748565b92915050565b60008115159050919050565b61178781611772565b82525050565b60006020820190506117a2600083018461177e565b92915050565b600080fd5b6000601f19601f8301169050919050565b7f4e487b7100000000000000000000000000000000000000000000000000000000600052604160045260246000fd5b6117f6826117ad565b810181811067ffffffffffffffff82111715611815576118146117be565b5b80604052505050565b6000611828611486565b905061183482826117ed565b919050565b600067ffffffffffffffff821115611854576118536117be565b5b61185d826117ad565b9050602081019050919050565b82818337600083830152505050565b600061188c61188784611839565b61181e565b9050828152602081018484840111156118a8576118a76117a8565b5b6118b384828561186a565b509392505050565b600082601f8301126118d0576118cf61149a565b5b81356118e0848260208601611879565b91505092915050565b60008060006060848603121561190257611901611490565b5b600084013567ffffffffffffffff8111156119205761191f611495565b5b61192c868287016118bb565b935050602084013567ffffffffffffffff81111561194d5761194c611495565b5b611959868287016118bb565b925050604084013567ffffffffffffffff81111561197a57611979611495565b5b611986868287016118bb565b9150509250925092565b600081519050919050565b600082825260208201905092915050565b60005b838110156119ca5780820151818401526020810190506119af565b838111156119d9576000848401525b50505050565b60006119ea82611990565b6119f4818561199b565b9350611a048185602086016119ac565b611a0d816117ad565b840191505092915050565b611a21816114ff565b82525050565b600060a0820190508181036000830152611a4181886119df565b90508181036020830152611a5581876119df565b90508181036040830152611a6981866119df565b9050611a786060830185611a18565b8181036080830152611a8a81846119df565b90509695505050505050565b611a9f8161173e565b8114611aaa57600080fd5b50565b600081359050611abc81611a96565b92915050565b600067ffffffffffffffff821115611add57611adc6117be565b5b611ae6826117ad565b9050602081019050919050565b6000611b06611b0184611ac2565b61181e565b905082815260208101848484011115611b2257611b216117a8565b5b611b2d84828561186a565b509392505050565b600082601f830112611b4a57611b4961149a565b5b8135611b5a848260208601611af3565b91505092915050565b60008060408385031215611b7a57611b79611490565b5b6000611b8885828601611aad565b925050602083013567ffffffffffffffff811115611ba957611ba8611495565b5b611bb585828601611b35565b9150509250929050565b600060208284031215611bd557611bd4611490565b5b600082013567ffffffffffffffff811115611bf357611bf2611495565b5b611bff848285016118bb565b91505092915050565b611c118161161e565b82525050565b60006060820190508181036000830152611c3181866119df565b90508181036020830152611c4581856119df565b9050611c546040830184611c08565b949350505050565b7f4e487b7100000000000000000000000000000000000000000000000000000000600052602260045260246000fd5b60006002820490506001821680611ca357607f821691505b60208210811415611cb757611cb6611c5c565b5b50919050565b7f536f75726365206d75737420626520746865206f7261636c65206f662074686560008201527f2072657175657374000000000000000000000000000000000000000000000000602082015250565b6000611d1960288361199b565b9150611d2482611cbd565b604082019050919050565b60006020820190508181036000830152611d4881611d0c565b9050919050565b600081519050919050565b600081905092915050565b6000611d7082611d4f565b611d7a8185611d5a565b9350611d8a8185602086016119ac565b80840191505092915050565b6000611da28284611d65565b915081905092915050565b6000819050919050565b6000611dd2611dcd611dc8846115fe565b611dad565b6115fe565b9050919050565b6000611de482611db7565b9050919050565b6000611df682611dd9565b9050919050565b60008160601b9050919050565b6000611e1582611dfd565b9050919050565b6000611e2782611e0a565b9050919050565b611e3f611e3a82611deb565b611e1c565b82525050565b6000819050919050565b611e60611e5b826114ff565b611e45565b82525050565b6000611e728285611e2e565b601482019150611e828284611e4f565b6020820191508190509392505050565b60007fffffffff0000000000000000000000000000000000000000000000000000000082169050919050565b611ec781611e92565b82525050565b600082825260208201905092915050565b6000611ee982611d4f565b611ef38185611ecd565b9350611f038185602086016119ac565b611f0c816117ad565b840191505092915050565b600061010082019050611f2d600083018b611c08565b611f3a602083018a611a18565b611f476040830189611748565b611f546060830188611c08565b611f616080830187611ebe565b611f6e60a0830186611a18565b611f7b60c0830185611a18565b81810360e0830152611f8d8184611ede565b90509998505050505050505050565b6000606082019050611fb16000830186611c08565b611fbe6020830185611a18565b8181036040830152611fd08184611ede565b9050949350505050565b611fe381611772565b8114611fee57600080fd5b50565b60008151905061200081611fda565b92915050565b60006020828403121561201c5761201b611490565b5b600061202a84828501611ff1565b91505092915050565b7f756e61626c6520746f207472616e73666572416e6443616c6c20746f206f726160008201527f636c650000000000000000000000000000000000000000000000000000000000602082015250565b600061208f60238361199b565b915061209a82612033565b604082019050919050565b600060208201905081810360008301526120be81612082565b9050919050565b7f4e487b7100000000000000000000000000000000000000000000000000000000600052601160045260246000fd5b60006120ff826114ff565b915061210a836114ff565b9250827fffffffffffffffffffffffffffffffffffffffffffffffffffffffffffffffff0382111561213f5761213e6120c5565b5b828201905092915050565b7f4e487b7100000000000000000000000000000000000000000000000000000000600052601260045260246000fd5b6000612184826114ff565b915061218f836114ff565b92508261219f5761219e61214a565b5b828206905092915050565b60006121b5826114ff565b91506121c0836114ff565b9250828210156121d3576121d26120c5565b5b828203905092915050565b60006121e9826114ff565b91506121f4836114ff565b9250817fffffffffffffffffffffffffffffffffffffffffffffffffffffffffffffffff048311821515161561222d5761222c6120c5565b5b828202905092915050565b60008160011c9050919050565b6000808291508390505b600185111561228f5780860481111561226b5761226a6120c5565b5b600185161561227a5780820291505b808102905061228885612238565b945061224f565b94509492505050565b6000826122a85760019050612364565b816122b65760009050612364565b81600181146122cc57600281146122d657612305565b6001915050612364565b60ff8411156122e8576122e76120c5565b5b8360020a9150848211156122ff576122fe6120c5565b5b50612364565b5060208310610133831016604e8410600b841016171561233a5782820a905083811115612335576123346120c5565b5b612364565b6123478484846001612245565b9250905081840481111561235e5761235d6120c5565b5b81810290505b9392505050565b6000612376826114ff565b9150612381836114ff565b92506123ae7fffffffffffffffffffffffffffffffffffffffffffffffffffffffffffffffff8484612298565b90509291505056fe68747470733a2f2f7777772e737065656472756e2e636f6d2f6170692f76312f75736572732f6a703437766d796aa2646970667358221220e09ad8f2dc710543e211fa5855d7a04c282ec8a3db9baa821abadb2be04e4aa764736f6c634300080a0033",
  "immutableReferences": {},
  "source": "// SPDX-License-Identifier: MIT\npragma solidity ^0.8.10;\n\nimport \"@chainlink/contracts/src/v0.8/ChainlinkClient.sol\";\nimport \"./ISpeedRunRepo.sol\";\n// import \"./bytesSwap.sol\";\n\ncontract SpeedRunRepoOraclized is ChainlinkClient, ISpeedRunRepo {\n    using Chainlink for Chainlink.Request;\n    // Runners registered succesfully:\n    mapping (string => SpeedRunner) public runners;\n    // Runs registered succesfully:\n    mapping (string => mapping (string => mapping (string => Run))) public runs; \n    // Temporary storage of add_runner requests\n    mapping (bytes32 => SpeedRunner) private runner_requests;\n\n\n    event RequestFulfilled(\n        bytes32 indexed requestId,\n        bytes indexed data\n    );\n    \n    /**\n     * Network: Rinkeby\n     * Oracle: 0xc57B33452b4F7BB189bB5AfaE9cc4aBa1f7a4FD8 (Chainlink Devrel   \n     * Node)\n     * Job ID: d5270d1c311941d0b08bead21fea7747\n     * Fee: 0.1 LINK\n     */\n    constructor() {\n        setPublicChainlinkToken();\n    }\n    \n    function passed_mark(string calldata userId, string calldata gameId, string calldata levelId, uint mark) override external view returns (bool){\n        return true;\n    }\n\n    function add_runner(string calldata _userName, string calldata _userId, address _addr) external{\n         bytes32 reqId = _requestAddress(_userId);\n         runner_requests[reqId] = SpeedRunner(_userName, _userId, address(0));\n    }\n\n    ///\n    function add_run(string calldata _userId, string calldata _gameId, string calldata _levelId, uint mark) external{}\n\n\n\n    /**\n     * Create a Chainlink request to retrieve API response, find the target\n     * data, then multiply by 1000000000000000000 (to remove decimal places from data).\n     */\n    function _requestAddress(string calldata _userId) public returns (bytes32 requestId)\n    {\n        address oracle = 0xc57B33452b4F7BB189bB5AfaE9cc4aBa1f7a4FD8;\n        bytes32 specId = \"7a97ff8493ec406d90621b2531f9251a\";\n        uint256 payment = 100000000000000000;\n        Chainlink.Request memory request = buildChainlinkRequest(specId, address(this), this.fulfillRequestAddress.selector);\n\n        // Set the URL to perform the GET request on\n        request.add(\"get\", \"https://www.speedrun.com/api/v1/users/jp47vmyj\");\n\n            /* This is how the Json output for an API request for user info looks like:\n                    {\n            \"data\": {\n            \"id\": \"jp47vmyj\",\n            \"names\": {\n            \"international\": \"thefunambulista\",\n            \"japanese\": null\n            },\n            \"weblink\": \"https://www.speedrun.com/user/thefunambulista\",\n            ...\n            \"role\": \"user\",\n            ...\n            \"twitch\": {\n            \"uri\": \"https://www.twitch.tv/0xdEa3e18AA866f46DA789f0b908e90bF55A0dCa90\"\n            },\n            */\n        // The trick is that the user includes the address in one of the accounts, here we use twitch.\n        request.add(\"path\", \"data.twitch.uri\");\n           \n        // Sends the request\n        //requestOracleData(request, payment);\n\n        return sendChainlinkRequestTo(oracle, request, payment);\n    }\n    \n    /**\n     * Receive the response in the form of uint256\n     */ \n    function fulfillRequestAddress(bytes32 _requestId, bytes memory _addr) public recordChainlinkFulfillment(_requestId)\n    {\n        //string memory addr = bytesSwap.bytes32ToString(_addr);\n        emit RequestFulfilled(_requestId, _addr);\n        SpeedRunner memory temp = runner_requests[_requestId];\n        //runners[temp.userId] = SpeedRunner(temp.userName, temp.userId, address(_addr));\n\n    }\n\n}\n",
  "sourcePath": "/Users/msicilia/Desktop/dev/lrn/consensys/blockchain-developer-bootcamp-final-project/contracts/SpeedRunRepoOraclized.sol",
  "compiler": {
    "name": "solc",
    "version": "0.8.10+commit.fc410830.Emscripten.clang"
  },
  "schemaVersion": "3.4.3",
  "updatedAt": "2021-11-25T13:34:55.193Z",
  "networkType": "ethereum",
  "devdoc": {
    "kind": "dev",
    "methods": {
      "add_runner(string,string,address)": {
        "params": {
          "_addr": "An address associated to the user.",
          "_userId": "The SpeedRunner id of the user.",
          "_userName": "The name of the SpeedRun.com user"
        }
      },
      "passed_mark(string,string,string,uint256)": {
        "params": {
          "gameId": "The id of the game.",
          "levelId": "The id of the level of the game.",
          "mark": "The time ckeched. ",
          "userId": "The SppedRum.com `userId` being queried."
        },
        "returns": {
          "_0": "`true` if there is verified evidence in the repo that the user has a mark equal or better than `mark`."
        }
      }
    },
    "version": 1
  },
  "userdoc": {
    "kind": "user",
    "methods": {
      "_requestAddress(string)": {
        "notice": "Create a Chainlink request to retrieve API response, find the target data, then multiply by 1000000000000000000 (to remove decimal places from data)."
      },
      "constructor": {
        "notice": "Network: Rinkeby Oracle: 0xc57B33452b4F7BB189bB5AfaE9cc4aBa1f7a4FD8 (Chainlink Devrel    Node) Job ID: d5270d1c311941d0b08bead21fea7747 Fee: 0.1 LINK"
      },
      "fulfillRequestAddress(bytes32,bytes)": {
        "notice": "Receive the response in the form of uint256"
      },
      "passed_mark(string,string,string,uint256)": {
        "notice": "It returns `false` if no evidence found (but it might be that such evidence is yet at SpeedRun.com)"
      }
    },
    "version": 1
  }
}