{
  "contractName": "SpeedRunRepo_Stub",
  "abi": [
    {
      "inputs": [
        {
          "internalType": "string",
          "name": "",
          "type": "string"
        }
      ],
      "name": "runners",
      "outputs": [
        {
          "internalType": "bool",
          "name": "isRunner",
          "type": "bool"
        },
        {
          "internalType": "string",
          "name": "userName",
          "type": "string"
        },
        {
          "internalType": "string",
          "name": "userId",
          "type": "string"
        },
        {
          "internalType": "address",
          "name": "addr",
          "type": "address"
        }
      ],
      "stateMutability": "view",
      "type": "function"
    },
    {
      "inputs": [
        {
          "internalType": "string",
          "name": "",
          "type": "string"
        },
        {
          "internalType": "string",
          "name": "",
          "type": "string"
        },
        {
          "internalType": "string",
          "name": "",
          "type": "string"
        },
        {
          "internalType": "uint256",
          "name": "",
          "type": "uint256"
        }
      ],
      "name": "runs",
      "outputs": [
        {
          "internalType": "bool",
          "name": "isRun",
          "type": "bool"
        },
        {
          "internalType": "string",
          "name": "gameId",
          "type": "string"
        },
        {
          "internalType": "string",
          "name": "levelId",
          "type": "string"
        },
        {
          "internalType": "string",
          "name": "runId",
          "type": "string"
        },
        {
          "internalType": "uint256",
          "name": "primaryTime",
          "type": "uint256"
        },
        {
          "internalType": "string",
          "name": "userId",
          "type": "string"
        }
      ],
      "stateMutability": "view",
      "type": "function"
    },
    {
      "inputs": [
        {
          "internalType": "string",
          "name": "_userName",
          "type": "string"
        },
        {
          "internalType": "string",
          "name": "_userId",
          "type": "string"
        },
        {
          "internalType": "address",
          "name": "_addr",
          "type": "address"
        }
      ],
      "name": "add_runner",
      "outputs": [],
      "stateMutability": "nonpayable",
      "type": "function"
    },
    {
      "inputs": [
        {
          "internalType": "string",
          "name": "_userId",
          "type": "string"
        },
        {
          "internalType": "string",
          "name": "_gameId",
          "type": "string"
        },
        {
          "internalType": "string",
          "name": "_levelId",
          "type": "string"
        },
        {
          "internalType": "string",
          "name": "_runId",
          "type": "string"
        },
        {
          "internalType": "uint256",
          "name": "mark",
          "type": "uint256"
        }
      ],
      "name": "add_run",
      "outputs": [],
      "stateMutability": "nonpayable",
      "type": "function"
    },
    {
      "inputs": [
        {
          "internalType": "string",
          "name": "userId",
          "type": "string"
        },
        {
          "internalType": "string",
          "name": "gameId",
          "type": "string"
        },
        {
          "internalType": "string",
          "name": "levelId",
          "type": "string"
        },
        {
          "internalType": "uint256",
          "name": "mark",
          "type": "uint256"
        }
      ],
      "name": "passed_mark",
      "outputs": [
        {
          "internalType": "bool",
          "name": "",
          "type": "bool"
        }
      ],
      "stateMutability": "view",
      "type": "function"
    },
    {
      "inputs": [
        {
          "internalType": "string",
          "name": "_userId",
          "type": "string"
        }
      ],
      "name": "runner_registered",
      "outputs": [
        {
          "internalType": "bool",
          "name": "",
          "type": "bool"
        }
      ],
      "stateMutability": "view",
      "type": "function"
    }
  ],
  "bytecode": "0x608060405234801561001057600080fd5b50611551806100206000396000f3fe608060405234801561001057600080fd5b50600436106100625760003560e01c8063272fd45c1461006757806337a00f4d1461009c57806342e315ee146100cc57806348031e1e146100e8578063a89f90cf14610104578063f1de7f2014610134575b600080fd5b610081600480360381019061007c9190610d6d565b610167565b60405161009396959493929190610eda565b60405180910390f35b6100b660048036038101906100b19190610f57565b610449565b6040516100c39190610fa0565b60405180910390f35b6100e660048036038101906100e19190611079565b610480565b005b61010260048036038101906100fd919061110e565b6106a0565b005b61011e6004803603810190610119919061120a565b610950565b60405161012b9190610fa0565b60405180910390f35b61014e60048036038101906101499190610f57565b6109b7565b60405161015e94939291906112e2565b60405180910390f35b600184805160208101820180518482526020830160208501208183528095505050505050838051602081018201805184825260208301602085012081835280955050505050508280516020810182018051848252602083016020850120818352809550505050505081815481106101dd57600080fd5b90600052602060002090600602016000935093505050508060000160009054906101000a900460ff169080600101805461021690611364565b80601f016020809104026020016040519081016040528092919081815260200182805461024290611364565b801561028f5780601f106102645761010080835404028352916020019161028f565b820191906000526020600020905b81548152906001019060200180831161027257829003601f168201915b5050505050908060020180546102a490611364565b80601f01602080910402602001604051908101604052809291908181526020018280546102d090611364565b801561031d5780601f106102f25761010080835404028352916020019161031d565b820191906000526020600020905b81548152906001019060200180831161030057829003601f168201915b50505050509080600301805461033290611364565b80601f016020809104026020016040519081016040528092919081815260200182805461035e90611364565b80156103ab5780601f10610380576101008083540402835291602001916103ab565b820191906000526020600020905b81548152906001019060200180831161038e57829003601f168201915b5050505050908060040154908060050180546103c690611364565b80601f01602080910402602001604051908101604052809291908181526020018280546103f290611364565b801561043f5780601f106104145761010080835404028352916020019161043f565b820191906000526020600020905b81548152906001019060200180831161042257829003601f168201915b5050505050905086565b6000808260405161045a91906113d2565b908152602001604051809103902060000160009054906101000a900460ff169050919050565b73__util__________________________________633739352f84846040518363ffffffff1660e01b81526004016104b992919061144d565b60206040518083038186803b1580156104d157600080fd5b505af41580156104e5573d6000803e3d6000fd5b505050506040513d601f19601f8201168201806040525081019061050991906114b0565b1561051357600080fd5b604051806080016040528060011515815260200186868080601f016020809104026020016040519081016040528093929190818152602001838380828437600081840152601f19601f82011690508083019250505050505050815260200184848080601f016020809104026020016040519081016040528093929190818152602001838380828437600081840152601f19601f8201169050808301925050505050505081526020018273ffffffffffffffffffffffffffffffffffffffff16815250600084846040516105e7929190611502565b908152602001604051809103902060008201518160000160006101000a81548160ff0219169083151502179055506020820151816001019080519060200190610631929190610b3a565b50604082015181600201908051906020019061064e929190610b3a565b5060608201518160030160006101000a81548173ffffffffffffffffffffffffffffffffffffffff021916908373ffffffffffffffffffffffffffffffffffffffff1602179055509050505050505050565b600089896040516106b2929190611502565b908152602001604051809103902060000160009054906101000a900460ff166106da57600080fd5b600060018a8a6040516106ee929190611502565b9081526020016040518091039020888860405161070c929190611502565b9081526020016040518091039020868660405161072a929190611502565b90815260200160405180910390209050806040518060c001604052806001151581526020018a8a8080601f016020809104026020016040519081016040528093929190818152602001838380828437600081840152601f19601f82011690508083019250505050505050815260200188888080601f016020809104026020016040519081016040528093929190818152602001838380828437600081840152601f19601f82011690508083019250505050505050815260200186868080601f016020809104026020016040519081016040528093929190818152602001838380828437600081840152601f19601f8201169050808301925050505050505081526020018481526020018c8c8080601f016020809104026020016040519081016040528093929190818152602001838380828437600081840152601f19601f82011690508083019250505050505050815250908060018154018082558091505060019003906000526020600020906006020160009091909190915060008201518160000160006101000a81548160ff02191690831515021790555060208201518160010190805190602001906108e0929190610b3a565b5060408201518160020190805190602001906108fd929190610b3a565b50606082015181600301908051906020019061091a929190610b3a565b506080820151816004015560a0820151816005019080519060200190610941929190610b3a565b50505050505050505050505050565b600061099f88888080601f016020809104026020016040519081016040528093929190818152602001838380828437600081840152601f19601f82011690508083019250505050505050610449565b6109a857600080fd5b60019050979650505050505050565b6000818051602081018201805184825260208301602085012081835280955050505050506000915090508060000160009054906101000a900460ff1690806001018054610a0390611364565b80601f0160208091040260200160405190810160405280929190818152602001828054610a2f90611364565b8015610a7c5780601f10610a5157610100808354040283529160200191610a7c565b820191906000526020600020905b815481529060010190602001808311610a5f57829003601f168201915b505050505090806002018054610a9190611364565b80601f0160208091040260200160405190810160405280929190818152602001828054610abd90611364565b8015610b0a5780601f10610adf57610100808354040283529160200191610b0a565b820191906000526020600020905b815481529060010190602001808311610aed57829003601f168201915b5050505050908060030160009054906101000a900473ffffffffffffffffffffffffffffffffffffffff16905084565b828054610b4690611364565b90600052602060002090601f016020900481019282610b685760008555610baf565b82601f10610b8157805160ff1916838001178555610baf565b82800160010185558215610baf579182015b82811115610bae578251825591602001919060010190610b93565b5b509050610bbc9190610bc0565b5090565b5b80821115610bd9576000816000905550600101610bc1565b5090565b6000604051905090565b600080fd5b600080fd5b600080fd5b600080fd5b6000601f19601f8301169050919050565b7f4e487b7100000000000000000000000000000000000000000000000000000000600052604160045260246000fd5b610c4482610bfb565b810181811067ffffffffffffffff82111715610c6357610c62610c0c565b5b80604052505050565b6000610c76610bdd565b9050610c828282610c3b565b919050565b600067ffffffffffffffff821115610ca257610ca1610c0c565b5b610cab82610bfb565b9050602081019050919050565b82818337600083830152505050565b6000610cda610cd584610c87565b610c6c565b905082815260208101848484011115610cf657610cf5610bf6565b5b610d01848285610cb8565b509392505050565b600082601f830112610d1e57610d1d610bf1565b5b8135610d2e848260208601610cc7565b91505092915050565b6000819050919050565b610d4a81610d37565b8114610d5557600080fd5b50565b600081359050610d6781610d41565b92915050565b60008060008060808587031215610d8757610d86610be7565b5b600085013567ffffffffffffffff811115610da557610da4610bec565b5b610db187828801610d09565b945050602085013567ffffffffffffffff811115610dd257610dd1610bec565b5b610dde87828801610d09565b935050604085013567ffffffffffffffff811115610dff57610dfe610bec565b5b610e0b87828801610d09565b9250506060610e1c87828801610d58565b91505092959194509250565b60008115159050919050565b610e3d81610e28565b82525050565b600081519050919050565b600082825260208201905092915050565b60005b83811015610e7d578082015181840152602081019050610e62565b83811115610e8c576000848401525b50505050565b6000610e9d82610e43565b610ea78185610e4e565b9350610eb7818560208601610e5f565b610ec081610bfb565b840191505092915050565b610ed481610d37565b82525050565b600060c082019050610eef6000830189610e34565b8181036020830152610f018188610e92565b90508181036040830152610f158187610e92565b90508181036060830152610f298186610e92565b9050610f386080830185610ecb565b81810360a0830152610f4a8184610e92565b9050979650505050505050565b600060208284031215610f6d57610f6c610be7565b5b600082013567ffffffffffffffff811115610f8b57610f8a610bec565b5b610f9784828501610d09565b91505092915050565b6000602082019050610fb56000830184610e34565b92915050565b600080fd5b600080fd5b60008083601f840112610fdb57610fda610bf1565b5b8235905067ffffffffffffffff811115610ff857610ff7610fbb565b5b60208301915083600182028301111561101457611013610fc0565b5b9250929050565b600073ffffffffffffffffffffffffffffffffffffffff82169050919050565b60006110468261101b565b9050919050565b6110568161103b565b811461106157600080fd5b50565b6000813590506110738161104d565b92915050565b60008060008060006060868803121561109557611094610be7565b5b600086013567ffffffffffffffff8111156110b3576110b2610bec565b5b6110bf88828901610fc5565b9550955050602086013567ffffffffffffffff8111156110e2576110e1610bec565b5b6110ee88828901610fc5565b9350935050604061110188828901611064565b9150509295509295909350565b600080600080600080600080600060a08a8c0312156111305761112f610be7565b5b60008a013567ffffffffffffffff81111561114e5761114d610bec565b5b61115a8c828d01610fc5565b995099505060208a013567ffffffffffffffff81111561117d5761117c610bec565b5b6111898c828d01610fc5565b975097505060408a013567ffffffffffffffff8111156111ac576111ab610bec565b5b6111b88c828d01610fc5565b955095505060608a013567ffffffffffffffff8111156111db576111da610bec565b5b6111e78c828d01610fc5565b935093505060806111fa8c828d01610d58565b9150509295985092959850929598565b60008060008060008060006080888a03121561122957611228610be7565b5b600088013567ffffffffffffffff81111561124757611246610bec565b5b6112538a828b01610fc5565b9750975050602088013567ffffffffffffffff81111561127657611275610bec565b5b6112828a828b01610fc5565b9550955050604088013567ffffffffffffffff8111156112a5576112a4610bec565b5b6112b18a828b01610fc5565b935093505060606112c48a828b01610d58565b91505092959891949750929550565b6112dc8161103b565b82525050565b60006080820190506112f76000830187610e34565b81810360208301526113098186610e92565b9050818103604083015261131d8185610e92565b905061132c60608301846112d3565b95945050505050565b7f4e487b7100000000000000000000000000000000000000000000000000000000600052602260045260246000fd5b6000600282049050600182168061137c57607f821691505b602082108114156113905761138f611335565b5b50919050565b600081905092915050565b60006113ac82610e43565b6113b68185611396565b93506113c6818560208601610e5f565b80840191505092915050565b60006113de82846113a1565b915081905092915050565b600082825260208201905092915050565b600061140683856113e9565b9350611413838584610cb8565b61141c83610bfb565b840190509392505050565b50565b60006114376000836113e9565b915061144282611427565b600082019050919050565b600060408201905081810360008301526114688184866113fa565b9050818103602083015261147b8161142a565b90509392505050565b61148d81610e28565b811461149857600080fd5b50565b6000815190506114aa81611484565b92915050565b6000602082840312156114c6576114c5610be7565b5b60006114d48482850161149b565b91505092915050565b60006114e98385611396565b93506114f6838584610cb8565b82840190509392505050565b600061150f8284866114dd565b9150819050939250505056fea264697066735822122036fc4868af805f22d0962139ddf0292681798c780fce91e519ad8ede19259faf64736f6c63430008090033",
  "immutableReferences": {},
  "source": "// SPDX-License-Identifier: GPL-3.0\npragma solidity ^0.8.9;\n\nimport \"./ISpeedRunRepo.sol\";\nimport \"./util.sol\";\n\n/// @title A stub repository of data from Speedrun.com\n/// @author msicilia.eth\n/// @notice This is a stub, dummy implementation for testing. No Oracles are used, so it is permitted to enter arbitrary data\ncontract SpeedRunRepo_Stub is ISpeedRunRepo {\n\n    // Runners registered succesfully:\n    mapping (string => SpeedRunner) public runners;\n    // Runs registered succesfully:\n    mapping (string => mapping (string => mapping (string => Run[]))) public runs; \n\n    /// @dev Note this naive implementation allows anybody to steal the prizes of others by simply \n    ///      registering again to other address. See the oraclized version for a more realistic use case.\n     function add_runner(string calldata _userName, string calldata _userId, address _addr) external{\n       require(!util.equalsString(_userId, \"\"));\n       // require(!util.equalsString(_userName, \"\"));\n        runners[_userId] = SpeedRunner(true, _userName, _userId, _addr);\n    }\n\n    function add_run(string calldata _userId, string calldata _gameId, string calldata _levelId, string calldata _runId, uint mark) external {\n        require(runners[_userId].isRunner);\n        Run[] storage user_runs = runs[_userId][_gameId][_levelId];\n        user_runs.push(Run(true, _gameId, _levelId, _runId, mark, _userId));\n    }\n\n    /// @param userId The SppedRun.com `userId` being queried.\n    /// @param gameId The id of the game.\n    /// @param levelId The id of the level of the game.\n    /// @param mark The time ckeched. \n    /// @return `true` if there is verified evidence in the repo that the user has a mark equal or better than `mark`.\n    /// @notice It returns `false` if no evidence found (but it might be that such evidence is yet at SpeedRun.com)\n    function passed_mark(string calldata userId, string calldata gameId, string calldata levelId, uint mark) override external view returns (bool){\n        require(runner_registered(userId));\n        return true;\n    }\n    function runner_registered(string memory _userId) public view returns (bool){\n        return runners[_userId].isRunner;\n     }\n}\n  ",
  "sourcePath": "/Users/msicilia/Desktop/dev/lrn/consensys/blockchain-developer-bootcamp-final-project/contracts/SpeedRunRepoStub.sol",
  "compiler": {
    "name": "solc",
    "version": "0.8.9+commit.e5eed63a.Emscripten.clang"
  },
  "schemaVersion": "3.3.3",
  "updatedAt": "2022-01-11T18:03:50.137Z",
  "devdoc": {
    "author": "msicilia.eth",
    "kind": "dev",
    "methods": {
      "add_run(string,string,string,string,uint256)": {
        "params": {
          "_gameId": "The id of the game.",
          "_levelId": "The id of the level of the game.",
          "_runId": "The id of the run for that level of the game.",
          "_userId": "Speedrunner id.",
          "mark": "The time recorded for that run"
        }
      },
      "add_runner(string,string,address)": {
        "details": "Note this naive implementation allows anybody to steal the prizes of others by simply       registering again to other address. See the oraclized version for a more realistic use case."
      },
      "passed_mark(string,string,string,uint256)": {
        "params": {
          "gameId": "The id of the game.",
          "levelId": "The id of the level of the game.",
          "mark": "The time ckeched. ",
          "userId": "The SppedRun.com `userId` being queried."
        },
        "returns": {
          "_0": "`true` if there is verified evidence in the repo that the user has a mark equal or better than `mark`."
        }
      }
    },
    "title": "A stub repository of data from Speedrun.com",
    "version": 1
  },
  "userdoc": {
    "kind": "user",
    "methods": {
      "passed_mark(string,string,string,uint256)": {
        "notice": "It returns `false` if no evidence found (but it might be that such evidence is yet at SpeedRun.com)"
      }
    },
    "notice": "This is a stub, dummy implementation for testing. No Oracles are used, so it is permitted to enter arbitrary data",
    "version": 1
  }
}