{
  "contractName": "SpeedRunRepo_Stub",
  "abi": [
    {
      "inputs": [
        {
          "internalType": "string",
          "name": "",
          "type": "string"
        }
      ],
      "name": "runners",
      "outputs": [
        {
          "internalType": "string",
          "name": "userName",
          "type": "string"
        },
        {
          "internalType": "string",
          "name": "userId",
          "type": "string"
        },
        {
          "internalType": "address",
          "name": "addr",
          "type": "address"
        }
      ],
      "stateMutability": "view",
      "type": "function",
      "constant": true
    },
    {
      "inputs": [
        {
          "internalType": "string",
          "name": "_userName",
          "type": "string"
        },
        {
          "internalType": "string",
          "name": "_userId",
          "type": "string"
        },
        {
          "internalType": "address",
          "name": "_addr",
          "type": "address"
        }
      ],
      "name": "add_runner",
      "outputs": [],
      "stateMutability": "nonpayable",
      "type": "function"
    },
    {
      "inputs": [
        {
          "internalType": "string",
          "name": "_userId",
          "type": "string"
        },
        {
          "internalType": "string",
          "name": "_gameId",
          "type": "string"
        },
        {
          "internalType": "string",
          "name": "_levelId",
          "type": "string"
        },
        {
          "internalType": "uint256",
          "name": "mark",
          "type": "uint256"
        }
      ],
      "name": "add_run",
      "outputs": [],
      "stateMutability": "nonpayable",
      "type": "function"
    },
    {
      "inputs": [
        {
          "internalType": "string",
          "name": "userId",
          "type": "string"
        },
        {
          "internalType": "string",
          "name": "gameId",
          "type": "string"
        },
        {
          "internalType": "string",
          "name": "levelId",
          "type": "string"
        },
        {
          "internalType": "uint256",
          "name": "mark",
          "type": "uint256"
        }
      ],
      "name": "passed_mark",
      "outputs": [
        {
          "internalType": "bool",
          "name": "",
          "type": "bool"
        }
      ],
      "stateMutability": "view",
      "type": "function",
      "constant": true
    },
    {
      "inputs": [
        {
          "internalType": "string",
          "name": "_userId",
          "type": "string"
        }
      ],
      "name": "runner_registered",
      "outputs": [
        {
          "internalType": "bool",
          "name": "",
          "type": "bool"
        }
      ],
      "stateMutability": "view",
      "type": "function",
      "constant": true
    }
  ],
  "bytecode": "0x608060405234801561001057600080fd5b50610bb6806100206000396000f3fe608060405234801561001057600080fd5b50600436106100575760003560e01c806310d496041461005c57806337a00f4d1461007857806342e315ee146100a8578063a89f90cf146100c4578063f1de7f20146100f4575b600080fd5b6100766004803603810190610071919061070c565b610126565b005b610092600480360381019061008d91906107d5565b61012f565b60405161009f91906108fb565b60405180910390f35b6100c260048036038101906100bd9190610677565b6101a9565b005b6100de60048036038101906100d9919061070c565b61030d565b6040516100eb91906108fb565b60405180910390f35b61010e600480360381019061010991906107d5565b610374565b60405161011d93929190610916565b60405180910390f35b50505050505050565b60008073ffffffffffffffffffffffffffffffffffffffff1660008360405161015891906108e4565b908152602001604051809103902060020160009054906101000a900473ffffffffffffffffffffffffffffffffffffffff1673ffffffffffffffffffffffffffffffffffffffff1614159050919050565b604051806060016040528086868080601f016020809104026020016040519081016040528093929190818152602001838380828437600081840152601f19601f82011690508083019250505050505050815260200184848080601f016020809104026020016040519081016040528093929190818152602001838380828437600081840152601f19601f8201169050808301925050505050505081526020018273ffffffffffffffffffffffffffffffffffffffff16815250600084846040516102749291906108cb565b9081526020016040518091039020600082015181600001908051906020019061029e9291906104e4565b5060208201518160010190805190602001906102bb9291906104e4565b5060408201518160020160006101000a81548173ffffffffffffffffffffffffffffffffffffffff021916908373ffffffffffffffffffffffffffffffffffffffff1602179055509050505050505050565b600061035c88888080601f016020809104026020016040519081016040528093929190818152602001838380828437600081840152601f19601f8201169050808301925050505050505061012f565b61036557600080fd5b60019050979650505050505050565b6000818051602081018201805184825260208301602085012081835280955050505050506000915090508060000180546103ad90610a62565b80601f01602080910402602001604051908101604052809291908181526020018280546103d990610a62565b80156104265780601f106103fb57610100808354040283529160200191610426565b820191906000526020600020905b81548152906001019060200180831161040957829003601f168201915b50505050509080600101805461043b90610a62565b80601f016020809104026020016040519081016040528092919081815260200182805461046790610a62565b80156104b45780601f10610489576101008083540402835291602001916104b4565b820191906000526020600020905b81548152906001019060200180831161049757829003601f168201915b5050505050908060020160009054906101000a900473ffffffffffffffffffffffffffffffffffffffff16905083565b8280546104f090610a62565b90600052602060002090601f0160209004810192826105125760008555610559565b82601f1061052b57805160ff1916838001178555610559565b82800160010185558215610559579182015b8281111561055857825182559160200191906001019061053d565b5b509050610566919061056a565b5090565b5b8082111561058357600081600090555060010161056b565b5090565b600061059a61059584610980565b61095b565b9050828152602081018484840111156105b6576105b5610b32565b5b6105c1848285610a20565b509392505050565b6000813590506105d881610b52565b92915050565b60008083601f8401126105f4576105f3610b28565b5b8235905067ffffffffffffffff81111561061157610610610b23565b5b60208301915083600182028301111561062d5761062c610b2d565b5b9250929050565b600082601f83011261064957610648610b28565b5b8135610659848260208601610587565b91505092915050565b60008135905061067181610b69565b92915050565b60008060008060006060868803121561069357610692610b3c565b5b600086013567ffffffffffffffff8111156106b1576106b0610b37565b5b6106bd888289016105de565b9550955050602086013567ffffffffffffffff8111156106e0576106df610b37565b5b6106ec888289016105de565b935093505060406106ff888289016105c9565b9150509295509295909350565b60008060008060008060006080888a03121561072b5761072a610b3c565b5b600088013567ffffffffffffffff81111561074957610748610b37565b5b6107558a828b016105de565b9750975050602088013567ffffffffffffffff81111561077857610777610b37565b5b6107848a828b016105de565b9550955050604088013567ffffffffffffffff8111156107a7576107a6610b37565b5b6107b38a828b016105de565b935093505060606107c68a828b01610662565b91505092959891949750929550565b6000602082840312156107eb576107ea610b3c565b5b600082013567ffffffffffffffff81111561080957610808610b37565b5b61081584828501610634565b91505092915050565b610827816109d8565b82525050565b610836816109ea565b82525050565b600061084883856109cd565b9350610855838584610a20565b82840190509392505050565b600061086c826109b1565b61087681856109bc565b9350610886818560208601610a2f565b61088f81610b41565b840191505092915050565b60006108a5826109b1565b6108af81856109cd565b93506108bf818560208601610a2f565b80840191505092915050565b60006108d882848661083c565b91508190509392505050565b60006108f0828461089a565b915081905092915050565b6000602082019050610910600083018461082d565b92915050565b600060608201905081810360008301526109308186610861565b905081810360208301526109448185610861565b9050610953604083018461081e565b949350505050565b6000610965610976565b90506109718282610a94565b919050565b6000604051905090565b600067ffffffffffffffff82111561099b5761099a610af4565b5b6109a482610b41565b9050602081019050919050565b600081519050919050565b600082825260208201905092915050565b600081905092915050565b60006109e3826109f6565b9050919050565b60008115159050919050565b600073ffffffffffffffffffffffffffffffffffffffff82169050919050565b6000819050919050565b82818337600083830152505050565b60005b83811015610a4d578082015181840152602081019050610a32565b83811115610a5c576000848401525b50505050565b60006002820490506001821680610a7a57607f821691505b60208210811415610a8e57610a8d610ac5565b5b50919050565b610a9d82610b41565b810181811067ffffffffffffffff82111715610abc57610abb610af4565b5b80604052505050565b7f4e487b7100000000000000000000000000000000000000000000000000000000600052602260045260246000fd5b7f4e487b7100000000000000000000000000000000000000000000000000000000600052604160045260246000fd5b600080fd5b600080fd5b600080fd5b600080fd5b600080fd5b600080fd5b6000601f19601f8301169050919050565b610b5b816109d8565b8114610b6657600080fd5b50565b610b7281610a16565b8114610b7d57600080fd5b5056fea264697066735822122006978dd58d656571d14f6e0c1d0d6420c749e6e31279c4e757a954acbd8888ec64736f6c63430008070033",
  "immutableReferences": {},
  "source": "// SPDX-License-Identifier: GPL-3.0\npragma solidity ^0.8.7;\n\nimport \"./ISpeedRunRepo.sol\";\n\n/// @title A stub repository of data from Speedrun.com\n/// @author msicilia.eth\n/// @notice This is a stub, dummy implementation for testing. No Oracles are used, so it is permitted to enter arbitrary data\ncontract SpeedRunRepo_Stub is ISpeedRunRepo {\n\n    mapping (string => SpeedRunner) public runners;\n    mapping (string => mapping (string => mapping (string => Run))) runs; \n\n    /// @dev Note this naive implementation allows anybody to steal the prizes of others by simply \n    ///      registering again to other address.\n     function add_runner(string calldata _userName, string calldata _userId, address _addr) external{\n        runners[_userId] = SpeedRunner(_userName, _userId, _addr);\n    }\n\n    function add_run(string calldata _userId, string calldata _gameId, string calldata _levelId, uint mark) external {\n        //user_runs = runs[_userId][_gameId];\n        // user_runs.push(Run(_gameId, _levelId, _runId, mark, _userId));\n    }\n    /// @param userId The SppedRum.com `userId` being queried.\n    /// @param gameId The id of the game.\n    /// @param levelId The id of the level of the game.\n    /// @param mark The time ckeched. \n    /// @return `true` if there is verified evidence in the repo that the user has a mark equal or better than `mark`.\n    /// @notice It returns `false` if no evidence found (but it might be that such evidence is yet at SpeedRun.com)\n    function passed_mark(string calldata userId, string calldata gameId, string calldata levelId, uint mark) override external view returns (bool){\n        require(runner_registered(userId));\n        return true;\n    }\n    function runner_registered(string memory _userId) public view returns (bool){\n        return runners[_userId].addr != address(0x0);\n     }\n}\n  ",
  "sourcePath": "/Users/msicilia/Desktop/dev/lrn/consensys/blockchain-developer-bootcamp-final-project/contracts/SpeedRunStub.sol",
  "compiler": {
    "name": "solc",
    "version": "0.8.7+commit.e28d00a7.Emscripten.clang"
  },
  "schemaVersion": "3.3.3",
  "updatedAt": "2021-11-19T12:00:38.785Z",
  "networkType": "ethereum",
  "devdoc": {
    "author": "msicilia.eth",
    "kind": "dev",
    "methods": {
      "add_runner(string,string,address)": {
        "details": "Note this naive implementation allows anybody to steal the prizes of others by simply       registering again to other address."
      },
      "passed_mark(string,string,string,uint256)": {
        "params": {
          "gameId": "The id of the game.",
          "levelId": "The id of the level of the game.",
          "mark": "The time ckeched. ",
          "userId": "The SppedRum.com `userId` being queried."
        },
        "returns": {
          "_0": "`true` if there is verified evidence in the repo that the user has a mark equal or better than `mark`."
        }
      }
    },
    "title": "A stub repository of data from Speedrun.com",
    "version": 1
  },
  "userdoc": {
    "kind": "user",
    "methods": {
      "passed_mark(string,string,string,uint256)": {
        "notice": "It returns `false` if no evidence found (but it might be that such evidence is yet at SpeedRun.com)"
      }
    },
    "notice": "This is a stub, dummy implementation for testing. No Oracles are used, so it is permitted to enter arbitrary data",
    "version": 1
  }
}