{
  "contractName": "SpeedRunRepoOraclized",
  "abi": [
    {
      "inputs": [],
      "stateMutability": "nonpayable",
      "type": "constructor"
    },
    {
      "anonymous": false,
      "inputs": [
        {
          "indexed": true,
          "internalType": "bytes32",
          "name": "id",
          "type": "bytes32"
        }
      ],
      "name": "ChainlinkCancelled",
      "type": "event"
    },
    {
      "anonymous": false,
      "inputs": [
        {
          "indexed": true,
          "internalType": "bytes32",
          "name": "id",
          "type": "bytes32"
        }
      ],
      "name": "ChainlinkFulfilled",
      "type": "event"
    },
    {
      "anonymous": false,
      "inputs": [
        {
          "indexed": true,
          "internalType": "bytes32",
          "name": "id",
          "type": "bytes32"
        }
      ],
      "name": "ChainlinkRequested",
      "type": "event"
    },
    {
      "anonymous": false,
      "inputs": [
        {
          "indexed": true,
          "internalType": "bytes32",
          "name": "requestId",
          "type": "bytes32"
        },
        {
          "indexed": true,
          "internalType": "bytes",
          "name": "data",
          "type": "bytes"
        }
      ],
      "name": "RequestFulfilled",
      "type": "event"
    },
    {
      "inputs": [
        {
          "internalType": "string",
          "name": "",
          "type": "string"
        }
      ],
      "name": "runners",
      "outputs": [
        {
          "internalType": "bool",
          "name": "isRunner",
          "type": "bool"
        },
        {
          "internalType": "string",
          "name": "userName",
          "type": "string"
        },
        {
          "internalType": "string",
          "name": "userId",
          "type": "string"
        },
        {
          "internalType": "address",
          "name": "addr",
          "type": "address"
        }
      ],
      "stateMutability": "view",
      "type": "function",
      "constant": true
    },
    {
      "inputs": [
        {
          "internalType": "string",
          "name": "",
          "type": "string"
        },
        {
          "internalType": "string",
          "name": "",
          "type": "string"
        },
        {
          "internalType": "string",
          "name": "",
          "type": "string"
        }
      ],
      "name": "runs",
      "outputs": [
        {
          "internalType": "bool",
          "name": "isRun",
          "type": "bool"
        },
        {
          "internalType": "string",
          "name": "gameId",
          "type": "string"
        },
        {
          "internalType": "string",
          "name": "levelId",
          "type": "string"
        },
        {
          "internalType": "string",
          "name": "runId",
          "type": "string"
        },
        {
          "internalType": "uint256",
          "name": "primaryTime",
          "type": "uint256"
        },
        {
          "internalType": "string",
          "name": "userId",
          "type": "string"
        }
      ],
      "stateMutability": "view",
      "type": "function",
      "constant": true
    },
    {
      "inputs": [
        {
          "internalType": "string",
          "name": "userId",
          "type": "string"
        },
        {
          "internalType": "string",
          "name": "gameId",
          "type": "string"
        },
        {
          "internalType": "string",
          "name": "levelId",
          "type": "string"
        },
        {
          "internalType": "uint256",
          "name": "mark",
          "type": "uint256"
        }
      ],
      "name": "passed_mark",
      "outputs": [
        {
          "internalType": "bool",
          "name": "",
          "type": "bool"
        }
      ],
      "stateMutability": "view",
      "type": "function",
      "constant": true
    },
    {
      "inputs": [
        {
          "internalType": "string",
          "name": "_userName",
          "type": "string"
        },
        {
          "internalType": "string",
          "name": "_userId",
          "type": "string"
        },
        {
          "internalType": "address",
          "name": "_addr",
          "type": "address"
        }
      ],
      "name": "add_runner",
      "outputs": [],
      "stateMutability": "nonpayable",
      "type": "function"
    },
    {
      "inputs": [
        {
          "internalType": "string",
          "name": "_userId",
          "type": "string"
        },
        {
          "internalType": "string",
          "name": "_gameId",
          "type": "string"
        },
        {
          "internalType": "string",
          "name": "_levelId",
          "type": "string"
        },
        {
          "internalType": "string",
          "name": "runId",
          "type": "string"
        },
        {
          "internalType": "uint256",
          "name": "mark",
          "type": "uint256"
        }
      ],
      "name": "add_run",
      "outputs": [],
      "stateMutability": "nonpayable",
      "type": "function"
    },
    {
      "inputs": [
        {
          "internalType": "string",
          "name": "_userId",
          "type": "string"
        }
      ],
      "name": "_requestAddress",
      "outputs": [
        {
          "internalType": "bytes32",
          "name": "requestId",
          "type": "bytes32"
        }
      ],
      "stateMutability": "nonpayable",
      "type": "function"
    },
    {
      "inputs": [
        {
          "internalType": "bytes32",
          "name": "_requestId",
          "type": "bytes32"
        },
        {
          "internalType": "bytes",
          "name": "_addr",
          "type": "bytes"
        }
      ],
      "name": "fulfillRequestAddress",
      "outputs": [],
      "stateMutability": "nonpayable",
      "type": "function"
    },
    {
      "inputs": [
        {
          "internalType": "string",
          "name": "_userId",
          "type": "string"
        }
      ],
      "name": "runner_registered",
      "outputs": [
        {
          "internalType": "bool",
          "name": "",
          "type": "bool"
        }
      ],
      "stateMutability": "view",
      "type": "function",
      "constant": true
    },
    {
      "inputs": [
        {
          "internalType": "string",
          "name": "_userId",
          "type": "string"
        }
      ],
      "name": "get_runner_address",
      "outputs": [
        {
          "internalType": "address",
          "name": "",
          "type": "address"
        }
      ],
      "stateMutability": "view",
      "type": "function",
      "constant": true
    }
  ],
  "bytecode": "0x608060405260016004553480156200001657600080fd5b50620000276200002d60201b60201c565b620001b5565b620000d373c89bd4e1632d3a43cb03aaad5262cbe4038bc57173ffffffffffffffffffffffffffffffffffffffff166338cc48316040518163ffffffff1660e01b815260040160206040518083038186803b1580156200008c57600080fd5b505afa158015620000a1573d6000803e3d6000fd5b505050506040513d601f19601f82011682018060405250810190620000c7919062000183565b620000d560201b60201c565b565b80600260006101000a81548173ffffffffffffffffffffffffffffffffffffffff021916908373ffffffffffffffffffffffffffffffffffffffff16021790555050565b600080fd5b600073ffffffffffffffffffffffffffffffffffffffff82169050919050565b60006200014b826200011e565b9050919050565b6200015d816200013e565b81146200016957600080fd5b50565b6000815190506200017d8162000152565b92915050565b6000602082840312156200019c576200019b62000119565b5b6000620001ac848285016200016c565b91505092915050565b61275080620001c56000396000f3fe608060405234801561001057600080fd5b50600436106100935760003560e01c8063a89f90cf11610066578063a89f90cf14610130578063bf35a2bb14610160578063cc8ec24014610195578063e6b0d3eb146101c5578063f1de7f20146101e157610093565b806337a00f4d1461009857806342e315ee146100c857806348031e1e146100e4578063560939c314610100575b600080fd5b6100b260048036038101906100ad9190611790565b610214565b6040516100bf91906117f4565b60405180910390f35b6100e260048036038101906100dd91906118cd565b61024c565b005b6100fe60048036038101906100f99190611998565b6103dc565b005b61011a60048036038101906101159190611a94565b6103e7565b6040516101279190611afa565b60405180910390f35b61014a60048036038101906101459190611b15565b610541565b60405161015791906117f4565b60405180910390f35b61017a60048036038101906101759190611bde565b610552565b60405161018c96959493929190611d1c565b60405180910390f35b6101af60048036038101906101aa9190611790565b610817565b6040516101bc9190611da8565b60405180910390f35b6101df60048036038101906101da9190611e90565b610874565b005b6101fb60048036038101906101f69190611790565b610b79565b60405161020b9493929190611eec565b60405180910390f35b60006006826040516102269190611f7b565b908152602001604051809103902060000160009054906101000a900460ff169050919050565b600061025884846103e7565b9050604051806080016040528060011515815260200187878080601f016020809104026020016040519081016040528093929190818152602001838380828437600081840152601f19601f82011690508083019250505050505050815260200185858080601f016020809104026020016040519081016040528093929190818152602001838380828437600081840152601f19601f820116905080830192505050505050508152602001600073ffffffffffffffffffffffffffffffffffffffff168152506008600083815260200190815260200160002060008201518160000160006101000a81548160ff021916908315150217905550602082015181600101908051906020019061036c92919061150c565b50604082015181600201908051906020019061038992919061150c565b5060608201518160030160006101000a81548173ffffffffffffffffffffffffffffffffffffffff021916908373ffffffffffffffffffffffffffffffffffffffff160217905550905050505050505050565b505050505050505050565b60008073c57b33452b4f7bb189bb5afae9cc4aba1f7a4fd8905060007f37613937666638343933656334303664393036323162323533316639323531619050600067016345785d8a000090506000610447833063e6b0d3eb60e01b610cfc565b90506104ab6040518060400160405280600381526020017f67657400000000000000000000000000000000000000000000000000000000008152506040518060600160405280602e81526020016126ed602e913983610d2d9092919063ffffffff16565b61052a6040518060400160405280600481526020017f70617468000000000000000000000000000000000000000000000000000000008152506040518060400160405280600f81526020017f646174612e7477697463682e757269000000000000000000000000000000000081525083610d2d9092919063ffffffff16565b610535848284610d60565b94505050505092915050565b600060019050979650505050505050565b600783805160208101820180518482526020830160208501208183528095505050505050828051602081018201805184825260208301602085012081835280955050505050508180516020810182018051848252602083016020850120818352809550505050505060009250925050508060000160009054906101000a900460ff16908060010180546105e490611fc1565b80601f016020809104026020016040519081016040528092919081815260200182805461061090611fc1565b801561065d5780601f106106325761010080835404028352916020019161065d565b820191906000526020600020905b81548152906001019060200180831161064057829003601f168201915b50505050509080600201805461067290611fc1565b80601f016020809104026020016040519081016040528092919081815260200182805461069e90611fc1565b80156106eb5780601f106106c0576101008083540402835291602001916106eb565b820191906000526020600020905b8154815290600101906020018083116106ce57829003601f168201915b50505050509080600301805461070090611fc1565b80601f016020809104026020016040519081016040528092919081815260200182805461072c90611fc1565b80156107795780601f1061074e57610100808354040283529160200191610779565b820191906000526020600020905b81548152906001019060200180831161075c57829003601f168201915b50505050509080600401549080600501805461079490611fc1565b80601f01602080910402602001604051908101604052809291908181526020018280546107c090611fc1565b801561080d5780601f106107e25761010080835404028352916020019161080d565b820191906000526020600020905b8154815290600101906020018083116107f057829003601f168201915b5050505050905086565b600061082282610214565b61082b57600080fd5b60068260405161083b9190611f7b565b908152602001604051809103902060030160009054906101000a900473ffffffffffffffffffffffffffffffffffffffff169050919050565b816005600082815260200190815260200160002060009054906101000a900473ffffffffffffffffffffffffffffffffffffffff1673ffffffffffffffffffffffffffffffffffffffff163373ffffffffffffffffffffffffffffffffffffffff1614610916576040517f08c379a000000000000000000000000000000000000000000000000000000000815260040161090d90612065565b60405180910390fd5b6005600082815260200190815260200160002060006101000a81549073ffffffffffffffffffffffffffffffffffffffff0219169055807f7cc135e0cebb02c3480ae5d74d377283180a2601f8f644edf7987b009316c63a60405160405180910390a28160405161098791906120cc565b6040518091039020837f1a111c5dcf9a71088bd5e1797fdfaf399fec2afbb24aca247e4e3e9f4b61df9160405160405180910390a36000600860008581526020019081526020016000206040518060800160405290816000820160009054906101000a900460ff16151515158152602001600182018054610a0790611fc1565b80601f0160208091040260200160405190810160405280929190818152602001828054610a3390611fc1565b8015610a805780601f10610a5557610100808354040283529160200191610a80565b820191906000526020600020905b815481529060010190602001808311610a6357829003601f168201915b50505050508152602001600282018054610a9990611fc1565b80601f0160208091040260200160405190810160405280929190818152602001828054610ac590611fc1565b8015610b125780601f10610ae757610100808354040283529160200191610b12565b820191906000526020600020905b815481529060010190602001808311610af557829003601f168201915b505050505081526020016003820160009054906101000a900473ffffffffffffffffffffffffffffffffffffffff1673ffffffffffffffffffffffffffffffffffffffff1673ffffffffffffffffffffffffffffffffffffffff1681525050905050505050565b6006818051602081018201805184825260208301602085012081835280955050505050506000915090508060000160009054906101000a900460ff1690806001018054610bc590611fc1565b80601f0160208091040260200160405190810160405280929190818152602001828054610bf190611fc1565b8015610c3e5780601f10610c1357610100808354040283529160200191610c3e565b820191906000526020600020905b815481529060010190602001808311610c2157829003601f168201915b505050505090806002018054610c5390611fc1565b80601f0160208091040260200160405190810160405280929190818152602001828054610c7f90611fc1565b8015610ccc5780601f10610ca157610100808354040283529160200191610ccc565b820191906000526020600020905b815481529060010190602001808311610caf57829003601f168201915b5050505050908060030160009054906101000a900473ffffffffffffffffffffffffffffffffffffffff16905084565b610d04611592565b610d0c611592565b610d2385858584610e2c909392919063ffffffff16565b9150509392505050565b610d44828460800151610edc90919063ffffffff16565b610d5b818460800151610edc90919063ffffffff16565b505050565b6000806004549050600181610d759190612112565b6004819055506000634042994660e01b60008087600001513089604001518760018c6080015160000151604051602401610db69897969594939291906121ed565b604051602081830303815290604052907bffffffffffffffffffffffffffffffffffffffffffffffffffffffff19166020820180517bffffffffffffffffffffffffffffffffffffffffffffffffffffffff83818316178352505050509050610e2186838684610f01565b925050509392505050565b610e34611592565b610e4485608001516101006110a5565b508385600001818152505082856020019073ffffffffffffffffffffffffffffffffffffffff16908173ffffffffffffffffffffffffffffffffffffffff16815250508185604001907bffffffffffffffffffffffffffffffffffffffffffffffffffffffff191690817bffffffffffffffffffffffffffffffffffffffffffffffffffffffff191681525050849050949350505050565b610ee9826003835161110f565b610efc818361129490919063ffffffff16565b505050565b60003084604051602001610f1692919061232b565b604051602081830303815290604052805190602001209050846005600083815260200190815260200160002060006101000a81548173ffffffffffffffffffffffffffffffffffffffff021916908373ffffffffffffffffffffffffffffffffffffffff160217905550807fb5e6e01e79f91267dc17b4e6314d5d4d03593d2ceee0fbb452b750bd70ea5af960405160405180910390a2600260009054906101000a900473ffffffffffffffffffffffffffffffffffffffff1673ffffffffffffffffffffffffffffffffffffffff16634000aea08685856040518463ffffffff1660e01b815260040161100c93929190612357565b602060405180830381600087803b15801561102657600080fd5b505af115801561103a573d6000803e3d6000fd5b505050506040513d601f19601f8201168201806040525081019061105e91906123c1565b61109d576040517f08c379a000000000000000000000000000000000000000000000000000000000815260040161109490612460565b60405180910390fd5b949350505050565b6110ad6115ff565b60006020836110bc91906124af565b146110e8576020826110ce91906124af565b60206110da91906124e0565b826110e59190612112565b91505b81836020018181525050604051808452600081528281016020016040525082905092915050565b60178167ffffffffffffffff1611611146576111408160058460ff16901b60ff1617846112b690919063ffffffff16565b5061128f565b60ff8167ffffffffffffffff161161119c57611175601860058460ff16901b17846112b690919063ffffffff16565b506111968167ffffffffffffffff166001856112d69092919063ffffffff16565b5061128e565b61ffff8167ffffffffffffffff16116111f3576111cc601960058460ff16901b17846112b690919063ffffffff16565b506111ed8167ffffffffffffffff166002856112d69092919063ffffffff16565b5061128d565b63ffffffff8167ffffffffffffffff161161124c57611225601a60058460ff16901b17846112b690919063ffffffff16565b506112468167ffffffffffffffff166004856112d69092919063ffffffff16565b5061128c565b611269601b60058460ff16901b17846112b690919063ffffffff16565b5061128a8167ffffffffffffffff166008856112d69092919063ffffffff16565b505b5b5b5b505050565b61129c6115ff565b6112ae838460000151518485516112f8565b905092915050565b6112be6115ff565b6112ce83846000015151846113e7565b905092915050565b6112de6115ff565b6112ef84856000015151858561143e565b90509392505050565b6113006115ff565b825182111561130e57600080fd5b8460200151828561131f9190612112565b1115611354576113538560026113448860200151888761133f9190612112565b6114cc565b61134e9190612514565b6114e8565b5b6000808651805187602083010193508088870111156113735787860182525b60208701925050505b602084106113ba57805182526020826113959190612112565b91506020816113a49190612112565b90506020846113b391906124e0565b935061137c565b60006001856020036101000a03905080198251168184511681811785525050508692505050949350505050565b6113ef6115ff565b8360200151831061141557611414846002866020015161140f9190612514565b6114e8565b5b8351805160208583010184815381861415611431576001820183525b5050508390509392505050565b6114466115ff565b846020015184836114579190612112565b111561147f5761147e856002868561146f9190612112565b6114799190612514565b6114e8565b5b600060018361010061149191906126a1565b61149b91906124e0565b905085518386820101858319825116178152815185880111156114be5784870182525b505085915050949350505050565b6000818311156114de578290506114e2565b8190505b92915050565b6000826000015190506114fb83836110a5565b506115068382611294565b50505050565b82805461151890611fc1565b90600052602060002090601f01602090048101928261153a5760008555611581565b82601f1061155357805160ff1916838001178555611581565b82800160010185558215611581579182015b82811115611580578251825591602001919060010190611565565b5b50905061158e9190611619565b5090565b6040518060a0016040528060008019168152602001600073ffffffffffffffffffffffffffffffffffffffff16815260200160007bffffffffffffffffffffffffffffffffffffffffffffffffffffffff19168152602001600081526020016115f96115ff565b81525090565b604051806040016040528060608152602001600081525090565b5b8082111561163257600081600090555060010161161a565b5090565b6000604051905090565b600080fd5b600080fd5b600080fd5b600080fd5b6000601f19601f8301169050919050565b7f4e487b7100000000000000000000000000000000000000000000000000000000600052604160045260246000fd5b61169d82611654565b810181811067ffffffffffffffff821117156116bc576116bb611665565b5b80604052505050565b60006116cf611636565b90506116db8282611694565b919050565b600067ffffffffffffffff8211156116fb576116fa611665565b5b61170482611654565b9050602081019050919050565b82818337600083830152505050565b600061173361172e846116e0565b6116c5565b90508281526020810184848401111561174f5761174e61164f565b5b61175a848285611711565b509392505050565b600082601f8301126117775761177661164a565b5b8135611787848260208601611720565b91505092915050565b6000602082840312156117a6576117a5611640565b5b600082013567ffffffffffffffff8111156117c4576117c3611645565b5b6117d084828501611762565b91505092915050565b60008115159050919050565b6117ee816117d9565b82525050565b600060208201905061180960008301846117e5565b92915050565b600080fd5b600080fd5b60008083601f84011261182f5761182e61164a565b5b8235905067ffffffffffffffff81111561184c5761184b61180f565b5b60208301915083600182028301111561186857611867611814565b5b9250929050565b600073ffffffffffffffffffffffffffffffffffffffff82169050919050565b600061189a8261186f565b9050919050565b6118aa8161188f565b81146118b557600080fd5b50565b6000813590506118c7816118a1565b92915050565b6000806000806000606086880312156118e9576118e8611640565b5b600086013567ffffffffffffffff81111561190757611906611645565b5b61191388828901611819565b9550955050602086013567ffffffffffffffff81111561193657611935611645565b5b61194288828901611819565b93509350506040611955888289016118b8565b9150509295509295909350565b6000819050919050565b61197581611962565b811461198057600080fd5b50565b6000813590506119928161196c565b92915050565b600080600080600080600080600060a08a8c0312156119ba576119b9611640565b5b60008a013567ffffffffffffffff8111156119d8576119d7611645565b5b6119e48c828d01611819565b995099505060208a013567ffffffffffffffff811115611a0757611a06611645565b5b611a138c828d01611819565b975097505060408a013567ffffffffffffffff811115611a3657611a35611645565b5b611a428c828d01611819565b955095505060608a013567ffffffffffffffff811115611a6557611a64611645565b5b611a718c828d01611819565b93509350506080611a848c828d01611983565b9150509295985092959850929598565b60008060208385031215611aab57611aaa611640565b5b600083013567ffffffffffffffff811115611ac957611ac8611645565b5b611ad585828601611819565b92509250509250929050565b6000819050919050565b611af481611ae1565b82525050565b6000602082019050611b0f6000830184611aeb565b92915050565b60008060008060008060006080888a031215611b3457611b33611640565b5b600088013567ffffffffffffffff811115611b5257611b51611645565b5b611b5e8a828b01611819565b9750975050602088013567ffffffffffffffff811115611b8157611b80611645565b5b611b8d8a828b01611819565b9550955050604088013567ffffffffffffffff811115611bb057611baf611645565b5b611bbc8a828b01611819565b93509350506060611bcf8a828b01611983565b91505092959891949750929550565b600080600060608486031215611bf757611bf6611640565b5b600084013567ffffffffffffffff811115611c1557611c14611645565b5b611c2186828701611762565b935050602084013567ffffffffffffffff811115611c4257611c41611645565b5b611c4e86828701611762565b925050604084013567ffffffffffffffff811115611c6f57611c6e611645565b5b611c7b86828701611762565b9150509250925092565b600081519050919050565b600082825260208201905092915050565b60005b83811015611cbf578082015181840152602081019050611ca4565b83811115611cce576000848401525b50505050565b6000611cdf82611c85565b611ce98185611c90565b9350611cf9818560208601611ca1565b611d0281611654565b840191505092915050565b611d1681611962565b82525050565b600060c082019050611d3160008301896117e5565b8181036020830152611d438188611cd4565b90508181036040830152611d578187611cd4565b90508181036060830152611d6b8186611cd4565b9050611d7a6080830185611d0d565b81810360a0830152611d8c8184611cd4565b9050979650505050505050565b611da28161188f565b82525050565b6000602082019050611dbd6000830184611d99565b92915050565b611dcc81611ae1565b8114611dd757600080fd5b50565b600081359050611de981611dc3565b92915050565b600067ffffffffffffffff821115611e0a57611e09611665565b5b611e1382611654565b9050602081019050919050565b6000611e33611e2e84611def565b6116c5565b905082815260208101848484011115611e4f57611e4e61164f565b5b611e5a848285611711565b509392505050565b600082601f830112611e7757611e7661164a565b5b8135611e87848260208601611e20565b91505092915050565b60008060408385031215611ea757611ea6611640565b5b6000611eb585828601611dda565b925050602083013567ffffffffffffffff811115611ed657611ed5611645565b5b611ee285828601611e62565b9150509250929050565b6000608082019050611f0160008301876117e5565b8181036020830152611f138186611cd4565b90508181036040830152611f278185611cd4565b9050611f366060830184611d99565b95945050505050565b600081905092915050565b6000611f5582611c85565b611f5f8185611f3f565b9350611f6f818560208601611ca1565b80840191505092915050565b6000611f878284611f4a565b915081905092915050565b7f4e487b7100000000000000000000000000000000000000000000000000000000600052602260045260246000fd5b60006002820490506001821680611fd957607f821691505b60208210811415611fed57611fec611f92565b5b50919050565b7f536f75726365206d75737420626520746865206f7261636c65206f662074686560008201527f2072657175657374000000000000000000000000000000000000000000000000602082015250565b600061204f602883611c90565b915061205a82611ff3565b604082019050919050565b6000602082019050818103600083015261207e81612042565b9050919050565b600081519050919050565b600081905092915050565b60006120a682612085565b6120b08185612090565b93506120c0818560208601611ca1565b80840191505092915050565b60006120d8828461209b565b915081905092915050565b7f4e487b7100000000000000000000000000000000000000000000000000000000600052601160045260246000fd5b600061211d82611962565b915061212883611962565b9250827fffffffffffffffffffffffffffffffffffffffffffffffffffffffffffffffff0382111561215d5761215c6120e3565b5b828201905092915050565b60007fffffffff0000000000000000000000000000000000000000000000000000000082169050919050565b61219d81612168565b82525050565b600082825260208201905092915050565b60006121bf82612085565b6121c981856121a3565b93506121d9818560208601611ca1565b6121e281611654565b840191505092915050565b600061010082019050612203600083018b611d99565b612210602083018a611d0d565b61221d6040830189611aeb565b61222a6060830188611d99565b6122376080830187612194565b61224460a0830186611d0d565b61225160c0830185611d0d565b81810360e083015261226381846121b4565b90509998505050505050505050565b6000819050919050565b600061229761229261228d8461186f565b612272565b61186f565b9050919050565b60006122a98261227c565b9050919050565b60006122bb8261229e565b9050919050565b60008160601b9050919050565b60006122da826122c2565b9050919050565b60006122ec826122cf565b9050919050565b6123046122ff826122b0565b6122e1565b82525050565b6000819050919050565b61232561232082611962565b61230a565b82525050565b600061233782856122f3565b6014820191506123478284612314565b6020820191508190509392505050565b600060608201905061236c6000830186611d99565b6123796020830185611d0d565b818103604083015261238b81846121b4565b9050949350505050565b61239e816117d9565b81146123a957600080fd5b50565b6000815190506123bb81612395565b92915050565b6000602082840312156123d7576123d6611640565b5b60006123e5848285016123ac565b91505092915050565b7f756e61626c6520746f207472616e73666572416e6443616c6c20746f206f726160008201527f636c650000000000000000000000000000000000000000000000000000000000602082015250565b600061244a602383611c90565b9150612455826123ee565b604082019050919050565b600060208201905081810360008301526124798161243d565b9050919050565b7f4e487b7100000000000000000000000000000000000000000000000000000000600052601260045260246000fd5b60006124ba82611962565b91506124c583611962565b9250826124d5576124d4612480565b5b828206905092915050565b60006124eb82611962565b91506124f683611962565b925082821015612509576125086120e3565b5b828203905092915050565b600061251f82611962565b915061252a83611962565b9250817fffffffffffffffffffffffffffffffffffffffffffffffffffffffffffffffff0483118215151615612563576125626120e3565b5b828202905092915050565b60008160011c9050919050565b6000808291508390505b60018511156125c5578086048111156125a1576125a06120e3565b5b60018516156125b05780820291505b80810290506125be8561256e565b9450612585565b94509492505050565b6000826125de576001905061269a565b816125ec576000905061269a565b8160018114612602576002811461260c5761263b565b600191505061269a565b60ff84111561261e5761261d6120e3565b5b8360020a915084821115612635576126346120e3565b5b5061269a565b5060208310610133831016604e8410600b84101617156126705782820a90508381111561266b5761266a6120e3565b5b61269a565b61267d848484600161257b565b92509050818404811115612694576126936120e3565b5b81810290505b9392505050565b60006126ac82611962565b91506126b783611962565b92506126e47fffffffffffffffffffffffffffffffffffffffffffffffffffffffffffffffff84846125ce565b90509291505056fe68747470733a2f2f7777772e737065656472756e2e636f6d2f6170692f76312f75736572732f6a703437766d796aa2646970667358221220a772297055ee415fb935e00b739597877825aa14e7a63709c04c1d48edb217c164736f6c63430008090033",
  "immutableReferences": {},
  "source": "// SPDX-License-Identifier: GPL-3.0\npragma solidity ^0.8.9;\n\nimport \"@chainlink/contracts/src/v0.8/ChainlinkClient.sol\";\nimport \"./ISpeedRunRepo.sol\";\n// import \"./bytesSwap.sol\";\n\ncontract SpeedRunRepoOraclized is ChainlinkClient, ISpeedRunRepo {\n    using Chainlink for Chainlink.Request;\n    // Runners registered succesfully:\n    mapping (string => SpeedRunner) public runners;\n    // Runs registered succesfully:\n    mapping (string => mapping (string => mapping (string => Run))) public runs; \n    // Temporary storage of add_runner requests\n    mapping (bytes32 => SpeedRunner) private runner_requests;\n\n\n    event RequestFulfilled(\n        bytes32 indexed requestId,\n        bytes indexed data\n    );\n    \n    /**\n     * Network: Rinkeby\n     * Oracle: 0xc57B33452b4F7BB189bB5AfaE9cc4aBa1f7a4FD8 (Chainlink Devrel   \n     * Node)\n     * Job ID: d5270d1c311941d0b08bead21fea7747\n     * Fee: 0.1 LINK\n     */\n    constructor() {\n        setPublicChainlinkToken();\n    }\n    \n    function passed_mark(string calldata userId, string calldata gameId, string calldata levelId,  uint mark) override external view returns (bool){\n        return true;\n    }\n\n    function add_runner(string calldata _userName, string calldata _userId, address _addr) override external{\n         bytes32 reqId = _requestAddress(_userId);\n         runner_requests[reqId] = SpeedRunner(true, _userName, _userId, address(0));\n    }\n\n    ///\n    function add_run(string calldata _userId, string calldata _gameId, string calldata _levelId,string calldata runId, uint mark) override external{}\n\n    /**\n     * Create a Chainlink request to retrieve API response, find the target\n     * data, then multiply by 1000000000000000000 (to remove decimal places from data).\n     */\n    function _requestAddress(string calldata _userId) public returns (bytes32 requestId)\n    {\n        address oracle = 0xc57B33452b4F7BB189bB5AfaE9cc4aBa1f7a4FD8;\n        bytes32 specId = \"7a97ff8493ec406d90621b2531f9251a\";\n        uint256 payment = 100000000000000000;\n        Chainlink.Request memory request = buildChainlinkRequest(specId, address(this), this.fulfillRequestAddress.selector);\n\n        // Set the URL to perform the GET request on\n        request.add(\"get\", \"https://www.speedrun.com/api/v1/users/jp47vmyj\");\n\n            /* This is how the Json output for an API request for user info looks like:\n                    {\n            \"data\": {\n            \"id\": \"jp47vmyj\",\n            \"names\": {\n            \"international\": \"thefunambulista\",\n            \"japanese\": null\n            },\n            \"weblink\": \"https://www.speedrun.com/user/thefunambulista\",\n            ...\n            \"role\": \"user\",\n            ...\n            \"twitch\": {\n            \"uri\": \"https://www.twitch.tv/0xdEa3e18AA866f46DA789f0b908e90bF55A0dCa90\"\n            },\n            */\n        // The trick is that the user includes the address in one of the accounts, here we use twitch.\n        request.add(\"path\", \"data.twitch.uri\");\n           \n        // Sends the request\n        //requestOracleData(request, payment);\n\n        return sendChainlinkRequestTo(oracle, request, payment);\n    }\n    \n    /**\n     * Receive the response in the form of uint256\n     */ \n    function fulfillRequestAddress(bytes32 _requestId, bytes memory _addr) public recordChainlinkFulfillment(_requestId)\n    {\n        //string memory addr = bytesSwap.bytes32ToString(_addr);\n        emit RequestFulfilled(_requestId, _addr);\n        SpeedRunner memory temp = runner_requests[_requestId];\n        //runners[temp.userId] = SpeedRunner(temp.userName, temp.userId, address(_addr));\n\n    }\n  \n    function runner_registered(string memory _userId) public view returns (bool){\n        return runners[_userId].isRunner;\n     }\n\n    function get_runner_address(string memory _userId) override external view returns (address){\n         require(runner_registered(_userId));\n         return runners[_userId].addr;\n     }\n}\n",
  "sourcePath": "/Users/msicilia/Desktop/dev/lrn/consensys/blockchain-developer-bootcamp-final-project/contracts/SpeedRunRepoOraclized.sol",
  "compiler": {
    "name": "solc",
    "version": "0.8.9+commit.e5eed63a.Emscripten.clang"
  },
  "schemaVersion": "3.3.3",
  "updatedAt": "2022-01-14T14:15:45.754Z",
  "networkType": "ethereum",
  "devdoc": {
    "kind": "dev",
    "methods": {
      "add_runner(string,string,address)": {
        "params": {
          "_addr": "An Ethereum address associated to the user.",
          "_userId": "The SpeedRunner id of the user.",
          "_userName": "The name of the SpeedRun.com user"
        }
      },
      "passed_mark(string,string,string,uint256)": {
        "params": {
          "gameId": "The id of the game.",
          "levelId": "The id of the level of the game.",
          "mark": "The time ckeched. ",
          "userId": "The SppedRun.com `userId` being queried."
        },
        "returns": {
          "_0": "`true` if there is verified evidence in the repo that the user has a mark equal or better than `mark`."
        }
      }
    },
    "version": 1
  },
  "userdoc": {
    "kind": "user",
    "methods": {
      "_requestAddress(string)": {
        "notice": "Create a Chainlink request to retrieve API response, find the target data, then multiply by 1000000000000000000 (to remove decimal places from data)."
      },
      "constructor": {
        "notice": "Network: Rinkeby Oracle: 0xc57B33452b4F7BB189bB5AfaE9cc4aBa1f7a4FD8 (Chainlink Devrel    Node) Job ID: d5270d1c311941d0b08bead21fea7747 Fee: 0.1 LINK"
      },
      "fulfillRequestAddress(bytes32,bytes)": {
        "notice": "Receive the response in the form of uint256"
      },
      "passed_mark(string,string,string,uint256)": {
        "notice": "It returns `false` if no evidence found in the smart contract (but it might be that such evidence is yet at SpeedRun.com)"
      }
    },
    "version": 1
  }
}