{
  "contractName": "SpeedRunRepo_Stub",
  "abi": [
    {
      "inputs": [
        {
          "internalType": "string",
          "name": "",
          "type": "string"
        }
      ],
      "name": "runners",
      "outputs": [
        {
          "internalType": "bool",
          "name": "isRunner",
          "type": "bool"
        },
        {
          "internalType": "string",
          "name": "userName",
          "type": "string"
        },
        {
          "internalType": "string",
          "name": "userId",
          "type": "string"
        },
        {
          "internalType": "address",
          "name": "addr",
          "type": "address"
        }
      ],
      "stateMutability": "view",
      "type": "function",
      "constant": true
    },
    {
      "inputs": [
        {
          "internalType": "string",
          "name": "",
          "type": "string"
        },
        {
          "internalType": "string",
          "name": "",
          "type": "string"
        },
        {
          "internalType": "string",
          "name": "",
          "type": "string"
        },
        {
          "internalType": "uint256",
          "name": "",
          "type": "uint256"
        }
      ],
      "name": "runs",
      "outputs": [
        {
          "internalType": "bool",
          "name": "isRun",
          "type": "bool"
        },
        {
          "internalType": "string",
          "name": "gameId",
          "type": "string"
        },
        {
          "internalType": "string",
          "name": "levelId",
          "type": "string"
        },
        {
          "internalType": "string",
          "name": "runId",
          "type": "string"
        },
        {
          "internalType": "uint256",
          "name": "primaryTime",
          "type": "uint256"
        },
        {
          "internalType": "string",
          "name": "userId",
          "type": "string"
        }
      ],
      "stateMutability": "view",
      "type": "function",
      "constant": true
    },
    {
      "inputs": [
        {
          "internalType": "string",
          "name": "_userName",
          "type": "string"
        },
        {
          "internalType": "string",
          "name": "_userId",
          "type": "string"
        },
        {
          "internalType": "address",
          "name": "_addr",
          "type": "address"
        }
      ],
      "name": "add_runner",
      "outputs": [],
      "stateMutability": "nonpayable",
      "type": "function"
    },
    {
      "inputs": [
        {
          "internalType": "string",
          "name": "_userId",
          "type": "string"
        },
        {
          "internalType": "string",
          "name": "_gameId",
          "type": "string"
        },
        {
          "internalType": "string",
          "name": "_levelId",
          "type": "string"
        },
        {
          "internalType": "string",
          "name": "_runId",
          "type": "string"
        },
        {
          "internalType": "uint256",
          "name": "mark",
          "type": "uint256"
        }
      ],
      "name": "add_run",
      "outputs": [],
      "stateMutability": "nonpayable",
      "type": "function"
    },
    {
      "inputs": [
        {
          "internalType": "string",
          "name": "_userId",
          "type": "string"
        },
        {
          "internalType": "string",
          "name": "_gameId",
          "type": "string"
        },
        {
          "internalType": "string",
          "name": "_levelId",
          "type": "string"
        },
        {
          "internalType": "uint256",
          "name": "_mark",
          "type": "uint256"
        }
      ],
      "name": "passed_mark",
      "outputs": [
        {
          "internalType": "bool",
          "name": "",
          "type": "bool"
        }
      ],
      "stateMutability": "view",
      "type": "function",
      "constant": true
    },
    {
      "inputs": [
        {
          "internalType": "string",
          "name": "_userId",
          "type": "string"
        }
      ],
      "name": "runner_registered",
      "outputs": [
        {
          "internalType": "bool",
          "name": "",
          "type": "bool"
        }
      ],
      "stateMutability": "view",
      "type": "function",
      "constant": true
    },
    {
      "inputs": [
        {
          "internalType": "string",
          "name": "_userId",
          "type": "string"
        }
      ],
      "name": "get_runner_address",
      "outputs": [
        {
          "internalType": "address",
          "name": "",
          "type": "address"
        }
      ],
      "stateMutability": "view",
      "type": "function",
      "constant": true
    }
  ],
  "bytecode": "0x608060405234801561001057600080fd5b50611850806100206000396000f3fe608060405234801561001057600080fd5b506004361061007d5760003560e01c806348031e1e1161005b57806348031e1e14610103578063a89f90cf1461011f578063cc8ec2401461014f578063f1de7f201461017f5761007d565b8063272fd45c1461008257806337a00f4d146100b757806342e315ee146100e7575b600080fd5b61009c6004803603810190610097919061109e565b6101b2565b6040516100ae9695949392919061120b565b60405180910390f35b6100d160048036038101906100cc9190611288565b610494565b6040516100de91906112d1565b60405180910390f35b61010160048036038101906100fc91906113aa565b6104cb565b005b61011d6004803603810190610118919061143f565b610658565b005b6101396004803603810190610134919061153b565b610908565b60405161014691906112d1565b60405180910390f35b61016960048036038101906101649190611288565b610c8b565b6040516101769190611613565b60405180910390f35b61019960048036038101906101949190611288565b610ce8565b6040516101a9949392919061162e565b60405180910390f35b6001848051602081018201805184825260208301602085012081835280955050505050508380516020810182018051848252602083016020850120818352809550505050505082805160208101820180518482526020830160208501208183528095505050505050818154811061022857600080fd5b90600052602060002090600602016000935093505050508060000160009054906101000a900460ff1690806001018054610261906116b0565b80601f016020809104026020016040519081016040528092919081815260200182805461028d906116b0565b80156102da5780601f106102af576101008083540402835291602001916102da565b820191906000526020600020905b8154815290600101906020018083116102bd57829003601f168201915b5050505050908060020180546102ef906116b0565b80601f016020809104026020016040519081016040528092919081815260200182805461031b906116b0565b80156103685780601f1061033d57610100808354040283529160200191610368565b820191906000526020600020905b81548152906001019060200180831161034b57829003601f168201915b50505050509080600301805461037d906116b0565b80601f01602080910402602001604051908101604052809291908181526020018280546103a9906116b0565b80156103f65780601f106103cb576101008083540402835291602001916103f6565b820191906000526020600020905b8154815290600101906020018083116103d957829003601f168201915b505050505090806004015490806005018054610411906116b0565b80601f016020809104026020016040519081016040528092919081815260200182805461043d906116b0565b801561048a5780601f1061045f5761010080835404028352916020019161048a565b820191906000526020600020905b81548152906001019060200180831161046d57829003601f168201915b5050505050905086565b600080826040516104a5919061171e565b908152602001604051809103902060000160009054906101000a900460ff169050919050565b604051806080016040528060011515815260200186868080601f016020809104026020016040519081016040528093929190818152602001838380828437600081840152601f19601f82011690508083019250505050505050815260200184848080601f016020809104026020016040519081016040528093929190818152602001838380828437600081840152601f19601f8201169050808301925050505050505081526020018273ffffffffffffffffffffffffffffffffffffffff168152506000848460405161059f92919061175a565b908152602001604051809103902060008201518160000160006101000a81548160ff02191690831515021790555060208201518160010190805190602001906105e9929190610e6b565b506040820151816002019080519060200190610606929190610e6b565b5060608201518160030160006101000a81548173ffffffffffffffffffffffffffffffffffffffff021916908373ffffffffffffffffffffffffffffffffffffffff1602179055509050505050505050565b6000898960405161066a92919061175a565b908152602001604051809103902060000160009054906101000a900460ff1661069257600080fd5b600060018a8a6040516106a692919061175a565b908152602001604051809103902088886040516106c492919061175a565b908152602001604051809103902086866040516106e292919061175a565b90815260200160405180910390209050806040518060c001604052806001151581526020018a8a8080601f016020809104026020016040519081016040528093929190818152602001838380828437600081840152601f19601f82011690508083019250505050505050815260200188888080601f016020809104026020016040519081016040528093929190818152602001838380828437600081840152601f19601f82011690508083019250505050505050815260200186868080601f016020809104026020016040519081016040528093929190818152602001838380828437600081840152601f19601f8201169050808301925050505050505081526020018481526020018c8c8080601f016020809104026020016040519081016040528093929190818152602001838380828437600081840152601f19601f82011690508083019250505050505050815250908060018154018082558091505060019003906000526020600020906006020160009091909190915060008201518160000160006101000a81548160ff0219169083151502179055506020820151816001019080519060200190610898929190610e6b565b5060408201518160020190805190602001906108b5929190610e6b565b5060608201518160030190805190602001906108d2929190610e6b565b506080820151816004015560a08201518160050190805190602001906108f9929190610e6b565b50505050505050505050505050565b6000806001898960405161091d92919061175a565b9081526020016040518091039020878760405161093b92919061175a565b9081526020016040518091039020858560405161095992919061175a565b9081526020016040518091039020805480602002602001604051908101604052809291908181526020016000905b82821015610c2657838290600052602060002090600602016040518060c00160405290816000820160009054906101000a900460ff161515151581526020016001820180546109d5906116b0565b80601f0160208091040260200160405190810160405280929190818152602001828054610a01906116b0565b8015610a4e5780601f10610a2357610100808354040283529160200191610a4e565b820191906000526020600020905b815481529060010190602001808311610a3157829003601f168201915b50505050508152602001600282018054610a67906116b0565b80601f0160208091040260200160405190810160405280929190818152602001828054610a93906116b0565b8015610ae05780601f10610ab557610100808354040283529160200191610ae0565b820191906000526020600020905b815481529060010190602001808311610ac357829003601f168201915b50505050508152602001600382018054610af9906116b0565b80601f0160208091040260200160405190810160405280929190818152602001828054610b25906116b0565b8015610b725780601f10610b4757610100808354040283529160200191610b72565b820191906000526020600020905b815481529060010190602001808311610b5557829003601f168201915b5050505050815260200160048201548152602001600582018054610b95906116b0565b80601f0160208091040260200160405190810160405280929190818152602001828054610bc1906116b0565b8015610c0e5780601f10610be357610100808354040283529160200191610c0e565b820191906000526020600020905b815481529060010190602001808311610bf157829003601f168201915b50505050508152505081526020019060010190610987565b50505050905060005b8151811015610c795783828281518110610c4c57610c4b611773565b5b60200260200101516080015111610c6857600192505050610c80565b80610c72906117d1565b9050610c2f565b5060009150505b979650505050505050565b6000610c9682610494565b610c9f57600080fd5b600082604051610caf919061171e565b908152602001604051809103902060030160009054906101000a900473ffffffffffffffffffffffffffffffffffffffff169050919050565b6000818051602081018201805184825260208301602085012081835280955050505050506000915090508060000160009054906101000a900460ff1690806001018054610d34906116b0565b80601f0160208091040260200160405190810160405280929190818152602001828054610d60906116b0565b8015610dad5780601f10610d8257610100808354040283529160200191610dad565b820191906000526020600020905b815481529060010190602001808311610d9057829003601f168201915b505050505090806002018054610dc2906116b0565b80601f0160208091040260200160405190810160405280929190818152602001828054610dee906116b0565b8015610e3b5780601f10610e1057610100808354040283529160200191610e3b565b820191906000526020600020905b815481529060010190602001808311610e1e57829003601f168201915b5050505050908060030160009054906101000a900473ffffffffffffffffffffffffffffffffffffffff16905084565b828054610e77906116b0565b90600052602060002090601f016020900481019282610e995760008555610ee0565b82601f10610eb257805160ff1916838001178555610ee0565b82800160010185558215610ee0579182015b82811115610edf578251825591602001919060010190610ec4565b5b509050610eed9190610ef1565b5090565b5b80821115610f0a576000816000905550600101610ef2565b5090565b6000604051905090565b600080fd5b600080fd5b600080fd5b600080fd5b6000601f19601f8301169050919050565b7f4e487b7100000000000000000000000000000000000000000000000000000000600052604160045260246000fd5b610f7582610f2c565b810181811067ffffffffffffffff82111715610f9457610f93610f3d565b5b80604052505050565b6000610fa7610f0e565b9050610fb38282610f6c565b919050565b600067ffffffffffffffff821115610fd357610fd2610f3d565b5b610fdc82610f2c565b9050602081019050919050565b82818337600083830152505050565b600061100b61100684610fb8565b610f9d565b90508281526020810184848401111561102757611026610f27565b5b611032848285610fe9565b509392505050565b600082601f83011261104f5761104e610f22565b5b813561105f848260208601610ff8565b91505092915050565b6000819050919050565b61107b81611068565b811461108657600080fd5b50565b60008135905061109881611072565b92915050565b600080600080608085870312156110b8576110b7610f18565b5b600085013567ffffffffffffffff8111156110d6576110d5610f1d565b5b6110e28782880161103a565b945050602085013567ffffffffffffffff81111561110357611102610f1d565b5b61110f8782880161103a565b935050604085013567ffffffffffffffff8111156111305761112f610f1d565b5b61113c8782880161103a565b925050606061114d87828801611089565b91505092959194509250565b60008115159050919050565b61116e81611159565b82525050565b600081519050919050565b600082825260208201905092915050565b60005b838110156111ae578082015181840152602081019050611193565b838111156111bd576000848401525b50505050565b60006111ce82611174565b6111d8818561117f565b93506111e8818560208601611190565b6111f181610f2c565b840191505092915050565b61120581611068565b82525050565b600060c0820190506112206000830189611165565b818103602083015261123281886111c3565b9050818103604083015261124681876111c3565b9050818103606083015261125a81866111c3565b905061126960808301856111fc565b81810360a083015261127b81846111c3565b9050979650505050505050565b60006020828403121561129e5761129d610f18565b5b600082013567ffffffffffffffff8111156112bc576112bb610f1d565b5b6112c88482850161103a565b91505092915050565b60006020820190506112e66000830184611165565b92915050565b600080fd5b600080fd5b60008083601f84011261130c5761130b610f22565b5b8235905067ffffffffffffffff811115611329576113286112ec565b5b602083019150836001820283011115611345576113446112f1565b5b9250929050565b600073ffffffffffffffffffffffffffffffffffffffff82169050919050565b60006113778261134c565b9050919050565b6113878161136c565b811461139257600080fd5b50565b6000813590506113a48161137e565b92915050565b6000806000806000606086880312156113c6576113c5610f18565b5b600086013567ffffffffffffffff8111156113e4576113e3610f1d565b5b6113f0888289016112f6565b9550955050602086013567ffffffffffffffff81111561141357611412610f1d565b5b61141f888289016112f6565b9350935050604061143288828901611395565b9150509295509295909350565b600080600080600080600080600060a08a8c03121561146157611460610f18565b5b60008a013567ffffffffffffffff81111561147f5761147e610f1d565b5b61148b8c828d016112f6565b995099505060208a013567ffffffffffffffff8111156114ae576114ad610f1d565b5b6114ba8c828d016112f6565b975097505060408a013567ffffffffffffffff8111156114dd576114dc610f1d565b5b6114e98c828d016112f6565b955095505060608a013567ffffffffffffffff81111561150c5761150b610f1d565b5b6115188c828d016112f6565b9350935050608061152b8c828d01611089565b9150509295985092959850929598565b60008060008060008060006080888a03121561155a57611559610f18565b5b600088013567ffffffffffffffff81111561157857611577610f1d565b5b6115848a828b016112f6565b9750975050602088013567ffffffffffffffff8111156115a7576115a6610f1d565b5b6115b38a828b016112f6565b9550955050604088013567ffffffffffffffff8111156115d6576115d5610f1d565b5b6115e28a828b016112f6565b935093505060606115f58a828b01611089565b91505092959891949750929550565b61160d8161136c565b82525050565b60006020820190506116286000830184611604565b92915050565b60006080820190506116436000830187611165565b818103602083015261165581866111c3565b9050818103604083015261166981856111c3565b90506116786060830184611604565b95945050505050565b7f4e487b7100000000000000000000000000000000000000000000000000000000600052602260045260246000fd5b600060028204905060018216806116c857607f821691505b602082108114156116dc576116db611681565b5b50919050565b600081905092915050565b60006116f882611174565b61170281856116e2565b9350611712818560208601611190565b80840191505092915050565b600061172a82846116ed565b915081905092915050565b600061174183856116e2565b935061174e838584610fe9565b82840190509392505050565b6000611767828486611735565b91508190509392505050565b7f4e487b7100000000000000000000000000000000000000000000000000000000600052603260045260246000fd5b7f4e487b7100000000000000000000000000000000000000000000000000000000600052601160045260246000fd5b60006117dc82611068565b91507fffffffffffffffffffffffffffffffffffffffffffffffffffffffffffffffff82141561180f5761180e6117a2565b5b60018201905091905056fea26469706673582212208e147c8d4d3c3814d8024f0f4b251753b08cd9fddfce8f1ea7cf7289cc43870464736f6c63430008090033",
  "immutableReferences": {},
  "source": "// SPDX-License-Identifier: GPL-3.0\npragma solidity ^0.8.9;\n\nimport \"./ISpeedRunRepo.sol\";\n\n/// @title A stub repository of data from Speedrun.com\n/// @author msicilia.eth\n/// @notice This is a stub, dummy implementation for testing. No Oracles are used, so it is permitted to enter arbitrary data\ncontract SpeedRunRepo_Stub is ISpeedRunRepo {\n\n    // Runners registered succesfully:\n    mapping (string => SpeedRunner) public runners;\n    // Runs registered succesfully:\n    mapping (string => mapping (string => mapping (string => Run[]))) public runs; \n\n    /// @dev Note this naive implementation allows anybody to steal the prizes of others by simply \n    ///     registering again to other address. See the oraclized version for a more realistic use case.\n     function add_runner(string calldata _userName, string calldata _userId, address _addr) external{\n        runners[_userId] = SpeedRunner(true, _userName, _userId, _addr);\n    }\n\n    function add_run(string calldata _userId, string calldata _gameId, string calldata _levelId, string calldata _runId, uint mark) external {\n        require(runners[_userId].isRunner);\n        Run[] storage user_runs = runs[_userId][_gameId][_levelId];\n        user_runs.push(Run(true, _gameId, _levelId, _runId, mark, _userId));\n    }\n\n    /// @param _userId The SppedRun.com `userId` being queried.\n    /// @param _gameId The id of the game.\n    /// @param _levelId The id of the level of the game.\n    /// @param _mark The time ckeched. \n    /// @return `true` if there is verified evidence in the repo that the user has a mark equal or better than `mark`.\n    /// @notice It returns `false` if no evidence found (but it might be that such evidence is yet at SpeedRun.com)\n    function passed_mark(string calldata _userId, string calldata _gameId, string calldata _levelId, uint _mark) override external view returns (bool){\n        Run[] memory user_runs = runs[_userId][_gameId][_levelId];\n        for (uint256 i = 0; i < user_runs.length; ++i) {\n            if (user_runs[i].primaryTime <= _mark)\n                return true;\n        }\n        return false;\n    }\n    function runner_registered(string memory _userId) public view returns (bool){\n        return runners[_userId].isRunner;\n     }\n\n     function get_runner_address(string memory _userId) override external view returns (address){\n         require(runner_registered(_userId));\n         return runners[_userId].addr;\n     }\n}\n  ",
  "sourcePath": "/Users/msicilia/Desktop/dev/lrn/consensys/blockchain-developer-bootcamp-final-project/contracts/SpeedRunRepoStub.sol",
  "compiler": {
    "name": "solc",
    "version": "0.8.9+commit.e5eed63a.Emscripten.clang"
  },
  "schemaVersion": "3.3.3",
  "updatedAt": "2022-01-14T14:16:12.566Z",
  "networkType": "ethereum",
  "devdoc": {
    "author": "msicilia.eth",
    "kind": "dev",
    "methods": {
      "add_run(string,string,string,string,uint256)": {
        "params": {
          "_gameId": "The id of the game.",
          "_levelId": "The id of the level of the game.",
          "_runId": "The id of the run for that level of the game.",
          "_userId": "Speedrunner id.",
          "mark": "The time recorded for that run"
        }
      },
      "add_runner(string,string,address)": {
        "details": "Note this naive implementation allows anybody to steal the prizes of others by simply      registering again to other address. See the oraclized version for a more realistic use case."
      },
      "passed_mark(string,string,string,uint256)": {
        "params": {
          "_gameId": "The id of the game.",
          "_levelId": "The id of the level of the game.",
          "_mark": "The time ckeched. ",
          "_userId": "The SppedRun.com `userId` being queried."
        },
        "returns": {
          "_0": "`true` if there is verified evidence in the repo that the user has a mark equal or better than `mark`."
        }
      }
    },
    "title": "A stub repository of data from Speedrun.com",
    "version": 1
  },
  "userdoc": {
    "kind": "user",
    "methods": {
      "passed_mark(string,string,string,uint256)": {
        "notice": "It returns `false` if no evidence found (but it might be that such evidence is yet at SpeedRun.com)"
      }
    },
    "notice": "This is a stub, dummy implementation for testing. No Oracles are used, so it is permitted to enter arbitrary data",
    "version": 1
  }
}