{
  "contractName": "SpeedRunRepo_Stub",
  "abi": [
    {
      "inputs": [
        {
          "internalType": "string",
          "name": "",
          "type": "string"
        }
      ],
      "name": "runners",
      "outputs": [
        {
          "internalType": "string",
          "name": "userName",
          "type": "string"
        },
        {
          "internalType": "string",
          "name": "userId",
          "type": "string"
        },
        {
          "internalType": "address",
          "name": "addr",
          "type": "address"
        }
      ],
      "stateMutability": "view",
      "type": "function",
      "constant": true
    },
    {
      "inputs": [
        {
          "internalType": "string",
          "name": "_userName",
          "type": "string"
        },
        {
          "internalType": "string",
          "name": "_userId",
          "type": "string"
        },
        {
          "internalType": "address",
          "name": "_addr",
          "type": "address"
        }
      ],
      "name": "add_runner",
      "outputs": [],
      "stateMutability": "nonpayable",
      "type": "function"
    },
    {
      "inputs": [
        {
          "internalType": "string",
          "name": "_userId",
          "type": "string"
        },
        {
          "internalType": "string",
          "name": "_gameId",
          "type": "string"
        },
        {
          "internalType": "string",
          "name": "_levelId",
          "type": "string"
        },
        {
          "internalType": "uint256",
          "name": "mark",
          "type": "uint256"
        }
      ],
      "name": "add_run",
      "outputs": [],
      "stateMutability": "nonpayable",
      "type": "function"
    },
    {
      "inputs": [
        {
          "internalType": "string",
          "name": "userId",
          "type": "string"
        },
        {
          "internalType": "string",
          "name": "gameId",
          "type": "string"
        },
        {
          "internalType": "string",
          "name": "levelId",
          "type": "string"
        },
        {
          "internalType": "uint256",
          "name": "mark",
          "type": "uint256"
        }
      ],
      "name": "passed_mark",
      "outputs": [
        {
          "internalType": "bool",
          "name": "",
          "type": "bool"
        }
      ],
      "stateMutability": "view",
      "type": "function",
      "constant": true
    },
    {
      "inputs": [
        {
          "internalType": "string",
          "name": "_userId",
          "type": "string"
        }
      ],
      "name": "runner_registered",
      "outputs": [
        {
          "internalType": "bool",
          "name": "",
          "type": "bool"
        }
      ],
      "stateMutability": "view",
      "type": "function",
      "constant": true
    }
  ],
  "bytecode": "0x608060405234801561001057600080fd5b50610bb6806100206000396000f3fe608060405234801561001057600080fd5b50600436106100575760003560e01c806310d496041461005c57806337a00f4d1461007857806342e315ee146100a8578063a89f90cf146100c4578063f1de7f20146100f4575b600080fd5b61007660048036038101906100719190610636565b610126565b005b610092600480360381019061008d9190610840565b61012f565b60405161009f91906108a4565b60405180910390f35b6100c260048036038101906100bd919061091d565b6101a9565b005b6100de60048036038101906100d99190610636565b61030d565b6040516100eb91906108a4565b60405180910390f35b61010e60048036038101906101099190610840565b610374565b60405161011d93929190610a49565b60405180910390f35b50505050505050565b60008073ffffffffffffffffffffffffffffffffffffffff166000836040516101589190610aca565b908152602001604051809103902060020160009054906101000a900473ffffffffffffffffffffffffffffffffffffffff1673ffffffffffffffffffffffffffffffffffffffff1614159050919050565b604051806060016040528086868080601f016020809104026020016040519081016040528093929190818152602001838380828437600081840152601f19601f82011690508083019250505050505050815260200184848080601f016020809104026020016040519081016040528093929190818152602001838380828437600081840152601f19601f8201169050808301925050505050505081526020018273ffffffffffffffffffffffffffffffffffffffff1681525060008484604051610274929190610b06565b9081526020016040518091039020600082015181600001908051906020019061029e9291906104e4565b5060208201518160010190805190602001906102bb9291906104e4565b5060408201518160020160006101000a81548173ffffffffffffffffffffffffffffffffffffffff021916908373ffffffffffffffffffffffffffffffffffffffff1602179055509050505050505050565b600061035c88888080601f016020809104026020016040519081016040528093929190818152602001838380828437600081840152601f19601f8201169050808301925050505050505061012f565b61036557600080fd5b60019050979650505050505050565b6000818051602081018201805184825260208301602085012081835280955050505050506000915090508060000180546103ad90610b4e565b80601f01602080910402602001604051908101604052809291908181526020018280546103d990610b4e565b80156104265780601f106103fb57610100808354040283529160200191610426565b820191906000526020600020905b81548152906001019060200180831161040957829003601f168201915b50505050509080600101805461043b90610b4e565b80601f016020809104026020016040519081016040528092919081815260200182805461046790610b4e565b80156104b45780601f10610489576101008083540402835291602001916104b4565b820191906000526020600020905b81548152906001019060200180831161049757829003601f168201915b5050505050908060020160009054906101000a900473ffffffffffffffffffffffffffffffffffffffff16905083565b8280546104f090610b4e565b90600052602060002090601f0160209004810192826105125760008555610559565b82601f1061052b57805160ff1916838001178555610559565b82800160010185558215610559579182015b8281111561055857825182559160200191906001019061053d565b5b509050610566919061056a565b5090565b5b8082111561058357600081600090555060010161056b565b5090565b6000604051905090565b600080fd5b600080fd5b600080fd5b600080fd5b600080fd5b60008083601f8401126105c0576105bf61059b565b5b8235905067ffffffffffffffff8111156105dd576105dc6105a0565b5b6020830191508360018202830111156105f9576105f86105a5565b5b9250929050565b6000819050919050565b61061381610600565b811461061e57600080fd5b50565b6000813590506106308161060a565b92915050565b60008060008060008060006080888a03121561065557610654610591565b5b600088013567ffffffffffffffff81111561067357610672610596565b5b61067f8a828b016105aa565b9750975050602088013567ffffffffffffffff8111156106a2576106a1610596565b5b6106ae8a828b016105aa565b9550955050604088013567ffffffffffffffff8111156106d1576106d0610596565b5b6106dd8a828b016105aa565b935093505060606106f08a828b01610621565b91505092959891949750929550565b600080fd5b6000601f19601f8301169050919050565b7f4e487b7100000000000000000000000000000000000000000000000000000000600052604160045260246000fd5b61074d82610704565b810181811067ffffffffffffffff8211171561076c5761076b610715565b5b80604052505050565b600061077f610587565b905061078b8282610744565b919050565b600067ffffffffffffffff8211156107ab576107aa610715565b5b6107b482610704565b9050602081019050919050565b82818337600083830152505050565b60006107e36107de84610790565b610775565b9050828152602081018484840111156107ff576107fe6106ff565b5b61080a8482856107c1565b509392505050565b600082601f8301126108275761082661059b565b5b81356108378482602086016107d0565b91505092915050565b60006020828403121561085657610855610591565b5b600082013567ffffffffffffffff81111561087457610873610596565b5b61088084828501610812565b91505092915050565b60008115159050919050565b61089e81610889565b82525050565b60006020820190506108b96000830184610895565b92915050565b600073ffffffffffffffffffffffffffffffffffffffff82169050919050565b60006108ea826108bf565b9050919050565b6108fa816108df565b811461090557600080fd5b50565b600081359050610917816108f1565b92915050565b60008060008060006060868803121561093957610938610591565b5b600086013567ffffffffffffffff81111561095757610956610596565b5b610963888289016105aa565b9550955050602086013567ffffffffffffffff81111561098657610985610596565b5b610992888289016105aa565b935093505060406109a588828901610908565b9150509295509295909350565b600081519050919050565b600082825260208201905092915050565b60005b838110156109ec5780820151818401526020810190506109d1565b838111156109fb576000848401525b50505050565b6000610a0c826109b2565b610a1681856109bd565b9350610a268185602086016109ce565b610a2f81610704565b840191505092915050565b610a43816108df565b82525050565b60006060820190508181036000830152610a638186610a01565b90508181036020830152610a778185610a01565b9050610a866040830184610a3a565b949350505050565b600081905092915050565b6000610aa4826109b2565b610aae8185610a8e565b9350610abe8185602086016109ce565b80840191505092915050565b6000610ad68284610a99565b915081905092915050565b6000610aed8385610a8e565b9350610afa8385846107c1565b82840190509392505050565b6000610b13828486610ae1565b91508190509392505050565b7f4e487b7100000000000000000000000000000000000000000000000000000000600052602260045260246000fd5b60006002820490506001821680610b6657607f821691505b60208210811415610b7a57610b79610b1f565b5b5091905056fea2646970667358221220f433200939ed22bdfc05ac066afd97b7489118af9532aa3b5792807364f66b6964736f6c634300080a0033",
  "immutableReferences": {},
  "source": "// SPDX-License-Identifier: GPL-3.0\npragma solidity ^0.8.10;\n\nimport \"./ISpeedRunRepo.sol\";\n\n/// @title A stub repository of data from Speedrun.com\n/// @author msicilia.eth\n/// @notice This is a stub, dummy implementation for testing. No Oracles are used, so it is permitted to enter arbitrary data\ncontract SpeedRunRepo_Stub is ISpeedRunRepo {\n\n    mapping (string => SpeedRunner) public runners;\n    mapping (string => mapping (string => mapping (string => Run))) runs; \n\n    /// @dev Note this naive implementation allows anybody to steal the prizes of others by simply \n    ///      registering again to other address. See the oraclized version for a more realistic use case.\n     function add_runner(string calldata _userName, string calldata _userId, address _addr) external{\n        runners[_userId] = SpeedRunner(_userName, _userId, _addr);\n    }\n\n    function add_run(string calldata _userId, string calldata _gameId, string calldata _levelId, uint mark) external {\n        //user_runs = runs[_userId][_gameId];\n        // user_runs.push(Run(_gameId, _levelId, _runId, mark, _userId));\n    }\n    /// @param userId The SppedRum.com `userId` being queried.\n    /// @param gameId The id of the game.\n    /// @param levelId The id of the level of the game.\n    /// @param mark The time ckeched. \n    /// @return `true` if there is verified evidence in the repo that the user has a mark equal or better than `mark`.\n    /// @notice It returns `false` if no evidence found (but it might be that such evidence is yet at SpeedRun.com)\n    function passed_mark(string calldata userId, string calldata gameId, string calldata levelId, uint mark) override external view returns (bool){\n        require(runner_registered(userId));\n        return true;\n    }\n    function runner_registered(string memory _userId) public view returns (bool){\n        return runners[_userId].addr != address(0x0);\n     }\n}\n  ",
  "sourcePath": "/Users/msicilia/Desktop/dev/lrn/consensys/blockchain-developer-bootcamp-final-project/contracts/SpeedRunRepoStub.sol",
  "compiler": {
    "name": "solc",
    "version": "0.8.10+commit.fc410830.Emscripten.clang"
  },
  "schemaVersion": "3.4.3",
  "updatedAt": "2021-11-25T13:35:25.113Z",
  "networkType": "ethereum",
  "devdoc": {
    "author": "msicilia.eth",
    "kind": "dev",
    "methods": {
      "add_runner(string,string,address)": {
        "details": "Note this naive implementation allows anybody to steal the prizes of others by simply       registering again to other address. See the oraclized version for a more realistic use case."
      },
      "passed_mark(string,string,string,uint256)": {
        "params": {
          "gameId": "The id of the game.",
          "levelId": "The id of the level of the game.",
          "mark": "The time ckeched. ",
          "userId": "The SppedRum.com `userId` being queried."
        },
        "returns": {
          "_0": "`true` if there is verified evidence in the repo that the user has a mark equal or better than `mark`."
        }
      }
    },
    "title": "A stub repository of data from Speedrun.com",
    "version": 1
  },
  "userdoc": {
    "kind": "user",
    "methods": {
      "passed_mark(string,string,string,uint256)": {
        "notice": "It returns `false` if no evidence found (but it might be that such evidence is yet at SpeedRun.com)"
      }
    },
    "notice": "This is a stub, dummy implementation for testing. No Oracles are used, so it is permitted to enter arbitrary data",
    "version": 1
  }
}