{
  "contractName": "StraightForwardMotivator",
  "abi": [
    {
      "inputs": [
        {
          "internalType": "address",
          "name": "_speedRunRepo",
          "type": "address"
        }
      ],
      "stateMutability": "nonpayable",
      "type": "constructor"
    },
    {
      "anonymous": false,
      "inputs": [
        {
          "indexed": false,
          "internalType": "string",
          "name": "challengeId",
          "type": "string"
        },
        {
          "indexed": true,
          "internalType": "string",
          "name": "userId",
          "type": "string"
        },
        {
          "indexed": true,
          "internalType": "string",
          "name": "gameId",
          "type": "string"
        },
        {
          "indexed": true,
          "internalType": "string",
          "name": "levelId",
          "type": "string"
        },
        {
          "indexed": false,
          "internalType": "uint256",
          "name": "time",
          "type": "uint256"
        },
        {
          "indexed": false,
          "internalType": "uint256",
          "name": "prize",
          "type": "uint256"
        }
      ],
      "name": "ChallengePlaced",
      "type": "event"
    },
    {
      "anonymous": false,
      "inputs": [
        {
          "indexed": true,
          "internalType": "address",
          "name": "previousOwner",
          "type": "address"
        },
        {
          "indexed": true,
          "internalType": "address",
          "name": "newOwner",
          "type": "address"
        }
      ],
      "name": "OwnershipTransferred",
      "type": "event"
    },
    {
      "inputs": [],
      "name": "owner",
      "outputs": [
        {
          "internalType": "address",
          "name": "",
          "type": "address"
        }
      ],
      "stateMutability": "view",
      "type": "function"
    },
    {
      "inputs": [
        {
          "internalType": "string",
          "name": "_userId",
          "type": "string"
        },
        {
          "internalType": "string",
          "name": "_gameId",
          "type": "string"
        },
        {
          "internalType": "string",
          "name": "_levelId",
          "type": "string"
        },
        {
          "internalType": "uint256",
          "name": "_time",
          "type": "uint256"
        },
        {
          "internalType": "string",
          "name": "_challengeId",
          "type": "string"
        }
      ],
      "name": "place_challenge",
      "outputs": [],
      "stateMutability": "payable",
      "type": "function"
    },
    {
      "inputs": [],
      "name": "return_funds_and_destroy",
      "outputs": [],
      "stateMutability": "nonpayable",
      "type": "function"
    },
    {
      "inputs": [
        {
          "internalType": "address",
          "name": "newOwner",
          "type": "address"
        }
      ],
      "name": "transferOwnership",
      "outputs": [],
      "stateMutability": "nonpayable",
      "type": "function"
    },
    {
      "inputs": [
        {
          "internalType": "string",
          "name": "_challengeId",
          "type": "string"
        }
      ],
      "name": "reclaim_prize",
      "outputs": [],
      "stateMutability": "nonpayable",
      "type": "function"
    }
  ],
  "bytecode": "0x60806040523480156200001157600080fd5b50604051620015c2380380620015c2833981810160405281019062000037919062000201565b806200004933620000d360201b60201c565b80600260006101000a81548173ffffffffffffffffffffffffffffffffffffffff021916908373ffffffffffffffffffffffffffffffffffffffff16021790555080600360006101000a81548173ffffffffffffffffffffffffffffffffffffffff021916908373ffffffffffffffffffffffffffffffffffffffff160217905550505062000233565b60008060009054906101000a900473ffffffffffffffffffffffffffffffffffffffff169050816000806101000a81548173ffffffffffffffffffffffffffffffffffffffff021916908373ffffffffffffffffffffffffffffffffffffffff1602179055508173ffffffffffffffffffffffffffffffffffffffff168173ffffffffffffffffffffffffffffffffffffffff167f8be0079c531659141344cd1fd0a4f28419497f9722a3daafe3b4186f6b6457e060405160405180910390a35050565b600080fd5b600073ffffffffffffffffffffffffffffffffffffffff82169050919050565b6000620001c9826200019c565b9050919050565b620001db81620001bc565b8114620001e757600080fd5b50565b600081519050620001fb81620001d0565b92915050565b6000602082840312156200021a576200021962000197565b5b60006200022a84828501620001ea565b91505092915050565b61137f80620002436000396000f3fe60806040526004361061004a5760003560e01c80638da5cb5b1461004f5780639d84184e1461007a578063a05b483014610096578063f2fde38b146100bf578063fcad79a3146100e8575b600080fd5b34801561005b57600080fd5b506100646100ff565b6040516100719190610b60565b60405180910390f35b610094600480360381019061008f9190610c20565b610128565b005b3480156100a257600080fd5b506100bd60048036038101906100b89190610d1c565b6104b8565b005b3480156100cb57600080fd5b506100e660048036038101906100e19190610d95565b610850565b005b3480156100f457600080fd5b506100fd610941565b005b60008060009054906101000a900473ffffffffffffffffffffffffffffffffffffffff16905090565b6000341161016b576040517f08c379a000000000000000000000000000000000000000000000000000000000815260040161016290610e45565b60405180910390fd5b600083116101ae576040517f08c379a00000000000000000000000000000000000000000000000000000000081526004016101a590610ed7565b60405180910390fd5b6000600183836040516101c2929190610f36565b9081526020016040518091039020600301541415610215576040517f08c379a000000000000000000000000000000000000000000000000000000000815260040161020c90610f9b565b60405180910390fd5b60006040518060e001604052808b8b8080601f016020809104026020016040519081016040528093929190818152602001838380828437600081840152601f19601f82011690508083019250505050505050815260200189898080601f016020809104026020016040519081016040528093929190818152602001838380828437600081840152601f19601f82011690508083019250505050505050815260200187878080601f016020809104026020016040519081016040528093929190818152602001838380828437600081840152601f19601f8201169050808301925050505050505081526020018581526020013481526020016000151581526020013373ffffffffffffffffffffffffffffffffffffffff1681525090508060018484604051610344929190610f36565b9081526020016040518091039020600082015181600001908051906020019061036e929190610a7c565b50602082015181600101908051906020019061038b929190610a7c565b5060408201518160020190805190602001906103a8929190610a7c565b50606082015181600301556080820151816004015560a08201518160050160006101000a81548160ff02191690831515021790555060c08201518160050160016101000a81548173ffffffffffffffffffffffffffffffffffffffff021916908373ffffffffffffffffffffffffffffffffffffffff1602179055509050508585604051610437929190610f36565b6040518091039020888860405161044f929190610f36565b60405180910390208b8b604051610467929190610f36565b60405180910390207f02d4a23443fa9e2bb76ff5d837fba7cbeb69d3e769f8ab702bebe244e67df869868689346040516104a49493929190611008565b60405180910390a450505050505050505050565b6000600183836040516104cc929190610f36565b908152602001604051809103902060030154141561051f576040517f08c379a000000000000000000000000000000000000000000000000000000000815260040161051690611094565b60405180910390fd5b600060018383604051610533929190610f36565b90815260200160405180910390206040518060e001604052908160008201805461055c906110e3565b80601f0160208091040260200160405190810160405280929190818152602001828054610588906110e3565b80156105d55780601f106105aa576101008083540402835291602001916105d5565b820191906000526020600020905b8154815290600101906020018083116105b857829003601f168201915b505050505081526020016001820180546105ee906110e3565b80601f016020809104026020016040519081016040528092919081815260200182805461061a906110e3565b80156106675780601f1061063c57610100808354040283529160200191610667565b820191906000526020600020905b81548152906001019060200180831161064a57829003601f168201915b50505050508152602001600282018054610680906110e3565b80601f01602080910402602001604051908101604052809291908181526020018280546106ac906110e3565b80156106f95780601f106106ce576101008083540402835291602001916106f9565b820191906000526020600020905b8154815290600101906020018083116106dc57829003601f168201915b5050505050815260200160038201548152602001600482015481526020016005820160009054906101000a900460ff161515151581526020016005820160019054906101000a900473ffffffffffffffffffffffffffffffffffffffff1673ffffffffffffffffffffffffffffffffffffffff1673ffffffffffffffffffffffffffffffffffffffff16815250509050600360009054906101000a900473ffffffffffffffffffffffffffffffffffffffff1673ffffffffffffffffffffffffffffffffffffffff1663a89f90cf82600001518360200151846040015185606001516040518563ffffffff1660e01b81526004016107fa949392919061118c565b60206040518083038186803b15801561081257600080fd5b505afa158015610826573d6000803e3d6000fd5b505050506040513d601f19601f8201168201806040525081019061084a919061121e565b50505050565b3373ffffffffffffffffffffffffffffffffffffffff1661086f6100ff565b73ffffffffffffffffffffffffffffffffffffffff16146108c5576040517f08c379a00000000000000000000000000000000000000000000000000000000081526004016108bc90611297565b60405180910390fd5b600073ffffffffffffffffffffffffffffffffffffffff168173ffffffffffffffffffffffffffffffffffffffff161415610935576040517f08c379a000000000000000000000000000000000000000000000000000000000815260040161092c90611329565b60405180910390fd5b61093e816109b8565b50565b3373ffffffffffffffffffffffffffffffffffffffff166109606100ff565b73ffffffffffffffffffffffffffffffffffffffff16146109b6576040517f08c379a00000000000000000000000000000000000000000000000000000000081526004016109ad90611297565b60405180910390fd5b565b60008060009054906101000a900473ffffffffffffffffffffffffffffffffffffffff169050816000806101000a81548173ffffffffffffffffffffffffffffffffffffffff021916908373ffffffffffffffffffffffffffffffffffffffff1602179055508173ffffffffffffffffffffffffffffffffffffffff168173ffffffffffffffffffffffffffffffffffffffff167f8be0079c531659141344cd1fd0a4f28419497f9722a3daafe3b4186f6b6457e060405160405180910390a35050565b828054610a88906110e3565b90600052602060002090601f016020900481019282610aaa5760008555610af1565b82601f10610ac357805160ff1916838001178555610af1565b82800160010185558215610af1579182015b82811115610af0578251825591602001919060010190610ad5565b5b509050610afe9190610b02565b5090565b5b80821115610b1b576000816000905550600101610b03565b5090565b600073ffffffffffffffffffffffffffffffffffffffff82169050919050565b6000610b4a82610b1f565b9050919050565b610b5a81610b3f565b82525050565b6000602082019050610b756000830184610b51565b92915050565b600080fd5b600080fd5b600080fd5b600080fd5b600080fd5b60008083601f840112610baa57610ba9610b85565b5b8235905067ffffffffffffffff811115610bc757610bc6610b8a565b5b602083019150836001820283011115610be357610be2610b8f565b5b9250929050565b6000819050919050565b610bfd81610bea565b8114610c0857600080fd5b50565b600081359050610c1a81610bf4565b92915050565b600080600080600080600080600060a08a8c031215610c4257610c41610b7b565b5b60008a013567ffffffffffffffff811115610c6057610c5f610b80565b5b610c6c8c828d01610b94565b995099505060208a013567ffffffffffffffff811115610c8f57610c8e610b80565b5b610c9b8c828d01610b94565b975097505060408a013567ffffffffffffffff811115610cbe57610cbd610b80565b5b610cca8c828d01610b94565b95509550506060610cdd8c828d01610c0b565b93505060808a013567ffffffffffffffff811115610cfe57610cfd610b80565b5b610d0a8c828d01610b94565b92509250509295985092959850929598565b60008060208385031215610d3357610d32610b7b565b5b600083013567ffffffffffffffff811115610d5157610d50610b80565b5b610d5d85828601610b94565b92509250509250929050565b610d7281610b3f565b8114610d7d57600080fd5b50565b600081359050610d8f81610d69565b92915050565b600060208284031215610dab57610daa610b7b565b5b6000610db984828501610d80565b91505092915050565b600082825260208201905092915050565b7f4368616c6c656e676573206e65656420746f2070726f766964652066756e647360008201527f20666f7220726577617264696e6720737065656472756e6e6572730000000000602082015250565b6000610e2f603b83610dc2565b9150610e3a82610dd3565b604082019050919050565b60006020820190508181036000830152610e5e81610e22565b9050919050565b7f5468652074696d65206f6620746865206368616c6c656e6765206e656564732060008201527f746f2062652067726561746572207468616e207a65726f2e0000000000000000602082015250565b6000610ec1603883610dc2565b9150610ecc82610e65565b604082019050919050565b60006020820190508181036000830152610ef081610eb4565b9050919050565b600081905092915050565b82818337600083830152505050565b6000610f1d8385610ef7565b9350610f2a838584610f02565b82840190509392505050565b6000610f43828486610f11565b91508190509392505050565b7f4368616c6c656e6765496420616c726561647920757365642e00000000000000600082015250565b6000610f85601983610dc2565b9150610f9082610f4f565b602082019050919050565b60006020820190508181036000830152610fb481610f78565b9050919050565b6000601f19601f8301169050919050565b6000610fd88385610dc2565b9350610fe5838584610f02565b610fee83610fbb565b840190509392505050565b61100281610bea565b82525050565b60006060820190508181036000830152611023818688610fcc565b90506110326020830185610ff9565b61103f6040830184610ff9565b95945050505050565b7f4368616c6c656e67654964206e6f7420666f756e642e00000000000000000000600082015250565b600061107e601683610dc2565b915061108982611048565b602082019050919050565b600060208201905081810360008301526110ad81611071565b9050919050565b7f4e487b7100000000000000000000000000000000000000000000000000000000600052602260045260246000fd5b600060028204905060018216806110fb57607f821691505b6020821081141561110f5761110e6110b4565b5b50919050565b600081519050919050565b60005b8381101561113e578082015181840152602081019050611123565b8381111561114d576000848401525b50505050565b600061115e82611115565b6111688185610dc2565b9350611178818560208601611120565b61118181610fbb565b840191505092915050565b600060808201905081810360008301526111a68187611153565b905081810360208301526111ba8186611153565b905081810360408301526111ce8185611153565b90506111dd6060830184610ff9565b95945050505050565b60008115159050919050565b6111fb816111e6565b811461120657600080fd5b50565b600081519050611218816111f2565b92915050565b60006020828403121561123457611233610b7b565b5b600061124284828501611209565b91505092915050565b7f4f776e61626c653a2063616c6c6572206973206e6f7420746865206f776e6572600082015250565b6000611281602083610dc2565b915061128c8261124b565b602082019050919050565b600060208201905081810360008301526112b081611274565b9050919050565b7f4f776e61626c653a206e6577206f776e657220697320746865207a65726f206160008201527f6464726573730000000000000000000000000000000000000000000000000000602082015250565b6000611313602683610dc2565b915061131e826112b7565b604082019050919050565b6000602082019050818103600083015261134281611306565b905091905056fea264697066735822122005e14df0ef5a072b3b1cdfe43de5f9b2d3f280d26f0501caf7f9d40ce88f288d64736f6c63430008090033",
  "immutableReferences": {},
  "source": "// SPDX-License-Identifier: GPL-3.0\npragma solidity ^0.8.9;\n\nimport \"./MotivatorBase.sol\";\n\n/// @title A barebones motivator, that simply sends the amounts on the challenges to the speedrunner on reclaim.\n/// @author msicilia.eth\n\ncontract StraightForwardMotivator is MotivatorBase{\n    constructor(address _speedRunRepo) MotivatorBase(_speedRunRepo) {}\n\n    function reclaim_prize(string calldata _challengeId) external override {\n        require(challenges[_challengeId].time != 0, \"ChallengeId not found.\");\n        Challenge memory ch = challenges[_challengeId];\n        if (repo.passed_mark(ch.userId, ch.gameId, ch.levelId, ch.time)){\n            // repo.getUserAddress(ch.userId);  ... and send the money\n        }\n    }\n}",
  "sourcePath": "/Users/msicilia/Desktop/dev/lrn/consensys/blockchain-developer-bootcamp-final-project/contracts/StraightForwardMotivator.sol",
  "compiler": {
    "name": "solc",
    "version": "0.8.9+commit.e5eed63a.Emscripten.clang"
  },
  "schemaVersion": "3.3.3",
  "updatedAt": "2022-01-11T17:53:15.155Z",
  "devdoc": {
    "author": "msicilia.eth",
    "kind": "dev",
    "methods": {
      "owner()": {
        "details": "Returns the address of the current owner."
      },
      "transferOwnership(address)": {
        "details": "Transfers ownership of the contract to a new account (`newOwner`). Can only be called by the current owner."
      }
    },
    "title": "A barebones motivator, that simply sends the amounts on the challenges to the speedrunner on reclaim.",
    "version": 1
  },
  "userdoc": {
    "kind": "user",
    "methods": {},
    "version": 1
  }
}