{
  "contractName": "StraightForwardMotivator",
  "abi": [
    {
      "inputs": [
        {
          "internalType": "address",
          "name": "_speedRunRepo",
          "type": "address"
        }
      ],
      "stateMutability": "nonpayable",
      "type": "constructor"
    },
    {
      "anonymous": false,
      "inputs": [
        {
          "indexed": false,
          "internalType": "string",
          "name": "challengeId",
          "type": "string"
        },
        {
          "indexed": true,
          "internalType": "string",
          "name": "userId",
          "type": "string"
        },
        {
          "indexed": true,
          "internalType": "string",
          "name": "gameId",
          "type": "string"
        },
        {
          "indexed": true,
          "internalType": "string",
          "name": "levelId",
          "type": "string"
        },
        {
          "indexed": false,
          "internalType": "uint256",
          "name": "time",
          "type": "uint256"
        },
        {
          "indexed": false,
          "internalType": "uint256",
          "name": "prize",
          "type": "uint256"
        }
      ],
      "name": "ChallengePlaced",
      "type": "event"
    },
    {
      "anonymous": false,
      "inputs": [
        {
          "indexed": true,
          "internalType": "address",
          "name": "previousOwner",
          "type": "address"
        },
        {
          "indexed": true,
          "internalType": "address",
          "name": "newOwner",
          "type": "address"
        }
      ],
      "name": "OwnershipTransferred",
      "type": "event"
    },
    {
      "inputs": [],
      "name": "owner",
      "outputs": [
        {
          "internalType": "address",
          "name": "",
          "type": "address"
        }
      ],
      "stateMutability": "view",
      "type": "function",
      "constant": true
    },
    {
      "inputs": [
        {
          "internalType": "string",
          "name": "_userId",
          "type": "string"
        },
        {
          "internalType": "string",
          "name": "_gameId",
          "type": "string"
        },
        {
          "internalType": "string",
          "name": "_levelId",
          "type": "string"
        },
        {
          "internalType": "uint256",
          "name": "_time",
          "type": "uint256"
        },
        {
          "internalType": "string",
          "name": "_challengeId",
          "type": "string"
        }
      ],
      "name": "place_challenge",
      "outputs": [],
      "stateMutability": "payable",
      "type": "function",
      "payable": true
    },
    {
      "inputs": [],
      "name": "return_funds_and_destroy",
      "outputs": [],
      "stateMutability": "nonpayable",
      "type": "function"
    },
    {
      "inputs": [
        {
          "internalType": "address",
          "name": "newOwner",
          "type": "address"
        }
      ],
      "name": "transferOwnership",
      "outputs": [],
      "stateMutability": "nonpayable",
      "type": "function"
    },
    {
      "inputs": [
        {
          "internalType": "string",
          "name": "_challengeId",
          "type": "string"
        }
      ],
      "name": "reclaim_prize",
      "outputs": [],
      "stateMutability": "nonpayable",
      "type": "function"
    }
  ],
  "bytecode": "0x60806040523480156200001157600080fd5b50604051620014fa380380620014fa833981810160405281019062000037919062000201565b806200004933620000d360201b60201c565b80600260006101000a81548173ffffffffffffffffffffffffffffffffffffffff021916908373ffffffffffffffffffffffffffffffffffffffff16021790555080600360006101000a81548173ffffffffffffffffffffffffffffffffffffffff021916908373ffffffffffffffffffffffffffffffffffffffff160217905550505062000233565b60008060009054906101000a900473ffffffffffffffffffffffffffffffffffffffff169050816000806101000a81548173ffffffffffffffffffffffffffffffffffffffff021916908373ffffffffffffffffffffffffffffffffffffffff1602179055508173ffffffffffffffffffffffffffffffffffffffff168173ffffffffffffffffffffffffffffffffffffffff167f8be0079c531659141344cd1fd0a4f28419497f9722a3daafe3b4186f6b6457e060405160405180910390a35050565b600080fd5b600073ffffffffffffffffffffffffffffffffffffffff82169050919050565b6000620001c9826200019c565b9050919050565b620001db81620001bc565b8114620001e757600080fd5b50565b600081519050620001fb81620001d0565b92915050565b6000602082840312156200021a576200021962000197565b5b60006200022a84828501620001ea565b91505092915050565b6112b780620002436000396000f3fe60806040526004361061004a5760003560e01c80638da5cb5b1461004f5780639d84184e1461007a578063a05b483014610096578063f2fde38b146100bf578063fcad79a3146100e8575b600080fd5b34801561005b57600080fd5b506100646100ff565b6040516100719190610a98565b60405180910390f35b610094600480360381019061008f9190610b58565b610128565b005b3480156100a257600080fd5b506100bd60048036038101906100b89190610c54565b610455565b005b3480156100cb57600080fd5b506100e660048036038101906100e19190610ccd565b610788565b005b3480156100f457600080fd5b506100fd610879565b005b60008060009054906101000a900473ffffffffffffffffffffffffffffffffffffffff16905090565b6000341161016b576040517f08c379a000000000000000000000000000000000000000000000000000000000815260040161016290610d7d565b60405180910390fd5b600083116101ae576040517f08c379a00000000000000000000000000000000000000000000000000000000081526004016101a590610e0f565b60405180910390fd5b6000600183836040516101c2929190610e6e565b9081526020016040518091039020600301541415610215576040517f08c379a000000000000000000000000000000000000000000000000000000000815260040161020c90610ed3565b60405180910390fd5b60006040518060c001604052808b8b8080601f016020809104026020016040519081016040528093929190818152602001838380828437600081840152601f19601f82011690508083019250505050505050815260200189898080601f016020809104026020016040519081016040528093929190818152602001838380828437600081840152601f19601f82011690508083019250505050505050815260200187878080601f016020809104026020016040519081016040528093929190818152602001838380828437600081840152601f19601f8201169050808301925050505050505081526020018581526020013481526020016000151581525090508060018484604051610328929190610e6e565b908152602001604051809103902060008201518160000190805190602001906103529291906109b4565b50602082015181600101908051906020019061036f9291906109b4565b50604082015181600201908051906020019061038c9291906109b4565b50606082015181600301556080820151816004015560a08201518160050160006101000a81548160ff02191690831515021790555090505085856040516103d4929190610e6e565b604051809103902088886040516103ec929190610e6e565b60405180910390208b8b604051610404929190610e6e565b60405180910390207f02d4a23443fa9e2bb76ff5d837fba7cbeb69d3e769f8ab702bebe244e67df869868689346040516104419493929190610f40565b60405180910390a450505050505050505050565b600060018383604051610469929190610e6e565b90815260200160405180910390206003015414156104bc576040517f08c379a00000000000000000000000000000000000000000000000000000000081526004016104b390610fcc565b60405180910390fd5b6000600183836040516104d0929190610e6e565b90815260200160405180910390206040518060c00160405290816000820180546104f99061101b565b80601f01602080910402602001604051908101604052809291908181526020018280546105259061101b565b80156105725780601f1061054757610100808354040283529160200191610572565b820191906000526020600020905b81548152906001019060200180831161055557829003601f168201915b5050505050815260200160018201805461058b9061101b565b80601f01602080910402602001604051908101604052809291908181526020018280546105b79061101b565b80156106045780601f106105d957610100808354040283529160200191610604565b820191906000526020600020905b8154815290600101906020018083116105e757829003601f168201915b5050505050815260200160028201805461061d9061101b565b80601f01602080910402602001604051908101604052809291908181526020018280546106499061101b565b80156106965780601f1061066b57610100808354040283529160200191610696565b820191906000526020600020905b81548152906001019060200180831161067957829003601f168201915b5050505050815260200160038201548152602001600482015481526020016005820160009054906101000a900460ff1615151515815250509050600360009054906101000a900473ffffffffffffffffffffffffffffffffffffffff1673ffffffffffffffffffffffffffffffffffffffff1663a89f90cf82600001518360200151846040015185606001516040518563ffffffff1660e01b815260040161074194939291906110c4565b602060405180830381865afa15801561075e573d6000803e3d6000fd5b505050506040513d601f19601f820116820180604052508101906107829190611156565b50505050565b3373ffffffffffffffffffffffffffffffffffffffff166107a76100ff565b73ffffffffffffffffffffffffffffffffffffffff16146107fd576040517f08c379a00000000000000000000000000000000000000000000000000000000081526004016107f4906111cf565b60405180910390fd5b600073ffffffffffffffffffffffffffffffffffffffff168173ffffffffffffffffffffffffffffffffffffffff16141561086d576040517f08c379a000000000000000000000000000000000000000000000000000000000815260040161086490611261565b60405180910390fd5b610876816108f0565b50565b3373ffffffffffffffffffffffffffffffffffffffff166108986100ff565b73ffffffffffffffffffffffffffffffffffffffff16146108ee576040517f08c379a00000000000000000000000000000000000000000000000000000000081526004016108e5906111cf565b60405180910390fd5b565b60008060009054906101000a900473ffffffffffffffffffffffffffffffffffffffff169050816000806101000a81548173ffffffffffffffffffffffffffffffffffffffff021916908373ffffffffffffffffffffffffffffffffffffffff1602179055508173ffffffffffffffffffffffffffffffffffffffff168173ffffffffffffffffffffffffffffffffffffffff167f8be0079c531659141344cd1fd0a4f28419497f9722a3daafe3b4186f6b6457e060405160405180910390a35050565b8280546109c09061101b565b90600052602060002090601f0160209004810192826109e25760008555610a29565b82601f106109fb57805160ff1916838001178555610a29565b82800160010185558215610a29579182015b82811115610a28578251825591602001919060010190610a0d565b5b509050610a369190610a3a565b5090565b5b80821115610a53576000816000905550600101610a3b565b5090565b600073ffffffffffffffffffffffffffffffffffffffff82169050919050565b6000610a8282610a57565b9050919050565b610a9281610a77565b82525050565b6000602082019050610aad6000830184610a89565b92915050565b600080fd5b600080fd5b600080fd5b600080fd5b600080fd5b60008083601f840112610ae257610ae1610abd565b5b8235905067ffffffffffffffff811115610aff57610afe610ac2565b5b602083019150836001820283011115610b1b57610b1a610ac7565b5b9250929050565b6000819050919050565b610b3581610b22565b8114610b4057600080fd5b50565b600081359050610b5281610b2c565b92915050565b600080600080600080600080600060a08a8c031215610b7a57610b79610ab3565b5b60008a013567ffffffffffffffff811115610b9857610b97610ab8565b5b610ba48c828d01610acc565b995099505060208a013567ffffffffffffffff811115610bc757610bc6610ab8565b5b610bd38c828d01610acc565b975097505060408a013567ffffffffffffffff811115610bf657610bf5610ab8565b5b610c028c828d01610acc565b95509550506060610c158c828d01610b43565b93505060808a013567ffffffffffffffff811115610c3657610c35610ab8565b5b610c428c828d01610acc565b92509250509295985092959850929598565b60008060208385031215610c6b57610c6a610ab3565b5b600083013567ffffffffffffffff811115610c8957610c88610ab8565b5b610c9585828601610acc565b92509250509250929050565b610caa81610a77565b8114610cb557600080fd5b50565b600081359050610cc781610ca1565b92915050565b600060208284031215610ce357610ce2610ab3565b5b6000610cf184828501610cb8565b91505092915050565b600082825260208201905092915050565b7f4368616c6c656e676573206e65656420746f2070726f766964652066756e647360008201527f20666f7220726577617264696e6720737065656472756e6e6572730000000000602082015250565b6000610d67603b83610cfa565b9150610d7282610d0b565b604082019050919050565b60006020820190508181036000830152610d9681610d5a565b9050919050565b7f5468652074696d65206f6620746865206368616c6c656e6765206e656564732060008201527f746f2062652067726561746572207468616e207a65726f2e0000000000000000602082015250565b6000610df9603883610cfa565b9150610e0482610d9d565b604082019050919050565b60006020820190508181036000830152610e2881610dec565b9050919050565b600081905092915050565b82818337600083830152505050565b6000610e558385610e2f565b9350610e62838584610e3a565b82840190509392505050565b6000610e7b828486610e49565b91508190509392505050565b7f4368616c6c656e6765496420616c726561647920757365642e00000000000000600082015250565b6000610ebd601983610cfa565b9150610ec882610e87565b602082019050919050565b60006020820190508181036000830152610eec81610eb0565b9050919050565b6000601f19601f8301169050919050565b6000610f108385610cfa565b9350610f1d838584610e3a565b610f2683610ef3565b840190509392505050565b610f3a81610b22565b82525050565b60006060820190508181036000830152610f5b818688610f04565b9050610f6a6020830185610f31565b610f776040830184610f31565b95945050505050565b7f4368616c6c656e67654964206e6f7420666f756e642e00000000000000000000600082015250565b6000610fb6601683610cfa565b9150610fc182610f80565b602082019050919050565b60006020820190508181036000830152610fe581610fa9565b9050919050565b7f4e487b7100000000000000000000000000000000000000000000000000000000600052602260045260246000fd5b6000600282049050600182168061103357607f821691505b6020821081141561104757611046610fec565b5b50919050565b600081519050919050565b60005b8381101561107657808201518184015260208101905061105b565b83811115611085576000848401525b50505050565b60006110968261104d565b6110a08185610cfa565b93506110b0818560208601611058565b6110b981610ef3565b840191505092915050565b600060808201905081810360008301526110de818761108b565b905081810360208301526110f2818661108b565b90508181036040830152611106818561108b565b90506111156060830184610f31565b95945050505050565b60008115159050919050565b6111338161111e565b811461113e57600080fd5b50565b6000815190506111508161112a565b92915050565b60006020828403121561116c5761116b610ab3565b5b600061117a84828501611141565b91505092915050565b7f4f776e61626c653a2063616c6c6572206973206e6f7420746865206f776e6572600082015250565b60006111b9602083610cfa565b91506111c482611183565b602082019050919050565b600060208201905081810360008301526111e8816111ac565b9050919050565b7f4f776e61626c653a206e6577206f776e657220697320746865207a65726f206160008201527f6464726573730000000000000000000000000000000000000000000000000000602082015250565b600061124b602683610cfa565b9150611256826111ef565b604082019050919050565b6000602082019050818103600083015261127a8161123e565b905091905056fea2646970667358221220d56edab571566e0f98acd2fb2237ca6a9acbf5864d0b1b091ddca92f0470da0264736f6c634300080a0033",
  "immutableReferences": {},
  "source": "// SPDX-License-Identifier: GPL-3.0\npragma solidity ^0.8.10;\n\nimport \"./MotivatorBase.sol\";\n\n/// @title A barebones motivator, that simply sends the amounts on the challenges to the speedrunner on reclaim.\n/// @author msicilia.eth\n\ncontract StraightForwardMotivator is MotivatorBase{\n    constructor(address _speedRunRepo) MotivatorBase(_speedRunRepo) {}\n\n    function reclaim_prize(string calldata _challengeId) external override {\n        require(challenges[_challengeId].time != 0, \"ChallengeId not found.\");\n        Challenge memory ch = challenges[_challengeId];\n        if (repo.passed_mark(ch.userId, ch.gameId, ch.levelId, ch.time)){\n            // repo.getUserAddress(ch.userId);  ... and send the money\n        }\n    }\n}",
  "sourcePath": "/Users/msicilia/Desktop/dev/lrn/consensys/blockchain-developer-bootcamp-final-project/contracts/StraightForwardMotivator.sol",
  "compiler": {
    "name": "solc",
    "version": "0.8.10+commit.fc410830.Emscripten.clang"
  },
  "schemaVersion": "3.4.3",
  "updatedAt": "2021-11-25T13:35:25.119Z",
  "networkType": "ethereum",
  "devdoc": {
    "author": "msicilia.eth",
    "kind": "dev",
    "methods": {
      "owner()": {
        "details": "Returns the address of the current owner."
      },
      "transferOwnership(address)": {
        "details": "Transfers ownership of the contract to a new account (`newOwner`). Can only be called by the current owner."
      }
    },
    "title": "A barebones motivator, that simply sends the amounts on the challenges to the speedrunner on reclaim.",
    "version": 1
  },
  "userdoc": {
    "kind": "user",
    "methods": {},
    "version": 1
  }
}