{
  "contractName": "StraightForwardMotivator",
  "abi": [
    {
      "inputs": [
        {
          "internalType": "address",
          "name": "_speedRunRepo",
          "type": "address"
        }
      ],
      "stateMutability": "nonpayable",
      "type": "constructor"
    },
    {
      "anonymous": false,
      "inputs": [
        {
          "indexed": false,
          "internalType": "uint256",
          "name": "challengeId",
          "type": "uint256"
        },
        {
          "indexed": true,
          "internalType": "string",
          "name": "userId",
          "type": "string"
        },
        {
          "indexed": true,
          "internalType": "string",
          "name": "gameId",
          "type": "string"
        },
        {
          "indexed": true,
          "internalType": "string",
          "name": "levelId",
          "type": "string"
        },
        {
          "indexed": false,
          "internalType": "uint256",
          "name": "time",
          "type": "uint256"
        },
        {
          "indexed": false,
          "internalType": "uint256",
          "name": "prize",
          "type": "uint256"
        }
      ],
      "name": "ChallengePlaced",
      "type": "event"
    },
    {
      "anonymous": false,
      "inputs": [
        {
          "indexed": true,
          "internalType": "address",
          "name": "previousOwner",
          "type": "address"
        },
        {
          "indexed": true,
          "internalType": "address",
          "name": "newOwner",
          "type": "address"
        }
      ],
      "name": "OwnershipTransferred",
      "type": "event"
    },
    {
      "anonymous": false,
      "inputs": [
        {
          "indexed": false,
          "internalType": "address",
          "name": "account",
          "type": "address"
        }
      ],
      "name": "Paused",
      "type": "event"
    },
    {
      "inputs": [
        {
          "internalType": "uint256",
          "name": "",
          "type": "uint256"
        }
      ],
      "name": "challenges",
      "outputs": [
        {
          "internalType": "string",
          "name": "userId",
          "type": "string"
        },
        {
          "internalType": "string",
          "name": "gameId",
          "type": "string"
        },
        {
          "internalType": "string",
          "name": "levelId",
          "type": "string"
        },
        {
          "internalType": "uint256",
          "name": "time",
          "type": "uint256"
        },
        {
          "internalType": "uint256",
          "name": "prize",
          "type": "uint256"
        },
        {
          "internalType": "bool",
          "name": "reclaimed",
          "type": "bool"
        },
        {
          "internalType": "address",
          "name": "sender",
          "type": "address"
        },
        {
          "internalType": "bool",
          "name": "isChallenge",
          "type": "bool"
        }
      ],
      "stateMutability": "view",
      "type": "function",
      "constant": true
    },
    {
      "inputs": [],
      "name": "next_challenge",
      "outputs": [
        {
          "internalType": "uint256",
          "name": "",
          "type": "uint256"
        }
      ],
      "stateMutability": "view",
      "type": "function",
      "constant": true
    },
    {
      "inputs": [],
      "name": "owner",
      "outputs": [
        {
          "internalType": "address",
          "name": "",
          "type": "address"
        }
      ],
      "stateMutability": "view",
      "type": "function",
      "constant": true
    },
    {
      "inputs": [],
      "name": "paused",
      "outputs": [
        {
          "internalType": "bool",
          "name": "",
          "type": "bool"
        }
      ],
      "stateMutability": "view",
      "type": "function",
      "constant": true
    },
    {
      "inputs": [
        {
          "internalType": "string",
          "name": "_userId",
          "type": "string"
        },
        {
          "internalType": "string",
          "name": "_gameId",
          "type": "string"
        },
        {
          "internalType": "string",
          "name": "_levelId",
          "type": "string"
        },
        {
          "internalType": "uint256",
          "name": "_time",
          "type": "uint256"
        }
      ],
      "name": "place_challenge",
      "outputs": [],
      "stateMutability": "payable",
      "type": "function",
      "payable": true
    },
    {
      "inputs": [],
      "name": "return_funds_and_destroy",
      "outputs": [],
      "stateMutability": "nonpayable",
      "type": "function"
    },
    {
      "inputs": [
        {
          "internalType": "address",
          "name": "newOwner",
          "type": "address"
        }
      ],
      "name": "transferOwnership",
      "outputs": [],
      "stateMutability": "nonpayable",
      "type": "function"
    },
    {
      "inputs": [
        {
          "internalType": "uint256",
          "name": "_challengeId",
          "type": "uint256"
        }
      ],
      "name": "reclaim_prize",
      "outputs": [],
      "stateMutability": "nonpayable",
      "type": "function"
    }
  ],
  "bytecode": "0x60806040523480156200001157600080fd5b5060405162001cec38038062001cec833981810160405281019062000037919062000223565b806200004933620000f560201b60201c565b60008060146101000a81548160ff02191690831515021790555080600360006101000a81548173ffffffffffffffffffffffffffffffffffffffff021916908373ffffffffffffffffffffffffffffffffffffffff16021790555080600460006101000a81548173ffffffffffffffffffffffffffffffffffffffff021916908373ffffffffffffffffffffffffffffffffffffffff1602179055506000600281905550505062000255565b60008060009054906101000a900473ffffffffffffffffffffffffffffffffffffffff169050816000806101000a81548173ffffffffffffffffffffffffffffffffffffffff021916908373ffffffffffffffffffffffffffffffffffffffff1602179055508173ffffffffffffffffffffffffffffffffffffffff168173ffffffffffffffffffffffffffffffffffffffff167f8be0079c531659141344cd1fd0a4f28419497f9722a3daafe3b4186f6b6457e060405160405180910390a35050565b600080fd5b600073ffffffffffffffffffffffffffffffffffffffff82169050919050565b6000620001eb82620001be565b9050919050565b620001fd81620001de565b81146200020957600080fd5b50565b6000815190506200021d81620001f2565b92915050565b6000602082840312156200023c576200023b620001b9565b5b60006200024c848285016200020c565b91505092915050565b611a8780620002656000396000f3fe60806040526004361061007b5760003560e01c80638f1d37761161004e5780638f1d37761461011b578063ae8421141461015f578063f2fde38b1461018a578063fcad79a3146101b35761007b565b80630ffb7ac3146100805780635c975abb146100a95780636efa4780146100d45780638da5cb5b146100f0575b600080fd5b34801561008c57600080fd5b506100a760048036038101906100a29190610f99565b6101ca565b005b3480156100b557600080fd5b506100be6104bb565b6040516100cb9190610fe1565b60405180910390f35b6100ee60048036038101906100e99190611061565b6104d1565b005b3480156100fc57600080fd5b50610105610879565b604051610112919061116b565b60405180910390f35b34801561012757600080fd5b50610142600480360381019061013d9190610f99565b6108a2565b60405161015698979695949392919061122e565b60405180910390f35b34801561016b57600080fd5b50610174610abc565b60405161018191906112c1565b60405180910390f35b34801561019657600080fd5b506101b160048036038101906101ac9190611308565b610ac2565b005b3480156101bf57600080fd5b506101c8610bb3565b005b6101d26104bb565b15610212576040517f08c379a000000000000000000000000000000000000000000000000000000000815260040161020990611381565b60405180910390fd5b60006001600083815260200190815260200160002060030154141561026c576040517f08c379a000000000000000000000000000000000000000000000000000000000815260040161026390611413565b60405180910390fd5b60006001600083815260200190815260200160002090508060050160009054906101000a900460ff16156102d5576040517f08c379a00000000000000000000000000000000000000000000000000000000081526004016102cc906114a5565b60405180910390fd5b600460009054906101000a900473ffffffffffffffffffffffffffffffffffffffff1673ffffffffffffffffffffffffffffffffffffffff1663a89f90cf82600001836001018460020185600301546040518563ffffffff1660e01b815260040161034394939291906115bb565b60206040518083038186803b15801561035b57600080fd5b505afa15801561036f573d6000803e3d6000fd5b505050506040513d601f19601f820116820180604052508101906103939190611641565b61039c57600080fd5b60018160050160006101000a81548160ff0219169083151502179055506000600460009054906101000a900473ffffffffffffffffffffffffffffffffffffffff1673ffffffffffffffffffffffffffffffffffffffff1663cc8ec240836000016040518263ffffffff1660e01b8152600401610419919061166e565b60206040518083038186803b15801561043157600080fd5b505afa158015610445573d6000803e3d6000fd5b505050506040513d601f19601f8201168201806040525081019061046991906116a5565b90508073ffffffffffffffffffffffffffffffffffffffff166108fc83600401549081150290604051600060405180830381858888f193505050501580156104b5573d6000803e3d6000fd5b50505050565b60008060149054906101000a900460ff16905090565b6104d96104bb565b15610519576040517f08c379a000000000000000000000000000000000000000000000000000000000815260040161051090611381565b60405180910390fd5b6000341161055c576040517f08c379a000000000000000000000000000000000000000000000000000000000815260040161055390611744565b60405180910390fd5b6000811161059f576040517f08c379a0000000000000000000000000000000000000000000000000000000008152600401610596906117d6565b60405180910390fd5b600060405180610100016040528089898080601f016020809104026020016040519081016040528093929190818152602001838380828437600081840152601f19601f82011690508083019250505050505050815260200187878080601f016020809104026020016040519081016040528093929190818152602001838380828437600081840152601f19601f82011690508083019250505050505050815260200185858080601f016020809104026020016040519081016040528093929190818152602001838380828437600081840152601f19601f8201169050808301925050505050505081526020018381526020013481526020016000151581526020013373ffffffffffffffffffffffffffffffffffffffff1681526020016001151581525090508060016000600254815260200190815260200160002060008201518160000190805190602001906106f7929190610eb6565b506020820151816001019080519060200190610714929190610eb6565b506040820151816002019080519060200190610731929190610eb6565b50606082015181600301556080820151816004015560a08201518160050160006101000a81548160ff02191690831515021790555060c08201518160050160016101000a81548173ffffffffffffffffffffffffffffffffffffffff021916908373ffffffffffffffffffffffffffffffffffffffff16021790555060e08201518160050160156101000a81548160ff02191690831515021790555090505083836040516107e0929190611835565b604051809103902086866040516107f8929190611835565b60405180910390208989604051610810929190611835565b60405180910390207f5f27b944393ee755a5e321684191dd2794c81347a6bb15889b0759878b348973600254863460405161084d9392919061184e565b60405180910390a460016002600082825461086891906118b4565b925050819055505050505050505050565b60008060009054906101000a900473ffffffffffffffffffffffffffffffffffffffff16905090565b60016020528060005260406000206000915090508060000180546108c5906114f4565b80601f01602080910402602001604051908101604052809291908181526020018280546108f1906114f4565b801561093e5780601f106109135761010080835404028352916020019161093e565b820191906000526020600020905b81548152906001019060200180831161092157829003601f168201915b505050505090806001018054610953906114f4565b80601f016020809104026020016040519081016040528092919081815260200182805461097f906114f4565b80156109cc5780601f106109a1576101008083540402835291602001916109cc565b820191906000526020600020905b8154815290600101906020018083116109af57829003601f168201915b5050505050908060020180546109e1906114f4565b80601f0160208091040260200160405190810160405280929190818152602001828054610a0d906114f4565b8015610a5a5780601f10610a2f57610100808354040283529160200191610a5a565b820191906000526020600020905b815481529060010190602001808311610a3d57829003601f168201915b5050505050908060030154908060040154908060050160009054906101000a900460ff16908060050160019054906101000a900473ffffffffffffffffffffffffffffffffffffffff16908060050160159054906101000a900460ff16905088565b60025481565b3373ffffffffffffffffffffffffffffffffffffffff16610ae1610879565b73ffffffffffffffffffffffffffffffffffffffff1614610b37576040517f08c379a0000000000000000000000000000000000000000000000000000000008152600401610b2e90611956565b60405180910390fd5b600073ffffffffffffffffffffffffffffffffffffffff168173ffffffffffffffffffffffffffffffffffffffff161415610ba7576040517f08c379a0000000000000000000000000000000000000000000000000000000008152600401610b9e906119e8565b60405180910390fd5b610bb081610d56565b50565b610bbb6104bb565b15610bfb576040517f08c379a0000000000000000000000000000000000000000000000000000000008152600401610bf290611381565b60405180910390fd5b3373ffffffffffffffffffffffffffffffffffffffff16610c1a610879565b73ffffffffffffffffffffffffffffffffffffffff1614610c70576040517f08c379a0000000000000000000000000000000000000000000000000000000008152600401610c6790611956565b60405180910390fd5b610c78610e1a565b60005b600254811015610d535760006001600083815260200190815260200160002090508060050160009054906101000a900460ff16610d3f5760018160050160006101000a81548160ff0219169083151502179055508060050160019054906101000a900473ffffffffffffffffffffffffffffffffffffffff1673ffffffffffffffffffffffffffffffffffffffff166108fc82600401549081150290604051600060405180830381858888f19350505050158015610d3d573d6000803e3d6000fd5b505b508080610d4b90611a08565b915050610c7b565b50565b60008060009054906101000a900473ffffffffffffffffffffffffffffffffffffffff169050816000806101000a81548173ffffffffffffffffffffffffffffffffffffffff021916908373ffffffffffffffffffffffffffffffffffffffff1602179055508173ffffffffffffffffffffffffffffffffffffffff168173ffffffffffffffffffffffffffffffffffffffff167f8be0079c531659141344cd1fd0a4f28419497f9722a3daafe3b4186f6b6457e060405160405180910390a35050565b610e226104bb565b15610e62576040517f08c379a0000000000000000000000000000000000000000000000000000000008152600401610e5990611381565b60405180910390fd5b6001600060146101000a81548160ff0219169083151502179055507f62e78cea01bee320cd4e420270b5ea74000d11b0c9f74754ebdbfc544b05a25833604051610eac919061116b565b60405180910390a1565b828054610ec2906114f4565b90600052602060002090601f016020900481019282610ee45760008555610f2b565b82601f10610efd57805160ff1916838001178555610f2b565b82800160010185558215610f2b579182015b82811115610f2a578251825591602001919060010190610f0f565b5b509050610f389190610f3c565b5090565b5b80821115610f55576000816000905550600101610f3d565b5090565b600080fd5b600080fd5b6000819050919050565b610f7681610f63565b8114610f8157600080fd5b50565b600081359050610f9381610f6d565b92915050565b600060208284031215610faf57610fae610f59565b5b6000610fbd84828501610f84565b91505092915050565b60008115159050919050565b610fdb81610fc6565b82525050565b6000602082019050610ff66000830184610fd2565b92915050565b600080fd5b600080fd5b600080fd5b60008083601f84011261102157611020610ffc565b5b8235905067ffffffffffffffff81111561103e5761103d611001565b5b60208301915083600182028301111561105a57611059611006565b5b9250929050565b60008060008060008060006080888a0312156110805761107f610f59565b5b600088013567ffffffffffffffff81111561109e5761109d610f5e565b5b6110aa8a828b0161100b565b9750975050602088013567ffffffffffffffff8111156110cd576110cc610f5e565b5b6110d98a828b0161100b565b9550955050604088013567ffffffffffffffff8111156110fc576110fb610f5e565b5b6111088a828b0161100b565b9350935050606061111b8a828b01610f84565b91505092959891949750929550565b600073ffffffffffffffffffffffffffffffffffffffff82169050919050565b60006111558261112a565b9050919050565b6111658161114a565b82525050565b6000602082019050611180600083018461115c565b92915050565b600081519050919050565b600082825260208201905092915050565b60005b838110156111c05780820151818401526020810190506111a5565b838111156111cf576000848401525b50505050565b6000601f19601f8301169050919050565b60006111f182611186565b6111fb8185611191565b935061120b8185602086016111a2565b611214816111d5565b840191505092915050565b61122881610f63565b82525050565b6000610100820190508181036000830152611249818b6111e6565b9050818103602083015261125d818a6111e6565b9050818103604083015261127181896111e6565b9050611280606083018861121f565b61128d608083018761121f565b61129a60a0830186610fd2565b6112a760c083018561115c565b6112b460e0830184610fd2565b9998505050505050505050565b60006020820190506112d6600083018461121f565b92915050565b6112e58161114a565b81146112f057600080fd5b50565b600081359050611302816112dc565b92915050565b60006020828403121561131e5761131d610f59565b5b600061132c848285016112f3565b91505092915050565b7f5061757361626c653a2070617573656400000000000000000000000000000000600082015250565b600061136b601083611191565b915061137682611335565b602082019050919050565b6000602082019050818103600083015261139a8161135e565b9050919050565b7f4368616c6c656e67654964206e6f7420666f756e64207768656e207265636c6160008201527f696d696e67207072697a652e0000000000000000000000000000000000000000602082015250565b60006113fd602c83611191565b9150611408826113a1565b604082019050919050565b6000602082019050818103600083015261142c816113f0565b9050919050565b7f546865206368616c6c656e67652068617320616c7265616479206265656e207260008201527f65636c61696d65642e0000000000000000000000000000000000000000000000602082015250565b600061148f602983611191565b915061149a82611433565b604082019050919050565b600060208201905081810360008301526114be81611482565b9050919050565b7f4e487b7100000000000000000000000000000000000000000000000000000000600052602260045260246000fd5b6000600282049050600182168061150c57607f821691505b602082108114156115205761151f6114c5565b5b50919050565b60008190508160005260206000209050919050565b60008154611548816114f4565b6115528186611191565b9450600182166000811461156d576001811461157f576115b2565b60ff19831686526020860193506115b2565b61158885611526565b60005b838110156115aa5781548189015260018201915060208101905061158b565b808801955050505b50505092915050565b600060808201905081810360008301526115d5818761153b565b905081810360208301526115e9818661153b565b905081810360408301526115fd818561153b565b905061160c606083018461121f565b95945050505050565b61161e81610fc6565b811461162957600080fd5b50565b60008151905061163b81611615565b92915050565b60006020828403121561165757611656610f59565b5b60006116658482850161162c565b91505092915050565b60006020820190508181036000830152611688818461153b565b905092915050565b60008151905061169f816112dc565b92915050565b6000602082840312156116bb576116ba610f59565b5b60006116c984828501611690565b91505092915050565b7f4368616c6c656e676573206e65656420746f2070726f766964652066756e647360008201527f20666f7220726577617264696e6720737065656472756e6e6572730000000000602082015250565b600061172e603b83611191565b9150611739826116d2565b604082019050919050565b6000602082019050818103600083015261175d81611721565b9050919050565b7f5468652074696d65206f6620746865206368616c6c656e6765206e656564732060008201527f746f2062652067726561746572207468616e207a65726f2e0000000000000000602082015250565b60006117c0603883611191565b91506117cb82611764565b604082019050919050565b600060208201905081810360008301526117ef816117b3565b9050919050565b600081905092915050565b82818337600083830152505050565b600061181c83856117f6565b9350611829838584611801565b82840190509392505050565b6000611842828486611810565b91508190509392505050565b6000606082019050611863600083018661121f565b611870602083018561121f565b61187d604083018461121f565b949350505050565b7f4e487b7100000000000000000000000000000000000000000000000000000000600052601160045260246000fd5b60006118bf82610f63565b91506118ca83610f63565b9250827fffffffffffffffffffffffffffffffffffffffffffffffffffffffffffffffff038211156118ff576118fe611885565b5b828201905092915050565b7f4f776e61626c653a2063616c6c6572206973206e6f7420746865206f776e6572600082015250565b6000611940602083611191565b915061194b8261190a565b602082019050919050565b6000602082019050818103600083015261196f81611933565b9050919050565b7f4f776e61626c653a206e6577206f776e657220697320746865207a65726f206160008201527f6464726573730000000000000000000000000000000000000000000000000000602082015250565b60006119d2602683611191565b91506119dd82611976565b604082019050919050565b60006020820190508181036000830152611a01816119c5565b9050919050565b6000611a1382610f63565b91507fffffffffffffffffffffffffffffffffffffffffffffffffffffffffffffffff821415611a4657611a45611885565b5b60018201905091905056fea2646970667358221220243bcfa98ceefb0d9bb857c5b2a360fa21f875344a673f36f3739c35d282e90464736f6c63430008090033",
  "immutableReferences": {},
  "source": "// SPDX-License-Identifier: GPL-3.0\npragma solidity ^0.8.9;\n\nimport \"./MotivatorBase.sol\";\n\n/// @title A barebones motivator, that simply sends the amounts on the challenges to the speedrunner on reclaim.\n/// @author msicilia.eth\n\ncontract StraightForwardMotivator is MotivatorBase{\n    constructor(address _speedRunRepo) MotivatorBase(_speedRunRepo) {}\n\n    function reclaim_prize(uint _challengeId) whenNotPaused() external override {\n        require(challenges[_challengeId].time != 0, \"ChallengeId not found when reclaiming prize.\");\n        Challenge storage ch = challenges[_challengeId];\n        require(!ch.reclaimed, \"The challenge has already been reclaimed.\");\n        require(repo.passed_mark(ch.userId, ch.gameId, ch.levelId, ch.time));\n        ch.reclaimed = true;\n        address addr = repo.get_runner_address(ch.userId);\n        payable(addr).transfer(ch.prize);\n    }\n}",
  "sourcePath": "/Users/msicilia/Desktop/dev/lrn/consensys/blockchain-developer-bootcamp-final-project/contracts/StraightForwardMotivator.sol",
  "compiler": {
    "name": "solc",
    "version": "0.8.9+commit.e5eed63a.Emscripten.clang"
  },
  "schemaVersion": "3.3.3",
  "updatedAt": "2022-01-14T14:16:12.575Z",
  "networkType": "ethereum",
  "devdoc": {
    "author": "msicilia.eth",
    "kind": "dev",
    "methods": {
      "owner()": {
        "details": "Returns the address of the current owner."
      },
      "paused()": {
        "details": "Returns true if the contract is paused, and false otherwise."
      },
      "transferOwnership(address)": {
        "details": "Transfers ownership of the contract to a new account (`newOwner`). Can only be called by the current owner."
      }
    },
    "title": "A barebones motivator, that simply sends the amounts on the challenges to the speedrunner on reclaim.",
    "version": 1
  },
  "userdoc": {
    "kind": "user",
    "methods": {},
    "version": 1
  }
}