{
  "contractName": "StraightForwardMotivator",
  "abi": [
    {
      "inputs": [
        {
          "internalType": "address",
          "name": "_speedRunRepo",
          "type": "address"
        }
      ],
      "stateMutability": "nonpayable",
      "type": "constructor"
    },
    {
      "anonymous": false,
      "inputs": [
        {
          "indexed": false,
          "internalType": "string",
          "name": "challengeId",
          "type": "string"
        },
        {
          "indexed": true,
          "internalType": "string",
          "name": "userId",
          "type": "string"
        },
        {
          "indexed": true,
          "internalType": "string",
          "name": "gameId",
          "type": "string"
        },
        {
          "indexed": true,
          "internalType": "string",
          "name": "levelId",
          "type": "string"
        },
        {
          "indexed": false,
          "internalType": "uint256",
          "name": "time",
          "type": "uint256"
        },
        {
          "indexed": false,
          "internalType": "uint256",
          "name": "prize",
          "type": "uint256"
        }
      ],
      "name": "ChallengePlaced",
      "type": "event"
    },
    {
      "inputs": [
        {
          "internalType": "string",
          "name": "_userId",
          "type": "string"
        },
        {
          "internalType": "string",
          "name": "_gameId",
          "type": "string"
        },
        {
          "internalType": "string",
          "name": "_levelId",
          "type": "string"
        },
        {
          "internalType": "uint256",
          "name": "_time",
          "type": "uint256"
        },
        {
          "internalType": "string",
          "name": "_challengeId",
          "type": "string"
        }
      ],
      "name": "place_challenge",
      "outputs": [],
      "stateMutability": "payable",
      "type": "function",
      "payable": true
    },
    {
      "inputs": [
        {
          "internalType": "string",
          "name": "_challengeId",
          "type": "string"
        }
      ],
      "name": "reclaim",
      "outputs": [],
      "stateMutability": "nonpayable",
      "type": "function"
    }
  ],
  "bytecode": "0x608060405234801561001057600080fd5b50604051610f8a380380610f8a833981810160405281019061003291906100d1565b8080600160006101000a81548173ffffffffffffffffffffffffffffffffffffffff021916908373ffffffffffffffffffffffffffffffffffffffff16021790555080600260006101000a81548173ffffffffffffffffffffffffffffffffffffffff021916908373ffffffffffffffffffffffffffffffffffffffff160217905550505061014c565b6000815190506100cb81610135565b92915050565b6000602082840312156100e7576100e6610130565b5b60006100f5848285016100bc565b91505092915050565b600061010982610110565b9050919050565b600073ffffffffffffffffffffffffffffffffffffffff82169050919050565b600080fd5b61013e816100fe565b811461014957600080fd5b50565b610e2f8061015b6000396000f3fe6080604052600436106100295760003560e01c80639d84184e1461002e578063a40d52ea1461004a575b600080fd5b6100486004803603810190610043919061087c565b610073565b005b34801561005657600080fd5b50610071600480360381019061006c919061082f565b61039f565b005b600034116100b6576040517f08c379a00000000000000000000000000000000000000000000000000000000081526004016100ad90610b71565b60405180910390fd5b600083116100f9576040517f08c379a00000000000000000000000000000000000000000000000000000000081526004016100f090610b51565b60405180910390fd5b600080838360405161010c929190610a9e565b908152602001604051809103902060030154141561015f576040517f08c379a000000000000000000000000000000000000000000000000000000000815260040161015690610b91565b60405180910390fd5b60006040518060c001604052808b8b8080601f016020809104026020016040519081016040528093929190818152602001838380828437600081840152601f19601f82011690508083019250505050505050815260200189898080601f016020809104026020016040519081016040528093929190818152602001838380828437600081840152601f19601f82011690508083019250505050505050815260200187878080601f016020809104026020016040519081016040528093929190818152602001838380828437600081840152601f19601f8201169050808301925050505050505081526020018581526020013481526020016000151581525090508060008484604051610272929190610a9e565b9081526020016040518091039020600082015181600001908051906020019061029c9291906106df565b5060208201518160010190805190602001906102b99291906106df565b5060408201518160020190805190602001906102d69291906106df565b50606082015181600301556080820151816004015560a08201518160050160006101000a81548160ff021916908315150217905550905050858560405161031e929190610a9e565b60405180910390208888604051610336929190610a9e565b60405180910390208b8b60405161034e929190610a9e565b60405180910390207f02d4a23443fa9e2bb76ff5d837fba7cbeb69d3e769f8ab702bebe244e67df8698686893460405161038b9493929190610ab7565b60405180910390a450505050505050505050565b60008083836040516103b2929190610a9e565b9081526020016040518091039020600301541415610405576040517f08c379a00000000000000000000000000000000000000000000000000000000081526004016103fc90610bb1565b60405180910390fd5b6000808383604051610418929190610a9e565b90815260200160405180910390206040518060c001604052908160008201805461044190610c50565b80601f016020809104026020016040519081016040528092919081815260200182805461046d90610c50565b80156104ba5780601f1061048f576101008083540402835291602001916104ba565b820191906000526020600020905b81548152906001019060200180831161049d57829003601f168201915b505050505081526020016001820180546104d390610c50565b80601f01602080910402602001604051908101604052809291908181526020018280546104ff90610c50565b801561054c5780601f106105215761010080835404028352916020019161054c565b820191906000526020600020905b81548152906001019060200180831161052f57829003601f168201915b5050505050815260200160028201805461056590610c50565b80601f016020809104026020016040519081016040528092919081815260200182805461059190610c50565b80156105de5780601f106105b3576101008083540402835291602001916105de565b820191906000526020600020905b8154815290600101906020018083116105c157829003601f168201915b5050505050815260200160038201548152602001600482015481526020016005820160009054906101000a900460ff1615151515815250509050600260009054906101000a900473ffffffffffffffffffffffffffffffffffffffff1673ffffffffffffffffffffffffffffffffffffffff1663a89f90cf82600001518360200151846040015185606001516040518563ffffffff1660e01b81526004016106899493929190610af7565b60206040518083038186803b1580156106a157600080fd5b505afa1580156106b5573d6000803e3d6000fd5b505050506040513d601f19601f820116820180604052508101906106d99190610802565b50505050565b8280546106eb90610c50565b90600052602060002090601f01602090048101928261070d5760008555610754565b82601f1061072657805160ff1916838001178555610754565b82800160010185558215610754579182015b82811115610753578251825591602001919060010190610738565b5b5090506107619190610765565b5090565b5b8082111561077e576000816000905550600101610766565b5090565b60008151905061079181610dcb565b92915050565b60008083601f8401126107ad576107ac610cb6565b5b8235905067ffffffffffffffff8111156107ca576107c9610cb1565b5b6020830191508360018202830111156107e6576107e5610cbb565b5b9250929050565b6000813590506107fc81610de2565b92915050565b60006020828403121561081857610817610cc5565b5b600061082684828501610782565b91505092915050565b6000806020838503121561084657610845610cc5565b5b600083013567ffffffffffffffff81111561086457610863610cc0565b5b61087085828601610797565b92509250509250929050565b600080600080600080600080600060a08a8c03121561089e5761089d610cc5565b5b60008a013567ffffffffffffffff8111156108bc576108bb610cc0565b5b6108c88c828d01610797565b995099505060208a013567ffffffffffffffff8111156108eb576108ea610cc0565b5b6108f78c828d01610797565b975097505060408a013567ffffffffffffffff81111561091a57610919610cc0565b5b6109268c828d01610797565b955095505060606109398c828d016107ed565b93505060808a013567ffffffffffffffff81111561095a57610959610cc0565b5b6109668c828d01610797565b92509250509295985092959850929598565b60006109848385610bdc565b9350610991838584610c0e565b61099a83610cca565b840190509392505050565b60006109b18385610bed565b93506109be838584610c0e565b82840190509392505050565b60006109d582610bd1565b6109df8185610bdc565b93506109ef818560208601610c1d565b6109f881610cca565b840191505092915050565b6000610a10603883610bdc565b9150610a1b82610cdb565b604082019050919050565b6000610a33603b83610bdc565b9150610a3e82610d2a565b604082019050919050565b6000610a56601983610bdc565b9150610a6182610d79565b602082019050919050565b6000610a79601683610bdc565b9150610a8482610da2565b602082019050919050565b610a9881610c04565b82525050565b6000610aab8284866109a5565b91508190509392505050565b60006060820190508181036000830152610ad2818688610978565b9050610ae16020830185610a8f565b610aee6040830184610a8f565b95945050505050565b60006080820190508181036000830152610b1181876109ca565b90508181036020830152610b2581866109ca565b90508181036040830152610b3981856109ca565b9050610b486060830184610a8f565b95945050505050565b60006020820190508181036000830152610b6a81610a03565b9050919050565b60006020820190508181036000830152610b8a81610a26565b9050919050565b60006020820190508181036000830152610baa81610a49565b9050919050565b60006020820190508181036000830152610bca81610a6c565b9050919050565b600081519050919050565b600082825260208201905092915050565b600081905092915050565b60008115159050919050565b6000819050919050565b82818337600083830152505050565b60005b83811015610c3b578082015181840152602081019050610c20565b83811115610c4a576000848401525b50505050565b60006002820490506001821680610c6857607f821691505b60208210811415610c7c57610c7b610c82565b5b50919050565b7f4e487b7100000000000000000000000000000000000000000000000000000000600052602260045260246000fd5b600080fd5b600080fd5b600080fd5b600080fd5b600080fd5b6000601f19601f8301169050919050565b7f5468652074696d65206f6620746865206368616c6c656e6765206e656564732060008201527f746f2062652067726561746572207468616e207a65726f2e0000000000000000602082015250565b7f4368616c6c656e676573206e65656420746f2070726f766964652066756e647360008201527f20666f7220726577617264696e6720737065656472756e6e6572730000000000602082015250565b7f4368616c6c656e6765496420616c726561647920757365642e00000000000000600082015250565b7f4368616c6c656e67654964206e6f7420666f756e642e00000000000000000000600082015250565b610dd481610bf8565b8114610ddf57600080fd5b50565b610deb81610c04565b8114610df657600080fd5b5056fea2646970667358221220ab49cf7342217532b3de831b37ff643c289dbd1da980950032fcc2a16370c40264736f6c63430008070033",
  "immutableReferences": {},
  "source": "// SPDX-License-Identifier: GPL-3.0\npragma solidity ^0.8.7;\n\nimport \"./MotivatorBase.sol\";\n\n/// @title A barebones motivator, that simply sends the amounts on the challenges to the speedrunner on reclaim.\n/// @author msicilia.eth\n\ncontract StraightForwardMotivator is MotivatorBase{\n    constructor(address _speedRunRepo) MotivatorBase(_speedRunRepo) {}\n\n    function reclaim(string calldata _challengeId) external override {\n        require(challenges[_challengeId].time != 0, \"ChallengeId not found.\");\n        Challenge memory ch = challenges[_challengeId];\n        if (repo.passed_mark(ch.userId, ch.gameId, ch.levelId, ch.time)){\n            // repo.getUserAddress(ch.userId);  ... and send the money\n        }\n    }\n}",
  "sourcePath": "/Users/msicilia/Desktop/dev/lrn/consensys/blockchain-developer-bootcamp-final-project/contracts/StraightForwardMotivator.sol",
  "compiler": {
    "name": "solc",
    "version": "0.8.7+commit.e28d00a7.Emscripten.clang"
  },
  "schemaVersion": "3.3.3",
  "updatedAt": "2021-11-19T12:00:38.791Z",
  "networkType": "ethereum",
  "devdoc": {
    "author": "msicilia.eth",
    "kind": "dev",
    "methods": {},
    "title": "A barebones motivator, that simply sends the amounts on the challenges to the speedrunner on reclaim.",
    "version": 1
  },
  "userdoc": {
    "kind": "user",
    "methods": {},
    "version": 1
  }
}