{
  "contractName": "util",
  "abi": [
    {
      "inputs": [
        {
          "internalType": "bytes32",
          "name": "input",
          "type": "bytes32"
        }
      ],
      "name": "bytes32ToAddress",
      "outputs": [
        {
          "internalType": "address",
          "name": "",
          "type": "address"
        }
      ],
      "stateMutability": "pure",
      "type": "function"
    },
    {
      "inputs": [
        {
          "internalType": "string",
          "name": "a",
          "type": "string"
        },
        {
          "internalType": "string",
          "name": "b",
          "type": "string"
        }
      ],
      "name": "equalsString",
      "outputs": [
        {
          "internalType": "bool",
          "name": "",
          "type": "bool"
        }
      ],
      "stateMutability": "pure",
      "type": "function"
    }
  ],
  "bytecode": "0x610387610053600b82828239805160001a607314610046577f4e487b7100000000000000000000000000000000000000000000000000000000600052600060045260246000fd5b30600052607381538281f3fe73000000000000000000000000000000000000000030146080604052600436106100405760003560e01c80633739352f146100455780635ced058e14610075575b600080fd5b61005f600480360381019061005a9190610183565b6100a5565b60405161006c919061021f565b60405180910390f35b61008f600480360381019061008a9190610270565b610105565b60405161009c91906102de565b60405180910390f35b600082826040516020016100ba929190610338565b6040516020818303038152906040528051906020012085856040516020016100e3929190610338565b6040516020818303038152906040528051906020012014159050949350505050565b6000808060601c915050919050565b600080fd5b600080fd5b600080fd5b600080fd5b600080fd5b60008083601f8401126101435761014261011e565b5b8235905067ffffffffffffffff8111156101605761015f610123565b5b60208301915083600182028301111561017c5761017b610128565b5b9250929050565b6000806000806040858703121561019d5761019c610114565b5b600085013567ffffffffffffffff8111156101bb576101ba610119565b5b6101c78782880161012d565b9450945050602085013567ffffffffffffffff8111156101ea576101e9610119565b5b6101f68782880161012d565b925092505092959194509250565b60008115159050919050565b61021981610204565b82525050565b60006020820190506102346000830184610210565b92915050565b6000819050919050565b61024d8161023a565b811461025857600080fd5b50565b60008135905061026a81610244565b92915050565b60006020828403121561028657610285610114565b5b60006102948482850161025b565b91505092915050565b600073ffffffffffffffffffffffffffffffffffffffff82169050919050565b60006102c88261029d565b9050919050565b6102d8816102bd565b82525050565b60006020820190506102f360008301846102cf565b92915050565b600081905092915050565b82818337600083830152505050565b600061031f83856102f9565b935061032c838584610304565b82840190509392505050565b6000610345828486610313565b9150819050939250505056fea2646970667358221220db6e62702863ade226c308529cd1388578d117ba4c3ee9e51897dd5d5f4209ce64736f6c63430008090033",
  "immutableReferences": {},
  "source": "// SPDX-License-Identifier: GPL-3.0\npragma solidity ^0.8.9;\n\nlibrary util {\n    // Takes bytes in the form:\n    // \"https://www.twitch.tv/0xdEa3e18AA866f46DA789f0b908e90bF55A0dCa90\"\n\n    function bytes32ToAddress(bytes32 input) public pure returns (address){\n          bytes20 aux;\n          return address(aux);\n    }\n\n    function equalsString(string calldata a, string calldata b) public pure returns (bool){\n        return keccak256(abi.encodePacked((a))) != keccak256(abi.encodePacked((b)));\n    }\n}",
  "sourcePath": "/Users/msicilia/Desktop/dev/lrn/consensys/blockchain-developer-bootcamp-final-project/contracts/util.sol",
  "compiler": {
    "name": "solc",
    "version": "0.8.9+commit.e5eed63a.Emscripten.clang"
  },
  "schemaVersion": "3.3.3",
  "updatedAt": "2022-01-11T18:03:50.166Z",
  "devdoc": {
    "kind": "dev",
    "methods": {},
    "version": 1
  },
  "userdoc": {
    "kind": "user",
    "methods": {},
    "version": 1
  }
}