{
  "contractName": "util",
  "abi": [
    {
      "inputs": [
        {
          "internalType": "bytes32",
          "name": "input",
          "type": "bytes32"
        }
      ],
      "name": "bytes32ToAddress",
      "outputs": [
        {
          "internalType": "address",
          "name": "",
          "type": "address"
        }
      ],
      "stateMutability": "pure",
      "type": "function"
    }
  ],
  "bytecode": "0x610173610053600b82828239805160001a607314610046577f4e487b7100000000000000000000000000000000000000000000000000000000600052600060045260246000fd5b30600052607381538281f3fe73000000000000000000000000000000000000000030146080604052600436106100355760003560e01c80635ced058e1461003a575b600080fd5b610054600480360381019061004f91906100b4565b61006a565b6040516100619190610122565b60405180910390f35b6000808060601c915050919050565b600080fd5b6000819050919050565b6100918161007e565b811461009c57600080fd5b50565b6000813590506100ae81610088565b92915050565b6000602082840312156100ca576100c9610079565b5b60006100d88482850161009f565b91505092915050565b600073ffffffffffffffffffffffffffffffffffffffff82169050919050565b600061010c826100e1565b9050919050565b61011c81610101565b82525050565b60006020820190506101376000830184610113565b9291505056fea26469706673582212204c68c8e0e5bc3938b22dc69774ac3476927194f9b3f7d36404187f29c901882c64736f6c634300080a0033",
  "immutableReferences": {},
  "source": "pragma solidity ^0.8.10;\n\nlibrary util {\n    // Takes bytes in the form:\n    // \"https://www.twitch.tv/0xdEa3e18AA866f46DA789f0b908e90bF55A0dCa90\"\n\n    function bytes32ToAddress(bytes32 input) public pure returns (address){\n          bytes20 aux;\n          return address(aux);\n    }\n}",
  "sourcePath": "/Users/msicilia/Desktop/dev/lrn/consensys/blockchain-developer-bootcamp-final-project/contracts/util.sol",
  "compiler": {
    "name": "solc",
    "version": "0.8.10+commit.fc410830.Emscripten.clang"
  },
  "schemaVersion": "3.4.3",
  "updatedAt": "2021-11-25T11:53:02.484Z",
  "devdoc": {
    "kind": "dev",
    "methods": {},
    "version": 1
  },
  "userdoc": {
    "kind": "user",
    "methods": {},
    "version": 1
  }
}